:020000040800F2
:1000000060230020B501000889420008D1250008BE
:100010009D34000895050008AD4A00080000000066
:10002000000000000000000000000000514A00082D
:100030001507000800000000914600087D4A0008EE
:10004000CF010008CF010008CF010008CF01000850
:10005000CF010008CF010008CF010008CF01000840
:1000600019070008CF010008CF010008CF010008E0
:10007000CF010008CF010008CF010008CF01000820
:10008000CF010008CF010008CF010008CF01000810
:10009000CF010008CF010008CF010008CF01000800
:1000A000CF010008CF010008CF010008CF010008F0
:1000B000A14A0008CF010008CF010008CF010008C5
:1000C000CF010008CF010008CF010008CF010008D0
:1000D000CF010008CF010008CF010008CF010008C0
:1000E000CF010008CF010008CF01000800F002F89E
:1000F00000F050F814A696E8000CB244B344DA4578
:1001000001D100F047F8BAE80F000FA696E83000DA
:10011000A5EB040504EB0607AAEB0704A7F101070A
:100120004FEA15154FEA3414A4F10104AC4201D38F
:1001300000F030F813F0010F18BFFB1A43F0010371
:1001400000F001F8DBE7184738B5000058B50000AB
:10015000103A24BF78C878C1FAD8520724BF30C8F3
:1001600030C144BF04680C60704700007047000055
:100170000023002400250026103A28BF78C1FBD8B0
:10018000520728BF30C148BF0B6070471FB51FBD65
:1001900010B510BD00F0C8F91146FFF7F7FF05F0E4
:1001A0001BFE00F0E6F903B4FFF7F2FF03BC00F01A
:1001B000E9F900000948804709480047FEE7FEE7E3
:1001C000FEE7FEE7FEE7FEE7FEE7FEE7FEE7FEE707
:1001D00004480549054A064B704700009D4A00083F
:1001E000ED000008601D002060230020601F00203B
:1001F000601F002053EA020C23D010B54C1084EA93
:10020000530404D54042C1F1000138BF491E1B42CE
:1002100004D55242C3F1000338BF5B1E00F0C7F89B
:1002200014F0804F04D04042C1F1000138BF491E94
:1002300014F0004F04D05242C3F1000338BF5B1EDC
:1002400010BD13B540424FF0000070EB0104B8BF81
:10025000012001F0004100281CBF6FF000414FF069
:10026000FF30AFF300801CBD40EA010310B59B07CF
:100270000FD1042A0DD310C808C9121F9C42F8D010
:1002800020BA19BA884201D9012010BD4FF0FF30C1
:1002900010BD1AB1D30703D0521C07E0002010BDD7
:1002A00010F8013B11F8014B1B1B07D110F8013B63
:1002B00011F8014B1B1B01D1921EF1D1184610BD44
:1002C000032A40F2308010F0030C00F0158011F882
:1002D000013BBCF1020F624498BF11F801CB00F85A
:1002E000013B38BF11F8013BA2F1040298BF00F8AE
:1002F00001CB38BF00F8013B11F0030300F0DA80B6
:10030000083AC0F0088051F8043B083A51F804CB91
:10031000A0E80810F5E7121D5CBF51F8043B40F857
:10032000043BAFF30080D20724BF11F8013B11F862
:1003300001CB48BF11F8012B24BF00F8013B00F8A6
:1003400001CB48BF00F8012B704702F0FF0343EADE
:10035000032242EA024200F002B84FF0000200B568
:10036000134694469646203922BFA0E80C50A0E8D8
:100370000C50B1F12001BFF4F7AF090728BFA0E886
:100380000C5048BF0CC05DF804EB890028BF40F852
:10039000042B08BF704748BF20F8022B11F0804F94
:1003A00018BF00F8012B704770477047704753EA39
:1003B000020C00F069802DE9F04B4FF00006002B95
:1003C0001FBFB3FA83F503FA05F424FA05F65E407D
:1003D00012BF1643B2FA82F502FA05F4C5F1200500
:1003E0001EBF22FA05FC44EA0C04203556EA044CF0
:1003F0004FEA144418BF641C4FF000084FF0000986
:10040000904271EB030C39D3002919BFB1FA81F77F
:1004100001FA07F6B0FA80F700FA07F6C7F12007ED
:100420001EBF20FA07FC46EA0C062037B6FBF4FC98
:10043000A7EB0507103F07F01F0BCBF120062CFAA6
:1004400006F60CFA0BFB44BFB3460026202FA4BFD0
:100450005E464FF0000B5BEA060C08BF4FF0010B45
:1004600019EB0B0948EB0608ABFB027C06FB02CC40
:100470000BFB03CCC01B71EB0C01C1E70B46024622
:1004800041464846BDE8F08B13B5084318BF4FF00E
:10049000FF300146AFF30080BDE81C40704710B547
:1004A00000F03AF8006810BD10B5044600F034F8CA
:1004B000046010BD10B5203AC0F00B80B1E81850B0
:1004C000A0E81850B1E81850A0E81850203ABFF43E
:1004D000F5AF5FEA027C24BFB1E81850A0E81850DD
:1004E00044BF18C918C0BDE810405FEA827C24BF31
:1004F00051F8043B40F8043B08BF7047D20728BFBF
:1005000031F8023B48BF11F8012B28BF20F8023B0D
:1005100048BF00F8012B704700487047400000209A
:1005200000487047400000207546FFF7F9FFAE46CF
:1005300005006946534620F00700854618B020B5EF
:10054000FFF746FEBDE820404FF000064FF00007E1
:100550004FF000084FF0000BAC46ACE8C009ACE827
:10056000C009ACE8C009ACE8C00921F007018D461C
:10057000704710B50446AFF300802046BDE8104038
:10058000FFF711BE01491820ABBEFEE726000200AE
:1005900070470000FEE700002DE9F04182B040F214
:1005A0002C1440F20008C2F20004C4F216380027EE
:1005B0002046002100220023CDE9007804F05EF8F7
:1005C00000250026C4F27A35C4F2482604F134002E
:1005D000002100220023CDE9006504F04FF840F22D
:1005E0007024C2F200042046002100220023CDE93D
:1005F000007804F043F804F13400002100220023C5
:10060000CDE9006504F03AF840F2DC40C2F20000A7
:10061000002100220023CDE9006504F02FF802B08C
:10062000BDE8F08170B588B040F2C004C2F20004A9
:10063000002044F8480FA081C4E90100682075211A
:100640000122234605F02CF82078682860D100208C
:1006500005F036FD10B108B070BD00BF782006F07F
:10066000ABFB782005F076FCC82006F001FB04F017
:1006700085FBAC2004F074FD40F2731004F02EFAF8
:10068000C82004F0C5FC05A802A906F089F80728CF
:1006900038D101A805F0ECFCDDE90506079C09F05E
:1006A00081FE019D0146284609F010FF09F05EFE1B
:1006B0000590304609F076FE0146284609F006FF0F
:1006C00009F054FE0690204609F06CFE01462846CB
:1006D00009F0FCFE09F04AFE079005A804F0D0FCE2
:1006E0000DF1020005F0A4FC02ABBDF802000ECB38
:1006F0004143029102FB00F15843049002A8039188
:1007000004F024FC012006F0F5F908B070BD00BF2C
:1007100004F0CEF970470000042000F0C1B80000DA
:10072000EFF3108072B600BFFEE70000B0B50446DC
:1007300000F0DEF9054640F20000C2F20000007849
:10074000611C18BF044400BF00F0D2F9401BA04256
:10075000FAD3B0BD002908BF70472DE9F04F81B032
:1007600040F2004E41F20042C4F2010EC4F2010216
:1007700090424FF004024FF000046FF01F05AEF5F9
:100780007E774FF00F0808BF0322009219E000BFE8
:100790000246BBF5807F24BF0432AA46136808FADC
:1007A0000AF6B343042606FA0AF633431360C26816
:1007B00002EA0C02C260013431FA04F205F10405C8
:1007C0004ED00122A24012EA010BF4D024F0030221
:1007D000BE5840F60002C4F20102904210D040F62A
:1007E0000042C4F20102904208D041F20002C4F279
:1007F00001029042009A08BF022202E0012200E0BA
:10080000002205F1200A0AF00C0308FA03F906EAAF
:1008100009069A4096426FEA0B0CB9D1DEF8002027
:1008200040F20C4302EA0C02CEF80020DEF804206D
:10083000C4F2010302EA0C02CEF804201A6802EAAC
:100840000C021A60DEF80820A30802EA0C02CEF8B7
:10085000082057F8232022EA090247F8232097E7C7
:1008600001B0BDE8F04F7047042818BF7047B0B51D
:10087000072003F0CFF8044640060BD540F21815C8
:10088000C2F2000505F10C016120082203F076F8A0
:100890000120287007202146BDE8B04003F0BCBC11
:1008A00040F21441C4F201010A68024214BF086018
:1008B0007047FFF7D9BF00002DE9F04F82B00E68F6
:1008C000002E00F0FD8041F20042C4F20102042338
:1008D00040F2004E904208BF03234FF6FF7CC4F263
:1008E000010E009300240123C1F2100C4FF0000A06
:1008F0004FF000094BE000BF41F20002C4F20102D8
:10090000009F904208BF022704F00C030F229A4078
:100910002BEA020207FA03F34FEA9A051A4346F854
:1009200025204E6840F20C45F202DEF8082054BF44
:1009300022EA080242EA0802C4F20105CEF80820C1
:100940002A68B30254BF22EA080242EA08022A6077
:10095000B303DEF8042054BF22EA080242EA080288
:10096000F303CEF80420DEF800204FF0010354BF5B
:1009700022EA080242EA0802CEF800200E680AF1D4
:10098000010A36FA0AF204F1040400F0998003FA2D
:100990000AFB16EA0B08F1D04E68664512DC122EEF
:1009A00056D8DFE806F0350B4D4955555555555588
:1009B0005555555555555545510000BFD1F80C902A
:1009C00046E000BF4FF6FF72C1F2210296420FDCF3
:1009D0000022C1F2110296421AD00022C1F2120284
:1009E000964215D00022C1F22102964210D02FE08B
:1009F0000022C1F2220296420AD00022C1F2310244
:100A0000964205D00022C1F23202964220D100BFA8
:100A10008A684AB1012A14BFC0F814B0C0F810B0F7
:100A20004FF0080914E000BF4FF0040910E000BFC8
:100A3000CA6802F104090BE04FF0000908E000BFAA
:100A4000CA6802F1080903E0CA6802F10C0900BF94
:100A500002462646B8F5807F24BF0432203E176840
:100A60000F25B54027EA050509FA06F63543156056
:100A7000CA79D2067FF582AF41F21803C4F20203AD
:100A80001A68AEF57E7642F001021A601A6802F02A
:100A900001020192019A2AF0030256F802B040F6D0
:100AA0000002C4F20102904208D040F60042C4F2B3
:100AB000010290427FF420AF012725E7002723E7BA
:100AC00002B0BDE8F08F00008068084018BF012028
:100AD00070470000C26802EA0103914341EA034102
:100AE00001617047002A08BF0904016170470000D6
:100AF00041F26060C2F2000000687047002804BF45
:100B00000120704710B5242180F83D10016804468B
:100B10000A6822F001020A6000F010FB0020206445
:100B200084F83D00206384F83E0084F83C0010BD4A
:100B3000002804BF01207047F0B581B0044690F84A
:100B40003D0028B9002084F83C00204600F014FB4A
:100B5000242084F83D002068016821F00101016033
:100B6000016841F400410160016821F40041016025
:100B700000F03EFD636848F2A16CC0F2010C40F643
:100B80000011C0F23D0163453CBF48F28041C0F214
:100B90001E01884202D2012001B0F0BD4DF68361F2
:100BA000C4F21B31A0FB01122168970CD1F804E0BC
:100BB0004FF496762EF03F0545EA92454D60774317
:100BC00048F638160D6AC0F24106A7FB067625F0F6
:100BD0003F07634538BF960C721C3A430A62CA69E4
:100BE00048F2A0664CF6FF77C0F20106B34222EA53
:100BF00007020BD801385B00B0FBF3F001306FF354
:100C00001F30042898BF04201BE000BFA7680138EC
:100C100057B119277B43B0FBF3F001306FF31F305E
:100C200070B100F5804007E003EB4303B0FBF3F045
:100C300001306FF31F3018B100F5004001E000BF34
:100C400001201043C8610868D4E9072320F0C000E0
:100C5000104318430860886848F2FF3204F10C071B
:100C600090438CCF18431043A6698860C86820F071
:100C7000FF0038433043C860086840F00100086056
:100C800000202021206484F83D10206384F83E0079
:100C900001B0F0BD2DE9F04F85B004460020994623
:100CA00016460F460490FFF723FF94F83D102029C5
:100CB00027D10546206800BF816989071CD5FFF749
:100CC00017FF411B20681A29F6D381698907F3D5DC
:100CD00000202021206384F83D1084F83E00206C21
:100CE00004F13C0A40F020002064022000218AF830
:100CF000001005B0BDE8F08FA2461AF83C1F01298C
:100D000004D1022005B0BDE8F08F00BF01228AF8AF
:100D100000200368DDE90F180E9ADB0703D1036892
:100D200043F001030360036823F40063036022209F
:100D300084F83D00402084F83E0000202064626278
:100D40006185608D394620850020CFF6FF70E06216
:100D5000204632464B46CDE9008501F03BFC18B1F8
:100D6000012005B0BDE8F08F208D022826D0012893
:100D70000ED0002838D100200390206841690391EB
:100D8000816903910399016841F40071016037E0C2
:100D90002068016821F480610160EFF3108072B671
:100DA00000200390206841690391816903910399B0
:100DB000016841F40071016062B621E020680168B9
:100DC00041F400610160EFF3108072B600200390DF
:100DD000206841690391816903910399016821F4B5
:100DE0008061016062B60BE02068016841F48061B7
:100DF0000160002103914169039180690390039888
:100E0000208D002800F0CC80042740F20C094BF222
:100E1000895BC0F20107C2F20009C1F2F84B232638
:100E20000EE000BF10690870606A218D01306062B9
:100E3000481E2085618D01396185010400F0B08074
:100E400080B203280CD802282CD001284AD1204691
:100E500041462A4601F05CFE002800F09C807FE7B6
:100E6000204641462A4601F053FE00287FF478AF21
:100E70002068616A00690870606A2268411C208DE0
:100E8000616201382085638D013B638553695B078F
:100E9000D3D580B20328C5D1106820F480601060DB
:100EA000C0E700BF2046394600224346009501F0C6
:100EB000DDFC00287FF454AFEFF3108072B6206899
:100EC000616A026842F40072026000690870606A38
:100ED000218D01306062481E2085608D013860855B
:100EE00062B658E02046394600224346009501F09C
:100EF000BDFC00287FF434AF2068016821F48061D4
:100F00000160EFF3108072B62068616A00690870B2
:100F1000606A218D0130013960622185618D01395E
:100F20006185D9F80010C908A1FB0B12110A7143A1
:100F30000491049901390491049900293CD0216855
:100F40004A69520717D4049A013A0492049A9AB350
:100F50004A6952070FD4049A013A0492049A5AB388
:100F60004A69520707D4049A013A0492049A1AB3C0
:100F70004A695207DDD50A6842F400720A600969BD
:100F80000170606A218D01306062481E2085608D8D
:100F90000138608562B62068616A006943E700BF76
:100FA000202084F83D00002084F83E0000218AF8CB
:100FB000001005B0BDE8F08F00202021206384F8E8
:100FC0003D1084F83E00206C40F02000206462B6A2
:100FD000012000218AF8001005B0BDE8F08F000064
:100FE0002DE9F04383B0994616460F460446FFF7B5
:100FF0007FFD94F83D10202924D10546206800BFCC
:10100000816989071AD5FFF773FD411B20681A29EA
:10101000F6D381698907F3D500202021206384F865
:101020003D1084F83E00216C41F02001216484F8D9
:101030003C00022003B0BDE8F08300BF94F83C10F0
:10104000012903D1022003B0BDE8F083012284F816
:101050003C200368DDE90B180A9ADB0703D103681B
:1010600043F001030360036823F40063036021205D
:1010700084F83D00402084F83E0000202064626235
:101080006185608D394620850020CFF6FF70E062D3
:10109000204632464B46CDE9008501F025FB18B1CC
:1010A000012003B0BDE8F083208D98B92046414669
:1010B0002A4601F07DFB88B3206C0428F0D120681B
:1010C000016841F400710160012003B0BDE8F083C4
:1010D0000004EBD0204641462A4601F061FD00287D
:1010E000EAD1616A2268084610F8013B1361238D3A
:1010F0006062581E2085678D013F678557697F07AD
:10110000E6D50704E4D048781061881C6062981E18
:101110002085618D01396185DAE700BF20680168AB
:1011200041F400710160202084F83D00002084F823
:101130003E0084F83C0003B0BDE8F08310B540F6F3
:101140000044C4F201040068A4F53841884218BF85
:1011500010BD41F21C00C4F20200016821F400112C
:10116000016020464021FFF7F5FA20468021BDE8C6
:101170001040FFF7EFBA000010B586B0016845F2E5
:101180000040C4F2000081424FF00001CDE904119B
:10119000CDE9021102D006B010BD00BF41F2180423
:1011A000C4F20204216800F5384041F008012160D2
:1011B000216801F0080101910199C02102911221D9
:1011C00003910321059102A9FFF776FB606840F4C3
:1011D00000106060606800F400100190019806B093
:1011E00010BD000040F2000041F26061C2F2000058
:1011F000C2F2000100780A681044086070470000DD
:1012000080B542F20000C4F20200016841F0100112
:101210000160032000F0DCF80F2000F005F800F07A
:101220005BF8002080BD0000B0B586B041F21C0123
:10123000C4F202010A68044642F001020A60096829
:1012400001A801F0010101910199694600F0AEF990
:10125000049D002D18BF012500F0CAF94DF68361E9
:10126000A840C4F21B31A0FB01014FF0FF3000EB9E
:10127000914140F20040C2F200004FF0804240F243
:10128000E7330025C0E90021C0E90253056185610B
:1012900000F028FE10B106B0B0BD00BF40F2004023
:1012A000C2F2000000F09EFE0028F4D11C2000F0E5
:1012B00051F80F2C0CD81C202146002200F05CF8BD
:1012C00040F204010020C2F200010C6006B0B0BD83
:1012D000012006B0B0BD000080B582B041F2180018
:1012E000C4F202000168002241F0010101600168BE
:1012F00001F0010101910199416841F08051416083
:1013000040680F2100F08050009000986FF00100BD
:1013100000F032F80420C4F201000168022262F3F6
:101320001A61016002B080BD002848BF704700F01C
:101330001F01012202FA01F11C2202EAD0004EF242
:101340008012CEF200028150BFF34F8FBFF36F8F38
:1013500070470000002848BF704700F01F010122BD
:1013600002FA01F11C2202EAD0004EF20012CEF283
:10137000000281507047000010B54EF60C5CCEF2B2
:10138000000CDCF80030C3F3022E8EF00704042CAE
:1013900028BF0424BEF103034FF0FF3E0EFA04F40D
:1013A00038BF0023A14399400EFA03F39A43114337
:1013B00000F00F0200F160430901043A03F56443B1
:1013C0006244002848BF02F10C03197010BD0000F0
:1013D0004EF60C51CEF200010A684FF6FF031A4098
:1013E00060F30A2242F0806040F0FD7008607047B0
:1013F000002804BF012070472DE9F04381B042F27C
:101400000008C4F202080446D8F800000D4600F0B7
:10141000070081420CD9D8F8000020F007002843CB
:10142000C8F80000D8F8000000F00700A8426CD10E
:10143000206841F204098107C4F2020917D5410767
:1014400005D5D9F8001041F4E061C9F80010010792
:1014500005D5D9F8001041F46051C9F80010D9F849
:101460000010A26821F0F0011143C9F80010C00774
:1014700042D1D8F8000000F0070085420CD2D8F81D
:10148000000020F007002843C8F80000D8F800004A
:1014900000F00700A84238D12068410707D5D9F8E5
:1014A0000010E26821F4E0611143C9F80010000760
:1014B00008D5D9F80000216920F4605040EAC10045
:1014C000C9F80000D9F8002002F00C00082841F209
:1014D0000020C0F27A004DD14AF6C013C2F3834116
:1014E000C0F60003595CD20338D440F60010C0F2B5
:1014F0003D0048433EE000BF606859F8041C0228E4
:1015000008D0012826D1890306D4012001B0BDE806
:10151000F08300BF8901F8D5D9F8001021F003014C
:101520000843C9F80000FFF7E3FA064641F288379E
:10153000D9F80000616800F00C00B0EB810F98D082
:10154000FFF7D6FA801BB842F2D9032001B0BDE8FC
:10155000F08300BF8907D8D5DEE700BFD9F80020A7
:101560004AF67413C2F34042C0F600039A5C484343
:10157000B0FBF2F0D9F800104AF63612C1F30311AD
:10158000C0F60002515C40F20C0220FA01F140F278
:101590000400C2F200000068C2F200021160FFF70E
:1015A00043FE002001B0BDE8F08300000F2202607E
:1015B00041F20402C4F20202136803F00303436021
:1015C000136803F0F0038360136803F4E063C360FF
:1015D00012684FF4E06303EAD202026142F20000B3
:1015E000C4F20200006800F00700086070470000C5
:1015F00040F20C0041F20401C2F20000C4F2020108
:10160000006809684AF64612C1F30221C0F60002DA
:10161000515CC84070470000002804BF012070479B
:101620002DE9F04182B00446007841F20006C0077F
:10163000C4F202060CD0706800F00C00042840F0E0
:1016400081803068800303D56068002800F04681FF
:10165000207880071BD5706810F00C0F09D07068D7
:1016600000F00C00082840F087807068C00300F18B
:1016700083803068800703D52069012840F02E81DF
:101680003068616920F0F80040EAC10030602078DD
:10169000000713D4207840072CD4E569002D00F012
:1016A0001881706800F00C00082840F0A780012D18
:1016B00040F00481012002B0BDE8F081A06900285B
:1016C00000F084800020C4F242200121C0F8801480
:1016D000FFF70EFA054600BF706A800700F1B2807E
:1016E000FFF706FA401B0228F6D9032002B0BDE836
:1016F000F08100BFF0695FEAC00808D4F06940F0EB
:101700008050F061F06900F080500090009847F23E
:101710000007C4F200073868C00549D4386840F4AF
:1017200080703860FFF7E4F9054600BF3868C005EF
:101730003ED4FFF7DDF9401B6428F7D9032002B03F
:10174000BDE8F081706800F00C00082803D17068D3
:10175000C0033FF576AF61683068002900F00C8166
:10176000B1F5A02F00F00081B1F5803F40F01A8163
:1017700040F480301CE100BF2069002840F20000E6
:10178000C4F2422000F0888001210160FFF7B0F927
:10179000054600BF306880073FF572AFFFF7A8F934
:1017A000401B0228F6D9032002B0BDE8F08100BF3B
:1017B000E168306A002900F09D80052900F09280E0
:1017C000012940F0AF8040F00100B1E00020C4F2F8
:1017D00042200021C0F88014FFF78AF9054600BFB7
:1017E000706A80077FF556AFFFF782F9401B022829
:1017F000F6D9032002B0BDE8F08100BF0027C4F293
:10180000422700203866FFF773F9022D05460DD1F7
:101810003068800140F1DE80FFF76AF9401B022842
:101820004FF00300F4D902B0BDE8F08130688001C8
:101830004FD5FFF75DF9401B02284FF00300F5D9A3
:10184000F1E700BF40F20C00C2F20000006844F66D
:10185000D351C1F26201A0FB0101480A019000BF0F
:1018600000BF0198411E002801913FF413AF00BF53
:101870000198411E002801913FF40CAF00BF019870
:10188000411E002801913FF405AF00BF0198411EA1
:1018900000280191E4D1FDE600210160FFF728F95D
:1018A000054600BF306880077FF5F1AEFFF720F9ED
:1018B000401B02284FF00300F4D9B4E77068216A96
:1018C00000F480328A4209D1616A00F470108842C3
:1018D00004D1002002B0BDE8F08100BF012002B0B9
:1018E000BDE8F08140F004003062306A40F0010051
:1018F0001EE000BF20F001003062306A20F00400DA
:101900003062FFF7F5F8054641F28837306A800704
:1019100020D5FFF7EDF8401BB8424FF00300F5D992
:1019200081E700BF20F001003062306A20F004003F
:101930003062FFF7DDF8054641F28837306A8007EC
:1019400008D4FFF7D5F8401BB842F7D9032002B0FE
:10195000BDE8F081B8F1000F3FF59FAEF06920F0CF
:101960008050F06199E600BF40F48020306030681C
:1019700040F480301CE000BF20F4803030603068DC
:1019800020F480203060FFF7B3F80546306880030C
:101990007FF55EAEFFF7ACF8401B64284FF0030004
:1019A000F4D940E720F480303060306820F48020A3
:1019B0003060FFF79DF80546306880033FF548AE7C
:1019C000FFF796F8401B6428F6D9032002B0BDE863
:1019D000F08100BF206AB0F5803F05D17168A26830
:1019E00021F40031114371607168626A21F474114D
:1019F00011430843706001203866FFF779F8044608
:101A0000306880013FF565AFFFF772F8001B0228D0
:101A10004FF00300F4D906E770B528B1416A29B147
:101A200000210161142106E0012070BD4168B1F57B
:101A3000827F02D01C21002242500026866290F84C
:101A4000511029B980F85060054600F039F8284651
:101A5000022180F8511090E82E0002F482720C6886
:101A600003F4044324F040040C601A4405F40063BA
:101A700005691A4405F0020345691A4405F001039B
:101A80008569C4691A4405F400731A4404F03803E4
:101A9000046A1A4404F08003846A1A4304F400536D
:101AA0001A430A60042202EA15424A60CA6922F413
:101AB0000062CA610121466580F85110304670BD50
:101AC00070B586B040F60004C4F20104006804F565
:101AD0002051002688420596CDE90366029601D082
:101AE00006B070BD41F21800C4F20200016802ADF8
:101AF00041F480510160016801F480510191019924
:101B0000016841F0040101600068294600F004000A
:101B100001900198A02002900220039003200590DC
:101B20002046FEF7C9FE4020CDE9020620462946A0
:101B30000496FEF7C1FE06B070BD00002DE9F0432B
:101B400083B01E4615460F460446FEF7D1FF94F8B3
:101B500051108146012909D1002F4FF0010018BF13
:101B6000002D0FD103B0BDE8F08300BF6068B0F571
:101B7000827F0DD104294FF00200F3D1A168002922
:101B8000EAD0EFE7002EEDD094F85000012803D101
:101B9000022003B0BDE8F083012084F8500094F8DF
:101BA0005100002104281CBF052084F85100616504
:101BB000A563E687A6872763E6862068A686216454
:101BC00061640168490603D4016841F04001016085
:101BD0006168731EE268B1FA81F1B3FA83F3DDF84C
:101BE000288049095B09B2F5006F41EA030165D11C
:101BF00031B137F8021BC1602763E08E0138E086FF
:101C0000012518F1010032D102E000BFFEF770FF9C
:101C1000E08E18B9E08F002800F0B8802068816855
:101C200089070CD5E18E51B1012D08D1216B00251A
:101C300031F8022BC2602163E18E0139E1868168AF
:101C4000C907E3D0E18F0029E0D0C068A16B01256E
:101C500021F8020BA163E08F0138E087D6E700BFCF
:101C6000FEF746FFA0EB0900404580F0AF80E08E14
:101C700018B9E08F002800F0898020688168890702
:101C80000CD5E18E51B1012D08D1216B002531F821
:101C9000022BC2602163E18E0139E1868168C907A8
:101CA000DED0E18F0029DBD0C068A16B012521F8CF
:101CB000020BA163E08F0138E087D1E739B13978B1
:101CC0000173206B01302063E08E0138E08601252E
:101CD00018F1010032D101E0FEF70AFFE08E10B9E1
:101CE000E08F002852D02068816889070ED5E18EE8
:101CF00061B1012D0AD1216B002509780173216B97
:101D0000206801312163E18E0139E1868168C907CC
:101D1000E2D0E18F0029DFD0C068A16B01250870F7
:101D2000A06B0130A063E08F0138E087D4E700BFEB
:101D3000FEF7DEFEA0EB0900404547D2E08E08B971
:101D4000E08F18B32068816889070ED5E18E61B1F4
:101D5000012D0AD1216B002509780173216B2068C0
:101D600001312163E18E0139E1868168C907DFD045
:101D7000E18F0029DCD0C068A16B01250870A06B41
:101D80000130A063E08F0138E087D1E720460221CF
:101D900001224346CDF8009002F0C4FD40B9204630
:101DA000802100224346CDF8009002F0BBFDB8B17F
:101DB000606D40F02000606520206065002084F8A0
:101DC0005000012003B0BDE8F08300BF012084F87B
:101DD0005100002084F85000032003B0BDE8F083D8
:101DE000A06838B9002002902068C168029180681C
:101DF00002900298012084F85100002084F85000DD
:101E0000606D002818BF012003B0BDE8F08300001A
:101E1000704700007047000090F83C20012A04BF82
:101E200002207047B0B501F108053CCDD1E900CEE4
:101E300023F47C5322F470521A432EF4F0431A43D5
:101E40002CF4E0431A4324F4C0431A432A43C969DB
:101E500022F48042036811435964002180F83C1049
:101E60000020B0BD90F83C20012A4FF0020236D08D
:101E700010B580F83D200268D2F804E0D2F808C01E
:101E80000C682EF07003234340F2FF74C4F2000488
:101E9000A24253600ADCB2F1804F13D040F20043FB
:101EA000C4F200039A420DD011E000BF42F6004395
:101EB000C4F201039A4205D040F60003C4F20003C5
:101EC0009A4204D149682CF08003194391600121A2
:101ED000002280F83D1080F83C20BDE810401046FC
:101EE00070470000002804BF0120704710B590F82B
:101EF0003D1031B9002180F83C10044600F070F824
:101F00002046022180F83D10016840F2FF740B6802
:101F1000C4F2000442F6004CA142C4F2010C15DCEC
:101F2000B1F1804F1AD040F20042C4F20002914257
:101F300014D0A14218DCB1F1804F1DD040F2004214
:101F4000C4F20002914217D01AE000BF614505D0EB
:101F500040F60002C4F200029142EAD1826823F006
:101F600070031343A142E6DD614505D040F600024F
:101F7000C4F20002914203D1026923F44073134377
:101F8000846923F08002D0F804E0C36822436145ED
:101F90000A60CB62C1F828E002D14269CCF8302057
:101FA00001224A610B69DB0703D00B6923F00103AF
:101FB0000B6180F8462080F83E2080F83F2080F8B2
:101FC000402080F8412080F8422080F8432080F8AB
:101FD000442080F8452080F83D20002010BD0000FE
:101FE0007047000090F83D1001291CBF0120704788
:101FF000022180F83D10006840F2FF72C168C4F20F
:102000000002904241F00101C16009DCB0F1804F53
:1020100012D040F20041C4F2000188420CD012E01C
:1020200042F60041C4F20101884205D040F60001A9
:10203000C4F20001884206D1816801F00701062937
:1020400004BF00207047016841F0010101600020D9
:10205000704700007047000070B504460068C5680E
:102060000669B10716D515F0020113D06FF0020111
:102070000161012121778069800703D02046FFF7A5
:10208000E9FF05E0204600F08FF8204600F026FA30
:1020900000202077700719D515F0040016D02068AD
:1020A0006FF00401016102212177806910F4407F03
:1020B00004D02046FFF7CEFF06E000BF204600F028
:1020C00073F8204600F00AFA00202077300717D571
:1020D00015F0080014D020686FF008010161042198
:1020E0002177C069800703D02046FFF7B3FF05E0E2
:1020F000204600F059F8204600F0F0F90020207743
:10210000F00619D515F0100016D020686FF01001F8
:10211000016108212177C06910F4407F04D0204676
:10212000FFF798FF06E000BF204600F03DF820468C
:1021300000F0D4F900202077F00718BF15F0010057
:1021400002D1300609D412E020686FF0010101616C
:10215000204600F033FA300609D515F0800006D08D
:1021600020686FF0800101612046FFF751FE700684
:1021700009D515F0400006D020686FF040010161DC
:10218000204600F023FAB00658BF70BD15F02000BD
:1021900008D021686FF0200220460A61BDE8704037
:1021A000FFF738BE70BD00007047000090F83C306B
:1021B000012B04BF022070474FEAB202032A00F24B
:1021C000F1802DE9F043DFE802F003A53B7500BF85
:1021D000036842F600461D6A1A6AC4F2010622F03C
:1021E00001021A621A465C6852F818CFB3428E6830
:1021F000D1F800E025F0020545EA06050CD1CE68CD
:10220000D1E9057824F4407425F00C0526F0040685
:102210003C43354344EA08042CF0730747EA0E07B1
:102220005C609F614F6809695F631D629F6947F049
:1022300008079F619F6927F004079F61A6E000BF20
:10224000036842F600461D6A1A6AC4F2010622F4C7
:1022500080721A621A46D3F804C052F81CEFB342D7
:102260008E680C6825F4007545EA06250FD1CE6806
:10227000D1E90598360240F2FF4725F44065BE4398
:1022800035432CF4405748EA090647EA061C2EF06D
:1022900073072743C3F804C0DF614F680969DF6330
:1022A0001D62DF6947F00807DF61DF6927F0040777
:1022B000DF616BE0036842F60047D3F820C01A6A7A
:1022C000C4F2010722F480521A621A465C6852F87E
:1022D0001C5FD1F800E08E68BB4204D14F6924F442
:1022E000804444EA87142CF4005747EA063725F463
:1022F000E64646EA0E265C60DE614E6809691E64A9
:102300001F62DF6947F40067DF61DF6927F48067D8
:10231000DF613AE0036842F600461D6A1A6AC4F2B9
:10232000010622F010021A621A46D3F804C052F8CD
:10233000184FB3428E68D1F800E025F0200545EA39
:1023400006150FD1CE68D1E905986FF0400725F04A
:10235000C00507EA061635432CF4406748EA09062B
:1023600047EA860C24F4E64444EA0E27C3F804C086
:102370009F614F6809699F631D629F6947F4006709
:102380009F619F6927F480679F6109021368194361
:1023900011600021BDE8F043002280F83C2008468F
:1023A000704700BF0121002280F83C20084670479A
:1023B000002804BF0120704710B590F83D1031B9D6
:1023C000002180F83C10044600F070F820460221FD
:1023D00080F83D10016840F2FF740B68C4F20004FD
:1023E00042F6004CA142C4F2010C15DCB1F1804F61
:1023F0001AD040F20042C4F20002914214D0A1422D
:1024000018DCB1F1804F1DD040F20042C4F200024E
:10241000914217D01AE000BF614505D040F6000296
:10242000C4F200029142EAD1826823F070031343A0
:10243000A142E6DD614505D040F60002C4F200028B
:10244000914203D1026923F440731343846923F05A
:102450008002D0F804E0C368224361450A60CB6281
:10246000C1F828E002D14269CCF8302001224A614B
:102470000B69DB0703D00B6923F001030B6180F8C4
:10248000462080F83E2080F83F2080F8402080F8E9
:10249000412080F8422080F8432080F8442080F8D2
:1024A000452080F83D20002010BD0000006842F665
:1024B0000041C4F20101884218BF704781B041F267
:1024C0001800C4F20200016841F400610160006874
:1024D00000F400600090009801B070477047000061
:1024E000C1B1042908D0082914BF41224022825CCE
:1024F000012A05D016E000BF3F22825C012A11D1DB
:102500000222082910D0042914BF80F8412080F845
:102510003F200BE090F83E20012A03D1022280F8F0
:102520003E2003E00120704780F84020006801F061
:102530001F010122036A8A4023EA02010162036A41
:1025400042F64441C4F201011A43A1F14403984206
:1025500002620FD040F2FF71C4F20001884213DC26
:10256000B0F1804F1CD040F20041C4F2000188421B
:1025700016D01CE00A6842F400420A6040F2FF7183
:10258000C4F200018842EBDD42F60041C4F20101D1
:10259000884205D040F60001C4F20001884206D10D
:1025A000816801F00701062904BF00207047016817
:1025B00041F0010101600020704700000068B0F1A7
:1025C000804F18BF7047FEF70DBE00007047000037
:1025D000FEE700002DE9F04782B0044600689A4605
:1025E0000B9D0A9E0368914643F480620260026874
:1025F0000F4642F48071016020464FF00111002225
:102600003346009500F032F950B120680068C005EB
:1026100044BF4FF400702064032002B0BDE8F0878F
:1026200040F202082068C0F2010807F0FE070761C7
:102630002046414632462B4600F0FEF920B10120EB
:1026400002B0BDE8F08700BF0020019020682A4654
:10265000416901918069314601900198204600F05E
:102660009FFAB0B92068BAF1010F09D04FEA1921D9
:102670000161204631462A4600F092FA48B92068A6
:102680005FFA89F10161204631462A4600F088FA56
:1026900060B1206C0428D2D12068016841F4007137
:1026A0000160012002B0BDE8F08700BF2068002271
:1026B0000168334641F48071016020464FF00111FA
:1026C000009500F0D3F800289FD147F0010C27684F
:1026D0002046414632462B46C7F810C002B0BDE83E
:1026E000F04700F0A9B900002DE9F04383B004469B
:1026F00000680F4601680A9D0B9E41F4807199465F
:102700009046016020464FF0011100222B460096B2
:1027100000F0ACF850B120680068C00544BF4FF429
:1027200000702064032003B0BDE8F083206807F048
:10273000FE0101610221C0F2010120462A46334612
:1027400000F07AF920B1012003B0BDE8F08300BFAA
:102750000020029020683246416902918069294632
:1027600002900298204600F01BFA58B1206C042811
:10277000E9D12068016841F400710160012003B0D3
:10278000BDE8F0832068B9F1010F0AD04FEA1821A3
:10279000016120462946324600F002FA0028E5D1C0
:1027A00020685FFA88F10161002003B0BDE8F08382
:1027B00070B50368044653F8140F400711D40E4651
:1027C000481C29D086BB00BF1868400527D4FEF7F7
:1027D0008FF9236853F8140F400737D5186840075E
:1027E000F2D5002070BD00BF18684007F9D4186802
:1027F000400514D418684007F3D4186840050ED477
:1028000018684007EDD41868400508D418684007D8
:102810004FF0000048BF70BD18684005E4D56FF464
:1028200080601860042012E0154603E053F8140F8E
:102830004007D6D418684005F1D4FEF759F9401B7B
:102840002368B042F2D958694007EFD42020002114
:102850002022216384F83D2084F83E10226C10432E
:102860002064012084F83C1070BD00002DE9F04187
:10287000054600681E46144601F47F0201338FB2FC
:1028800042D0DDF81880B2F5803F40F08780406983
:102890003840C01BB0FA80F04009844240F0C88044
:1028A0004EB924E040693840C01BB0FA80F04009BE
:1028B000844240F0BD80FEF71BF9A0EB08012868B8
:1028C000B142EFD941693940C91BB1FA81F14909D7
:1028D0008C42E7D19BE000BF40693840C01BB0FA92
:1028E00080F0400984424FF0000040F0A280FEF7E3
:1028F000FFF8286841693940C91BB1FA81F14909DB
:102900008C42E9D183E000BFB2F5803F24D100BF03
:1029100041693940C91BB1FA81F149098C4240F043
:10292000878041693940C91BB1FA81F149098C425C
:1029300040F07E8041693940C91BB1FA81F14909F3
:102940008C4275D141693940C91BB1FA81F14909FD
:102950008C42DDD06CE000BF81693940C91BB1FAFF
:1029600081F149098C4263D181693940C91BB1FAAF
:1029700081F149098C425BD181693940C91BB1FAA7
:1029800081F149098C4253D181693940C91BB1FA9F
:1029900081F149098C42DFD04AE000BF80693840AC
:1029A000C01BB0FA80F04009844241D146B923E00F
:1029B00080693840C01BB0FA80F04009844237D1AA
:1029C000FEF796F8A0EB08012868B142F0D98169BA
:1029D0003940C91BB1FA81F149098C42E8D116E0AE
:1029E00080693840C01BB0FA80F0400984424FF043
:1029F000000018BFBDE8F081FEF77AF82868816909
:102A00003940C91BB1FA81F149098C42E8D1002053
:102A10002021286385F83D1085F83E00296C41F09F
:102A20002001296485F83C000120BDE8F08100BF49
:102A30000020BDE8F0810000F0B581B004460068D8
:102A40001D4643698FB203EA0701B94202D1002053
:102A500001B0F0BD4169164601323CD0490512D49F
:102A60007EB300BFFEF744F8411B2068B14203D992
:102A700041693940B9422BD141693940B942E6D068
:102A800041694905EED5016841F4007101606FF4B8
:102A900080614161042000212022216384F83D20CF
:102AA00084F83E10226C1043206484F83C1001200E
:102AB00001B0F0BD41693940B942C8D0416949050A
:102AC000E1D4FEF715F8206841693940B942F1D0E8
:102AD0002020E0E741694905D5D441693940B94230
:102AE000B5D041694905CED441693940B942AED02B
:102AF00041694905C7D441693940B942A7D0416904
:102B00004905C0D441693940B942E3D19FE700008B
:102B100070B504460068154650F8143F5A063DD477
:102B20000E4629B926E000BF50F8141F490635D4D7
:102B30000168C90621D4FDF7DBFF411B2068B142C3
:102B4000F2D941694906EFD400202021206384F89E
:102B50003D1084F83E00206C40F0200018E000BFDB
:102B6000FDF7C6FF206850F8141F4906ECD5016830
:102B7000490613D40168C906F2D56FF0100101604F
:102B800000202021206384F83D1084F83E00206C52
:102B90002064002084F83C00012070BD002070BD3E
:102BA00070B50368044653F8140F000611D40E469E
:102BB000481C29D086BB00BF1868400527D4FDF704
:102BC00097FF236853F8140F000637D518680006DE
:102BD000F2D5002070BD00BF18680006F9D418684F
:102BE000400514D418680006F3D4186840050ED4C4
:102BF00018680006EDD41868400508D41868000667
:102C00004FF0000048BF70BD18684005E4D56FF470
:102C100080601860042012E0154603E053F8140F9A
:102C20000006D6D418684005F1D4FDF761FF401BBB
:102C30002368B042F2D958690006EFD42020002161
:102C40002022216384F83D2084F83E10226C10433A
:102C50002064012084F83C1070BD00002DE9F04391
:102C600085B00C46450005200121CDE9011040F258
:102C70000C30984617460DF11309C2F200002946A0
:102C800022460123CDF80090FEF704F840F24A46B0
:102C9000C2F2000630B130880130308002F024FDED
:102CA00002E000BF002030809DF81300012101FAEE
:102CB00007F242EA0003B8F1000F08BF20EA02035E
:102CC00040F20C308DF813300527CDE90091C2F2A7
:102CD00000002946224601230297FEF781F948B1F8
:102CE000318804460131318002F0FEFC204605B0F7
:102CF000BDE8F0830021318005B0BDE8F08300001D
:102D00002DE9F04F85B00C46450040F20C301E46D0
:102D100017464FF005084FF001090DF1130BC2F2F1
:102D20000000294622460123CDE900B9CDF80880EC
:102D3000FDF7B0FF40B140F24A41C2F200010A88FB
:102D400001320A802AE000BF40F24A4AC2F2000A79
:102D50000021AAF800104FF0FF31B140BA1B0E98C5
:102D6000C94301329DF813309140904023EA01019C
:102D700008438DF8130040F20C30C2F200002946DF
:102D800022460123CDE900B9CDF80880FEF728F9E5
:102D900060B1BAF800100131AAF80010044602F040
:102DA000A3FC204605B0BDE8F08F00BF0020AAF8C4
:102DB000000005B0BDE8F08F70B582B00120009032
:102DC00068206B21022203230324FFF799FF682068
:102DD0001B21042202230094FFF792FF00256820A4
:102DE0001C21042202230095FFF78AFF68206B2133
:102DF00006220023FFF732FF68206A210522002304
:102E0000FFF72CFF6820372101220023FFF726FF60
:102E100040F2C006C2F20006344644F8485F68201B
:102E2000752101222346C6E91355A6F8545002F035
:102E300037FC20786838B0FA80F04009307030787C
:102E400002B070BD2DE9F04F8DB00DF111070DF1FD
:102E500012060DF11A0005A909AA08ABCDE9006711
:102E600001F098FFBDF81200C00503D400200DB09A
:102E7000BDE8F08F09AE61CE0C9C07F093FA4FF0DD
:102E8000425107F023FB0746284607F08BFA4FF024
:102E9000425107F01BFB8146304607F083FA4FF0A2
:102EA000425107F013FB0646204607F07BFA4FF02D
:102EB000425107F00BFB834648464FF0404107F074
:102EC00005FB824638463946039707F0C1F831467C
:102ED000044607F0FBFA05465046594607F0F6FA55
:102EE000294607F0B5F807F087F805F0E5FF4AF244
:102EF0006663C4F24C034FF0C04206F09FFD06F03B
:102F000017FB40F2C001C2F2000188613046314631
:102F100007F09EF880462046494607F0D7FA044657
:102F20004046594607F0D2FA214607F091F807F0DB
:102F300063F804460D464046314607F0C7FA074697
:102F40005046494607F0C2FA394607F08BFB4FF06E
:102F50007E5107F07DF807F04FF802460B462046F9
:102F6000294606F0F1F94AF26668C4F24C084FF0BF
:102F7000C042434606F062FD06F0DAFA40F2C007AE
:102F8000039DC2F20007F8612846594607F09EFAF1
:102F900004464846314607F099FA214607F058F8AA
:102FA000014607F055F807F027F804468A464846D8
:102FB0004946B94607F08AFA07462846294607F0E7
:102FC00085FA394607F044F807463046314607F09F
:102FD0007DFA0146384607F045FB064658465946F5
:102FE00007F074FA0146304607F03CFB07F004F89E
:102FF00002460B462046514606F0A6F94FF0C04265
:10300000434606F01BFD06F093FAD9E904518046C9
:1030100007F028FB0021C4F23431064607F088F897
:1030200000210746CCF2B431304607F011F80446CF
:103030000021002F08BF3446CCF23431204607F07F
:103040008CF800210746C4F2B431204607F000F89E
:1030500006464CF6CD41002F08BF264626F000401C
:10306000C3F64C6107F072F830BB3046294606F0D3
:10307000EFFF0021C4F23431044607F059F8002173
:103080000646CCF2B431204606F0E2FF05460021A8
:10309000002E08BF2546CCF234312846C9F810501E
:1030A00007F04DF840B90021C4F2B431284606F0CB
:1030B000CFFF0546C9F81000BDF91400BDF9166030
:1030C000BDF91840C9F81480C9F8205007F06AF912
:1030D0004FF0625107F0FAF94EF60A05C4F21C15DA
:1030E000294607F0F3F9C9F82400304607F05AF9E9
:1030F0004FF0625107F0EAF9294607F0E7F9C9F8FD
:103100002800204607F04EF94FF0625107F0DEF933
:10311000294607F0DBF9C9F82C00BDF91A00BDF902
:103120001C40BDF91E5007F03DF943F23336C4F29E
:103130008316314607F024F8C9F83000204607F01E
:1031400031F9314607F01CF8C9F83400284607F079
:1031500029F9314607F014F8C9F8380001200DB0FC
:10316000BDE8F08F10B544F675204AF6E812C0F6B7
:103170000000C0F60002002103F012FF40F2A0049C
:10318000C2F20004206044F255404AF67812C0F6BC
:103190000000C0F60002002103F002FF606044F26C
:1031A0008D204AF65012C0F60000C0F60002002141
:1031B00003F0F6FEA06044F27D404AF69C12C0F691
:1031C0000000C0F60002002103F0EAFEE06010BD3E
:1031D0002DE9F04385B04FF0000841F21800CDE929
:1031E0000388CDE90188C4F20200016840F60004BA
:1031F00041F0100101600168C4F2010401F0100106
:1032000000910099016804F5006541F0200101601A
:103210000168002201F020010091009901684FF43B
:10322000005641F004010160016801F004010091C1
:103230000099016841F00801016000684FF40051F5
:1032400000F00800009000982846FDF74BFC20464F
:1032500008210022FDF746FC20461021012201270B
:10326000FDF740FC01A880E8C00101AE4FF0020963
:1032700028463146CDF81090FDF71EFB0420019042
:103280000020C1F22100CDE9020720463146FDF7BA
:1032900013FB182001A981E8810320463146FDF780
:1032A0000BFB082005210022FEF766F80820FEF738
:1032B00051F805B0BDE8F08380B540F20C3045F21E
:1032C0000041C2F20000C4F2000141F68022002356
:1032D0004FF4804CC0F2060280E80E00C0E9033CC7
:1032E000C0E90533C0E90733FDF722FC002808BF19
:1032F00080BDBDE88040FDF713BA000080B540F204
:10330000603043F20001C2F20000C4F201014FF448
:103310008272002380E80E0000F114014FF4007C5B
:103320004FF0180E81E808500A21C0E90333C0E9C4
:103330000833C0E90A31FEF76FFB002808BF80BDE3
:10334000BDE88040FDF7ECB970B598B042F6004595
:1033500040F2B830C4F201050021C2F20000472259
:1033600040F6C31380261191CDE90F11CDE90D115F
:10337000CDE90B11CDE90911CDE90711CDE9051111
:10338000CDE90311CDE90111C0E90052C0E90213F2
:10339000C0E904118661FFF70BF8002818BFFDF79C
:1033A000BFF940F2B830C2F2000010A9FEF75AFD92
:1033B000002818BFFDF7B4F9602009900020CDE97E
:1033C0000A00CDE90C00CDE90E0040F2B830C2F29F
:1033D000000009A90022FEF7E9FE002818BFFDF74A
:1033E0009FF940F2B830C2F2000009A90422FEF7AA
:1033F000DDFE002818BFFDF793F940F2B830C2F2A5
:10340000000009A90822FEF7D1FE002818BFFDF729
:1034100087F940F2B830C2F2000009A90C22FEF789
:10342000C5FE002818BFFDF77BF940F2B8344FF411
:103430000050C2F200040026069001A9204605961D
:10344000CDE90366CDE901660896FEF7E5FC0028A4
:1034500018BFFDF765F92068CDE91666A8421596F4
:10346000149601D018B070BD41F21800C4F20200E9
:10347000016841F004010160006814A900F0040033
:10348000139013984FF470601490022015901790C9
:10349000A5F51050FDF710FA18B070BDFEE700005A
:1034A00010B540F2B834C2F2000420460021FFF704
:1034B00017F820460421FFF713F820460821FFF7EC
:1034C0000FF820460C21BDE81040FFF709B80000B6
:1034D000F0B581B01F4616460D4606F047FF04467C
:1034E000284606F043FF0546304606F03FFF0646F5
:1034F000384606F03BFFB4F57A7F4FF47A71D8BFB7
:103500000C46B4F5FA6F4FF4FA62A8BF1446B5F54D
:103510007A7FD8BF0D46B5F5FA6FA8BF1546B6F548
:103520007A7FD8BF0E46B6F5FA6FA8BF1646B0F53B
:103530007A7FC8BF014640F2B830C2F2000000688E
:10354000B1F5FA6FA8BF114644638563C663016491
:1035500001B0F0BDF0B585B040F60004C4F201043E
:10356000204610210122FDF7BDFA20460821002245
:103570000026FDF7B7FA204610210022FDF7B2FA27
:1035800040F260355020C2F200058DF808000A278D
:1035900002A90DF11302284601238DF8136000974C
:1035A000FEF7CCFA73208DF8080002A90DF1130282
:1035B000284601238DF813600097FEF7BFFA2046D6
:1035C00010210122FDF78EFA00F03EF8204610216E
:1035D0000022FDF787FAE2208DF8080002A90DF11C
:1035E0001302284601238DF813600097FEF7A6FA10
:1035F000204610210122FDF775FA204610210022F5
:10360000FDF770FAE1208DF8080002A90DF1130210
:10361000284601238DF813600097FEF78FFA2046A5
:1036200010210122FDF75EFA46F25560C8F67700D8
:10363000039042F2BB20C4F23340029002A800F093
:10364000E3FC05B0F0BD00002DE9F04383B040F687
:103650000004C4F201042046082100224FF00809AA
:103660000027FDF73FFA0A200A2600F065FD2046F4
:1036700010210022FDF736FA40F260352120C2F217
:1036800000058DF80B000DF10B010DF10A02284623
:1036900001238DF80A7000964FF00108FEF74EFAEC
:1036A0000DF10B010DF10A02284601238DF80B8064
:1036B0008DF80A700096FEF741FA2046102101228B
:1036C000FDF710FA204610210022FDF70BFA222008
:1036D0008DF80B000DF10B010DF10A0228460123B4
:1036E0008DF80A700096FEF729FA0DF10B010DF125
:1036F0000A02284601238DF80B808DF80A70009687
:10370000FEF71CFA204610210122FDF7EBF92046B6
:1037100010210022FDF7E6F923208DF80B000DF1B2
:103720000B010DF10A02284601238DF80A7000965C
:10373000FEF704FA03208DF80B000DF10B010DF1DB
:103740000A02284601238DF80A700096FEF7F6F962
:10375000204610210122FDF7C5F920461021002244
:10376000FDF7C0F925208DF80B000DF10B010DF1CF
:103770000A02284601238DF80A700096FEF7DEF94A
:1037800028208DF80B000DF10B010DF10A022846DF
:1037900001238DF80A700096FEF7D0F9204610211B
:1037A0000122FDF79FF9204610210022FDF79AF92A
:1037B00031208DF80B000DF10B010DF10A022846A6
:1037C00001238DF80A700096FEF7B8F90DF10B0190
:1037D0000DF10A02284601238DF80B908DF80A702E
:1037E0000096FEF7ABF9204610210122FDF77AF989
:1037F000204610210022FDF775F93C208DF80B00C2
:103800000DF10B010DF10A02284601238DF80A7013
:103810000096FEF793F90DF10B010DF10A0228460F
:1038200001238DF80B808DF80A700096FEF786F95B
:10383000204610210122FDF755F9204610210022D3
:10384000FDF750F93D208DF80B000DF10B010DF146
:103850000A02284601238DF80A700096FEF76EF9D9
:1038600006208DF80B000DF10B010DF10A02284620
:1038700001238DF80A700096FEF760F920461021AA
:103880000122FDF72FF9204610210022FDF72AF929
:1038900026208DF80B000DF10B010DF10A022846D0
:1038A00001238DF80A700096FEF748F907208DF87D
:1038B0000B000DF10B010DF10A02284601238DF8D2
:1038C0000A700096FEF73AF9204610210122FDF712
:1038D00009F9204610210022FDF704F920208DF877
:1038E0000B000DF10B010DF10A02284601238DF8A2
:1038F0000A700096FEF722F90F208DF80B000DF1EB
:103900000B010DF10A02284601238DF80A7000967A
:10391000FEF714F9204610210122FDF7E3F82046B6
:1039200010210022FDF7DEF827208DF80B000DF1A5
:103930000B010DF10A02284601238DF80A7000964A
:10394000FEF7FCF8FF208DF80B000DF10B010DF1D7
:103950000A02284601238DF80A700096FEF7EEF859
:10396000204610210122FDF7BDF820460821012242
:10397000FDF7B8F803B0BDE8F08300002DE9F04F83
:1039800083B0044640F6000015460E46C4F201001E
:10399000102100224FF00009FDF7A4F840F260303A
:1039A0004FF00A0AC2F200000DF1090102AA012338
:1039B0008DF809408DF80890CDF800A0FEF7BEF80C
:1039C000E5B140F2603B013E4FF0FF08C2F2000B50
:1039D0000DF10B070DF10A04584639462246012322
:1039E0008DF80B808DF80A90CDF800A0FEF7A6F8B0
:1039F0009DF80A00013D06F8010FEDD140F60000E8
:103A0000C4F2010010210122FDF76CF803B0BDE8FB
:103A1000F08F0000F0B583B040F60004C4F201045A
:103A200005462046102100220026FDF75BF88DF8A0
:103A3000095040F26035C2F200050A270DF1090174
:103A400002AA284601238DF808600097FEF776F851
:103A5000FF208DF80B000DF10B010DF10A02284635
:103A600001238DF80A600097FEF768F89DF80A5068
:103A7000204610210122FDF735F8284603B0F0BD9D
:103A80002DE9F04784B0804640F600040820C4F2D7
:103A90000104FDF749FC2046082100224FF00009EF
:103AA000FDF720F8102000F047FB0A204FF00A0A2B
:103AB00000F042FB204610210022FDF713F840F2EF
:103AC00060362120C2F200068DF8080002A90DF12F
:103AD0000F02304601238DF80F90CDF800A001258C
:103AE000FEF72CF802A90DF10F02304601238DF8E4
:103AF00008508DF80F90CDF800A0FEF71FF8204673
:103B000010210122FCF7EEFF204610210022FCF7D5
:103B1000E9FF22208DF8080002A90DF10F023046BE
:103B200001238DF80F90CDF800A0FEF707F802A949
:103B30000DF10F02304601238DF808508DF80F90DB
:103B4000CDF800A0FDF7FAFF204610210122FCF776
:103B5000C9FF204610210022FCF7C4FF23208DF866
:103B6000080002A90DF10F02304601238DF80F90D5
:103B7000CDF800A0FDF7E2FF03208DF8080002A9B0
:103B80000DF10F02304601238DF80F90CDF800A003
:103B9000FDF7D4FF204610210122FCF7A3FF2046A9
:103BA00010210022FCF79EFF24208DF8080002A9B6
:103BB0000DF10F02304601238DF80F90CDF800A0D3
:103BC000FDF7BCFF02A90DF10F02304601238DF86D
:103BD00008A08DF80F90CDF800A0FDF7AFFF2046AC
:103BE00010210122FCF77EFF204610210022FCF765
:103BF00079FF25208DF8080002A90DF10F0230464B
:103C000001238DF80F90CDF800A0FDF797FF282035
:103C10008DF8080002A90DF10F02304601238DF83E
:103C20000F90CDF800A0FDF789FF2046102101225A
:103C3000FCF758FF204610210022FCF753FF2620F6
:103C40008DF8080002A90DF10F02304601238DF80E
:103C50000F90CDF800A0FDF771FF07208DF8080048
:103C600002A90DF10F02304601238DF80F90CDF817
:103C700000A0FDF763FF204610210122FCF732FF70
:103C8000204610210022FCF72DFF20208DF808008F
:103C900002A90DF10F02304601238DF80F90CDF8E7
:103CA00000A0FDF74BFF0E208DF8080002A90DF1D2
:103CB0000F02304601238DF80F90CDF800A0FDF7DC
:103CC0003DFF204610210122FCF70CFF2046102169
:103CD0000022FCF707FF27208DF8080002A90DF14C
:103CE0000F02304601238DF80F90CDF800A0FDF7AC
:103CF00025FFFF208DF8080002A90DF10F023046C4
:103D000001238DF80F90CDF800A0FDF717FF204696
:103D100010210122FCF7E6FE204610210022FCF7CC
:103D2000E1FEA0208DF8080002A90DF10F02304637
:103D300001238DF80F90CDF800A0FDF7FFFE98F855
:103D4000000002AF0DF10F058DF80800304639462E
:103D50002A4601238DF80F90CDF800A0FDF7EEFE66
:103D600098F8010039468DF8080030462A460123AC
:103D70008DF80F90CDF800A0FDF7E0FE98F8020056
:103D800039468DF8080030462A4601238DF80F90F9
:103D9000CDF800A0FDF7D2FE98F8030039468DF863
:103DA000080030462A4601238DF80F90CDF800A078
:103DB000FDF7C4FE98F8040039468DF80800304637
:103DC0002A4601238DF80F90CDF800A0FDF7B6FE2E
:103DD00098F8050039468DF8080030462A46012338
:103DE0008DF80F90CDF800A0FDF7A8FE98F806001A
:103DF00039468DF8080030462A4601238DF80F9089
:103E0000CDF800A0FDF79AFE98F8070039468DF826
:103E1000080030462A4601238DF80F90CDF800A007
:103E2000FDF78CFE204610210122FCF75BFE2046A8
:103E300008210122FCF756FECDF808900298B0F553
:103E4000967F1BDA0298013002900298B0F5967FB7
:103E500014DA0298013002900298B0F5967F0DDADC
:103E60000298013002900298B0F5967F06DA029827
:103E7000013002900298B0F5967FE3DB20460821DE
:103E80000022FCF72FFEFCF733FE054620460421F6
:103E9000FCF71AFE012804D1FCF72AFE401B652816
:103EA000F4D32046102100224FF00009FCF71AFE3F
:103EB00040F260360720C2F200068DF808004FF08D
:103EC0000A0802A90DF10F02304601238DF80F9068
:103ED000CDF80080FDF732FEFF2502A90DF10F029B
:103EE000304601238DF808508DF80F90CDF80080F2
:103EF000FDF724FE9DF80F70204610210122FCF7EB
:103F0000F1FD204610210022FCF7ECFD27208DF862
:103F1000080002A90DF10F02304601238DF80F9021
:103F2000CDF80080FDF70AFE02A90DF10F02304620
:103F300001238DF808708DF80F90CDF80080FDF703
:103F4000FDFD204610210122FCF7CCFDF8061BD513
:103F50002046102100221025FCF7C4FDE1208DF839
:103F6000080040F26030C2F2000002A90DF10F0219
:103F700001238DF80F90CDF80080FDF7DFFD20467E
:103F800010210122FCF7AEFDFFF75EFB2046102159
:103F90000022FCF7A7FD40F26036E220C2F20006E4
:103FA0008DF8080002A90DF10F02304601238DF8AB
:103FB0000F90CDF80080FDF7C1FD204610210122B1
:103FC000FCF790FD204610210022FCF78BFDE1203C
:103FD0008DF8080002A90DF10F02304601238DF87B
:103FE0000F90CDF80080FDF7A9FD20461021012299
:103FF000FCF778FD0820FDF7ADF9B80648BF20258D
:10400000284604B0BDE8F0872DE9F04782B040F6BD
:104010000008C4F2010805464046102100224FF076
:104020000009FCF75FFD40F26036A820C2F20006EE
:104030008DF805004FF00A0A0DF1050101AA30467E
:1040400001238DF80490CDF800A0FDF777FD2878C6
:104050000DF107070DF106048DF8070030463946CB
:10406000224601238DF80690CDF800A0FDF766FDED
:10407000687839468DF807003046224601238DF8CE
:104080000690CDF800A0FDF759FDA87839468DF8C7
:1040900007003046224601238DF80690CDF800A097
:1040A000FDF74CFDE87839468DF80700304622468A
:1040B00001238DF80690CDF800A0FDF73FFD28798B
:1040C00039468DF807003046224601238DF80690C8
:1040D000CDF800A0FDF732FD687939468DF807006C
:1040E0003046224601238DF80690CDF800A0FDF75A
:1040F00025FDA87939468DF8070030462246012370
:104100008DF80690CDF800A0FDF718FDE879394646
:104110008DF807003046224601238DF80690CDF831
:1041200000A0FDF70BFD404610210122FCF7DAFC50
:1041300002B0BDE8F08700002DE9F04383B040F6FF
:104140000008C4F201080546404610210022002460
:10415000FCF7C8FC45F0200040F26035C2F20005D3
:104160008DF809004FF00A090DF1090102AA28464D
:1041700001238DF80840CDF80090FDF7DFFCAA2060
:104180000DF10B060DF10A078DF80B00284631469C
:104190003A4601238DF80A40CDF80090FDF7CEFC99
:1041A000BB208DF80B00284631463A4601238DF896
:1041B0000A40CDF80090FDF7C1FCCC208DF80B0033
:1041C000284631463A4601238DF80A40CDF8009042
:1041D000FDF7B4FCDD208DF80B00284631463A4649
:1041E00001238DF80A40CDF80090FDF7A7FCEE20E2
:1041F0008DF80B00284631463A4601238DF80A40D7
:10420000CDF80090FDF79AFC404610210122FCF702
:1042100069FC03B0BDE8F0832DE9F04182B040F6BF
:104220000008C4F201080D4606464046102100224F
:104230000027FCF757FC46F0200040F26036C2F23F
:1042400000068DF805000A240DF1050101AA30468B
:1042500001238DF804700094FDF770FC0DF1070147
:104260000DF10602304601238DF807508DF80670D7
:104270000094FDF763FC404610210122FCF732FC5C
:1042800002B0BDE8F0810000FEE7000084B040F21B
:104290002C10C2F2000040F27021C2F20001343052
:1042A000029001F13400019040F21A10C2F20000B5
:1042B000B0F9000006F076F840F21C11C2F20001DD
:1042C000B1F900100446084606F06CF840F21E11E1
:1042D000C2F20001B1F900100546084606F062F886
:1042E00040F20801C2F20001B1F9001082460391C8
:1042F00040F2DC01C2F200010A6840F2D801C2F2C9
:1043000000010E6840F2F001C2F200010F6840F2B5
:10431000F401C2F20001D1F8009040F2F801C2F2BB
:10432000000140F22C10D1F800B0C2F2000021468A
:1043300000F044F9044640F27020C2F20000294621
:10434000324600F03BF90546029821463A4600F015
:1043500035F98046019829464A4600F02FF904466F
:1043600040F2DC40C2F2000051465A4600F026F905
:104370000646039806F016F84146074606F072F91D
:104380002146814605F064FE314605F061FE05F0E8
:10439000EDFF05464046394605F05AFE2146834664
:1043A00005F056FE314606F05DF905F0DFFF804668
:1043B0004846214606F056F9314606F053F905F015
:1043C000D5FF81465846214606F04CF9314605F0A6
:1043D0003FFE05F0CBFFB5F57A7F04464FF47A70C7
:1043E000D8BF0546B5F5FA6F4FF4FA61A8BF0D4680
:1043F000B8F57A7FD8BF8046B8F5FA6FA8BF88466F
:10440000B9F57A7FD8BF8146B9F5FA6FA8BF89465A
:10441000B4F57A7FD8BF04462846B4F5FA6FA8BF32
:104420000C4605F0D7FF0546404605F0D3FF06468B
:10443000484605F0CFFF0746204605F0CBFF034670
:10444000284631463A46FFF743F8012002F066FD60
:104450002AE7000040F24844C2F200040125002689
:1044600003E000BF012002F059FD20780028F9D1B7
:104470002570FEF7E7FC2670F4E7000082B040F2FA
:10448000181440F2DC0540F2D80640F2E009C2F20E
:1044900000040027C2F20005C2F20006C2F20009C1
:1044A000EA4602E0012002F039FDA06800F10108AF
:1044B000C4F80880207801284BD12770207BAA28D7
:1044C00047D1A17B607BCB4694F90F90090241EA6A
:1044D00000405FFA89F1277C084400F041F9384632
:1044E00005F078FF4FF6DB11C4F27A0105F0EEFF1C
:1044F00005F03CFF40F2080100F57A70C2F20001BD
:10450000088009F0010080F001015FEA897258BF5C
:104510004142C9F380004FEA097200EBE27009F0F2
:104520001102112A4FF00F0208BF1E2250435143BF
:104530006080B9F1FF3F4FF03200A180C8BF00207A
:104540005FEA4961D9464FF0000748BF6FF031007C
:10455000E080B8F1320FA5D32868BB21A7608DF8A1
:10456000001005F003FF31688DF80100084605F0E2
:10457000FDFED9F800108DF80200084605F0F6FEA1
:1045800040F20801C2F2000109888DF80300080A10
:104590008DF8050050468DF80410ADF80670FFF751
:1045A0006FFA20287FF47EAF41F20000C4F20100D0
:1045B0004FF40051FCF78EFA74E700002DE9F04F3C
:1045C00081B0D0F81C900446C4E90512C0F82090D0
:1045D0000846114606F046F80646E061A068D4E9B0
:1045E000001B0090D4F80C80304605F06FFF824627
:1045F000A76A60625846314605F068FF394605F003
:1046000027FD88F000452946074605F091FD8346C1
:104610003846414605F093FD002818BF474630460E
:104620004946BBF1000F08BF2F46A76206F01AF8F3
:10463000009905F04BFF0546E0625046394605F00B
:1046400007FD0146284605F003FD2569064685F06D
:104650000047394605F06CFD80463046294605F096
:104660006EFD002818BF2E46B8F1000F08BF3E4669
:104670003046266301B0BDE8F08F000080B5DDE96B
:1046800002EC80E80E40C0F810C080BD00000000C1
:10469000EFF30980BFF36F8F0D4B1A6820E9F00F1D
:1046A00010602DE908404FF0500080F3118803F0AE
:1046B000DDFC4FF0000080F31188BDE80840196868
:1046C0000868B0E8F00F80F30988BFF36F8F704778
:1046D0009401002040F24C40C2F20000012200216F
:1046E000C0E900210222C0E903210422C0E9062119
:1046F0000822C0E909211022C0E90C212022C0E9CA
:104700000F214022C0E912218022C0E915214FF477
:104710008072C0E918214FF40072C0E91B214FF4E8
:104720008062C0E91E214FF400620172017580F8B9
:10473000201080F82C1080F8381080F8441080F891
:10474000501080F85C1080F8681080F8741080F8C1
:104750008010C0E9212180F88C10FEF7FBBE00001C
:1047600040F24C41C2F200010A68024200F084802B
:104770004A68B2FA82F35B0901320B724A60CA6876
:10478000024200F080800A69B2FA82F35B090132CA
:104790000B750A618A6902427CD0CA69B2FA82F357
:1047A0005B09013281F82030CA614A6A024279D03D
:1047B0008A6AB2FA82F35B09013281F82C308A628C
:1047C0000A6B024275D04A6BB2FA82F35B0901327E
:1047D00081F838304A63CA6B024271D00A6CB2FA6F
:1047E00082F35B09013281F844300A648A6C024228
:1047F0006DD0CA6CB2FA82F35B09013281F8503095
:10480000CA644A6D024269D08A6DB2FA82F35B09CA
:10481000013281F85C308A650A6E024265D04A6EC8
:10482000B2FA82F35B09013281F868304A66CA6ED7
:10483000024261D00A6FB2FA82F35B09013281F859
:1048400074300A678A6F02425DD0CA6FB2FA82F38F
:104850005B09013281F88030CA67D1F884200242B6
:1048600059D0D1F88800B0FA80F25209013081F8AD
:104870008C20C1F88800704700224A600A72CA681A
:1048800002427FF480AF00220A610A758A690242FF
:104890007FF483AF0022CA6181F820204A6A024275
:1048A0007FF486AF00228A6281F82C200A6B0242D4
:1048B00089D100224A6381F83820CA6B02428DD127
:1048C00000220A6481F844208A6C024291D10022BD
:1048D000CA6481F850204A6D024295D100228A654F
:1048E00081F85C200A6E024299D100224A6681F862
:1048F0006820CA6E02429DD100220A6781F87420A6
:104900008A6F0242A1D10022CA6781F88020D1F8C3
:1049100084200242A5D10020C1F8880081F88C00D3
:10492000704700002DE9F04381B0089C9846154679
:104930000E468146FCF7DCF8201A00EB0804FCF771
:10494000D7F840F20C01C2F200010968C1F3CB3183
:1049500061430091D9F800108A683240921BB2FA84
:1049600082F2520995423DD0074618F1010031D03C
:10497000FCF7BEF8C01BA04238D20098009900286E
:10498000A1F101010091D9F80010896808BF04461F
:1049900001EA0600801BB0FA80F040098542E7D1A9
:1049A00020E000BF88683040801BB0FA80F04009EA
:1049B000854217D088683040801BB0FA80F04009EB
:1049C00085420FD088683040801BB0FA80F04009E3
:1049D000854207D088683040801BB0FA80F04009DB
:1049E0008542DFD1002001B0BDE8F083D9E90001A4
:1049F0004268B1F5827F22F0E00242600BD1D9F823
:104A00000810B1F5004F02D0B1F5806F03D10168F5
:104A100021F040010160D9F82810B1F5005F07D1FD
:104A2000016821F400510160016841F40051016006
:104A3000012089F85100002089F85000032001B0BE
:104A4000BDE8F0830000000000000000000000004E
:104A5000074B19680868B0E8F00F80F30988BFF3C6
:104A60006F8F4FF0000080F311884EF00D0E7047ED
:104A700094010020012002F051FAFBE780B54EF2CC
:104A80001000CEF20000006803F0AEFF012808BF5E
:104A900080BDBDE8804003F0E7BB00007047000028
:104AA00040F20040C2F20000FDF7D6BAFEE7000077
:104AB0004EF60C50BFF34F8FCEF200000168042277
:104AC00001F4E061C0F2FA5211430160BFF34F8F6D
:104AD00000BF00BF00BF00BFFAE70000F0B587B01D
:104AE00004464CF60220C0F6E3100DF10605CDF8A1
:104AF0000600682004212A4602F0D0F914F0400193
:104B00004FF0A3006FF03F018DF8060008BF6FF073
:104B10005C016FF037026FF03D0308BF6FF05C027D
:104B200008BF6FF05C038DF8071014F4C0716FF0CC
:104B30003B018DF808208DF8093008BF6FF05C014B
:104B40006FF033026FF0390308BF6FF05C0208BFEB
:104B50006FF05C038DF80A104AF2A3318DF80B2038
:104B6000ADF80D108DF80F0040F6A7200A212A4657
:104B70008DF80C3002F092F92020A60708BF6FF0E4
:104B800027008DF8060040F6B62001212A4602F0E3
:104B900085F9A0060CD4C720069048F6B000CCF2E8
:104BA000C35005904AF6B820CAF6AA200BE000BF11
:104BB0005D20069049F6B400C3F20D5005904AF608
:104BC000B820C8F6B350049004AA4FF497600921A6
:104BD00002F064F914F4C07F25D06FF04D016FF03E
:104BE000740214F4807008BF6FF04F0108BF6FF0BB
:104BF0007F026FF049036FF0640508BF6FF04B034D
:104C0000002808BF6FF06F058DF806108DF807209B
:104C10000DF1060240F6A22004218DF808308DF82F
:104C2000095002F03BF9E00708D1D8208DF80600C2
:104C30000DF106024FF40B60012150E0F8208DF8D1
:104C400006000DF106024FF40B60012102F026F977
:104C50000720FA2100F0F8FA3F208DF8100004AA8E
:104C60004FF4A470012102F019F900208DF8100012
:104C700004AA40F24F10012102F010F94FF4A050A5
:104C8000ADF8100004AA4FF4EF70022102F006F90B
:104C90004FF4C840ADF8100004AA4FF4ED700221A3
:104CA00002F0FCF848F60060C9F2F900049004AA8A
:104CB0004FF4AE70042102F0F1F84FF40060ADF84B
:104CC000100004AA4FF4AD70022102F0E7F84FF48F
:104CD0000070ADF8100004AA4FF4AC70022102F08D
:104CE000DDF86FF02600002E58BF6FF027008DF81A
:104CF00006000DF1060240F23D70012102F0CEF8EF
:104D0000600752BF4FF08B304CF2C020CCF2C46031
:104D1000049004AA40F69820042102F0BFF801F0A4
:104D200081FCE00652BF4FF0A33042F62000C3F6EC
:104D30003000049004AA40F69E20042102F0AEF850
:104D400001F070FC40F2B00744F00800C2F2000726
:104D50006506B88001F066FC062000EAE57114F4EF
:104D6000C07F18BF063114F0140F18BF1031002E89
:104D700018BF04310020397007B0F0BD4AF60C218D
:104D8000C0F6000140F6F6304FF48062C82301F00F
:104D900039BA00002DE9F04F89B040F2B00914464D
:104DA000DDE912B2C2F200090F468046002199F8EF
:104DB00000000DF1040AABF8001051461E4601F048
:104DC000D1FB28B14FF0FF3009B0BDE8F08F00BF34
:104DD000B9F804C01CF0140F50D09DF80520B64659
:104DE0009DF80410BDF8066012049DF8095042EACF
:104DF000016132BA9DF8083041EA1242BDF80A60FA
:104E000022602A0442EA036233BA42EA134363602F
:104E10009DF80D309DF80C60BDF80E501B0443EA60
:104E200006632EBA43EA16461214A6609DF8116076
:104E3000091452439DF8105001FB012136041A1445
:104E400046EA056602FB02113214BDF8120002FBAD
:104E5000021100BA01F1714146EA1040B1F1007F40
:104E6000E06069D8BBF80000102140F480707646FD
:104E7000ABF800005FEA4C6004D420E000215FEA58
:104E80004C601CD50AEB01001AF801204378344627
:104E90008678C57890F804E0407943EA02223A80A7
:104EA00045EA062240EA0E207A80B880BBF800006E
:104EB000264641F0060140F00800ABF800001CF463
:104EC000C07F18D03AF801000AEB010200BA5388FB
:104ED000000CA8F8000018BA9288000CA8F802008C
:104EE00010BA000CA8F80400BBF80000063140F02E
:104EF0007000ABF800005FEA8C7016D00AEB010579
:104F00006878EC78C10709D0D9F8082032B104F0EC
:104F10000700411CC4F3C20090476878000704D51D
:104F2000D9F80C1009B1A0098847FBF7E1FD306002
:104F3000002009B0BDE8F08F01F074FB0020ABF851
:104F400000004FF0FF3009B0BDE8F08F10B584B01D
:104F500004460DF1020001F06BF840F20431BDF897
:104F600002C000BFC2F20001098801F003024B0732
:104F700054F822204FF00C0348BF524203EA510379
:104F80008806E358C1F3811048BF5B4254F8200003
:104F9000C90548BF40424FEACC3181FB02C481FBC6
:104FA00003E281FB00014FEA9C73800F43EA840C0B
:104FB0004FEA9E7340EA810EA00D8DF80400A00B0D
:104FC0008DF80500A0098DF80600900D8DF80800F9
:104FD000900B8DF8090090098DF80A00880D8DF866
:104FE0000C00880B8DF80D00880943EA82038DF8C8
:104FF0000E0001AA4FF425700C218DF807C08DF822
:105000000B308DF80FE001F049FF04B010BD000037
:1050100010B586B04AF6BB71CDF6DF7105914FF23F
:10502000AA11CDF6DF7104914FF2FE21CCF2AB4113
:10503000C828039118D80446C0B2C821B1FBF0F0CB
:10504000002101388DF804108DF8050001AA40F206
:105050001620022101F022FF30B903AA40F6C12038
:105060000C2101F01BFF18B14FF0FF3006B010BD4E
:1050700040F20830C2F200000480002006B010BDEB
:10508000F0B581B040F20431C2F200010E880C2369
:1050900006F003014EF2093450F8211003EA5603DA
:1050A000C0F2CA24720748BF4942C758C6F38113E9
:1050B00081FB041250F82350F0054FEA91704FEA3B
:1050C000925148BF6D428DF80010910B40EA82006A
:1050D0008DF8011091098DF802108DF803006A46D1
:1050E0004FF47470042101F0D9FEE0B9B00648BF56
:1050F0007F42A7FB0401FA1702FB0411800F8A0DFF
:1051000040EA81008DF800208A0B89098DF8012082
:105110008DF802108DF803006A464FF47570042173
:1051200001F0BCFE20B14FF0FF3001B0F0BD00BF78
:1051300085FB0401800F8A0D40EA81008DF8002074
:105140008A0B89098DF801208DF802108DF8030073
:105150006A464FF47670042101F0A0FE01B0F0BD64
:10516000B0B582B005464AF63311C0F60001C5F36A
:10517000C10300F00300CC5C0A5C8DF805404AF6E0
:1051800030148DF80420C5F38112C0F60004895C48
:10519000205C8DF806108DF80000E05CA15C8DF8B5
:1051A00001008DF8021001AA40F22640032101F00F
:1051B00075FE50BB6A4640F22A40032101F06EFEA4
:1051C00018BB45F23660C0F27600019044F22660CA
:1051D000C0F26600690700901CD4A80622D4E80536
:1051E00005D577208DF8060067208DF8020001AA0A
:1051F0004FF48860032101F051FE30B96A4640F255
:105200003140032101F04AFEB0B14FF0FF3002B04F
:10521000B0BD00BF37208DF8040027208DF80000B6
:10522000A806DCD557208DF8050047208DF8010031
:10523000E805D6D4DBE700BF40F20430C2F200003C
:105240000580002002B0B0BDF0B583B00446B1F5D2
:10525000C86F4FF0FF3055D814F0070252D00846FF
:1052600005F0B8F80021C4F2483104F089FF054682
:105270000DF1070000F0C0FE9DF8070002384FEA6C
:105280007002072A4FF0FF303CD80026C4F2406677
:105290004FF08D41DFE802F01504360A363636103D
:1052A0000026C4F2C0564FF08C410AE00026C4F23A
:1052B00040564FF08B4104E00026C4F2C0464FF048
:1052C0008A41284605F002F907462846314605F08E
:1052D000FDF805F04BF80646384605F047F8010A98
:1052E0008DF808108DF80900300A02A98D1C8DF880
:1052F0000A00E0078DF80B6006D1A00714D4600700
:1053000022D4002003B0F0BD02AA4FF4EA700221BB
:1053100001F0C4FD38BB4FF4927002212A4601F01F
:10532000BDFD00BBE9E700BF02AA4FF4EC7002210B
:1053300001F0B4FDB8B94FF4947002212A4601F08F
:10534000ADFD80B9DBE700BF02AA4FF4EE70022189
:1053500001F0A4FD38B94FF4967002212A4601F0FD
:105360009DFD0028CDD04FF0FF3003B0F0BD000010
:105370002DE9F04F85B040F21007C2F200070C464D
:1053800005460120D7E90013ADF808001878497DDB
:10539000164602AB022200F0FBFC002840F0C2805F
:1053A000C820FBF7C3F90020D7E900128DF80800E8
:1053B0001078497C02AB012200F0EAFC002840F0A2
:1053C000B180D7E9001002AB00784979012200F0E2
:1053D000DFFC002840F0A680D7E9001002AB00787F
:1053E000497D012200F0D4FC002840F09B80D7E9E1
:1053F000001002AB0078897E012200F0C9FC002871
:1054000040F09080D7E9001002AB007809790122C2
:1054100000F0BEFC002840F085800C20D7E9001287
:105420008DF808001078097902AB012200F0B0FC79
:10543000002877D10F20FBF779F9B86AD7E9001275
:10544000407A89788DF80800107802AB012200F0CC
:105450009FFC002866D1B86AD7E90012007A497823
:105460008DF80800107802AB012200F091FC0028B2
:1054700058D1B86AD7E90012807A002E18BF40F0E0
:10548000E0008DF808001078897902AB012200F065
:105490007FFC002846D12EB1B86AC07A60F01F00A8
:1054A00001E000BF1820D7E900128DF8080010783D
:1054B000C97902AB012200F06BFC98BB16B1C82081
:1054C000FBF734F94020D7E900128DF80800107876
:1054D000097902AB012200F05BFC18BB7820D7E908
:1054E00000128DF808001078497902AB012200F013
:1054F0004FFCB8B93220FBF719F90020D7E90012A8
:105500008DF808001078497902AB012200F040FCC8
:1055100040B9D7E9001002AB0078097B022200F005
:10552000BFF828B14FF0FF3005B0BDE8F08F00BFE5
:10553000BDF808004AF6AB2100BA000C4843C0F39E
:10554000C7420021002AC5E90011A960C4E9001181
:105550000192A16044D0C00C00260DF108095FFA49
:1055600080FBD7E900100C220078497B4B4600F005
:1055700097F80028D6D1BDF80A10BDF80800BDF88C
:105580000C2091FA81FEA16890FA80FC12BAD4E94D
:10559000003001EB224103EB2C4300EB2E40A160D5
:1055A000BDF81010C4E90030BDF81220BDF80E009F
:1055B00091FA81FCD5E9003192FA82FEAA6801369F
:1055C00000BA01EB2C48F1B203EB204002EB2E4A6B
:1055D0005945C5E90008C5F808A0C2D302E000BFDC
:1055E00095E80105C117090441EA1041000483222E
:1055F0000023FAF7FFFD019F00233A46FAF7FAFD70
:1056000028604FEAE870000440EA18414FEA084079
:1056100083220023FAF7EEFD3A460023FAF7EAFD6B
:1056200068604FEAEA70000440EA1A414FEA0A4013
:1056300083220023FAF7DEFD3A460023FAF7DAFD6B
:10564000A860D4E90006A568C117490141EAD06104
:1056500040013A460023FAF7CDFD2060F0174001E3
:1056600040EAD66170013A460023FAF7C3FD606054
:10567000E817400140EAD56168013A460023FAF78D
:10568000B9FD01464FF480320029C4BF0022CFF695
:10569000FF7211440020A16005B0BDE8F08F00004A
:1056A00010B584B094460A4605210291410040F2AB
:1056B0000C300093C2F200000123CDF804C0FBF7C8
:1056C000E9FA40F24A41C2F2000148B10A880446B0
:1056D00001320A8000F008F8204604B010BD00BF77
:1056E00000220A8004B010BD40F24A40C2F200001D
:1056F0000188032938BF704770B58EB0002505803A
:10570000402040F600440A901120C4F201040B909E
:105710000320CDE90C500AA92046FBF7CDF820461E
:1057200040210022FBF7DEF902950298042817DCDD
:105730000298013002900298042811DC029801308E
:105740000290029804280BDC029801300290029823
:10575000042805DC02980130029002980528E7DB56
:10576000204640210122FBF7BDF90295029804284A
:1057700018DC00BF0298013002900298042811DC66
:10578000029801300290029804280BDC0298013044
:1057900002900298042805DC0298013002900298D9
:1057A0000528E7DB2046402100220025FBF79AF977
:1057B00002950298042817DC0298013002900298A2
:1057C000042811DC029801300290029804280BDCB6
:1057D0000298013002900298042805DC02980130FA
:1057E000029002980528E7DB204640210122FBF7C2
:1057F00079F902950298042818DC00BF029801305C
:1058000002900298042811DC02980130029002985C
:1058100004280BDC0298013002900298042805DC71
:1058200002980130029002980528E7DB20464021CB
:1058300000220025FBF756F902950298042817DC90
:105840000298013002900298042811DC029801307D
:105850000290029804280BDC029801300290029812
:10586000042805DC02980130029002980528E7DB45
:10587000204640210122FBF735F9029502980428C1
:1058800018DC00BF0298013002900298042811DC55
:10589000029801300290029804280BDC0298013033
:1058A00002900298042805DC0298013002900298C8
:1058B0000528E7DB2046402100220025FBF712F9EE
:1058C00002950298042817DC029801300290029891
:1058D000042811DC029801300290029804280BDCA5
:1058E0000298013002900298042805DC02980130E9
:1058F000029002980528E7DB204640210122FBF7B1
:10590000F1F802950298042818DC00BF02980130D3
:1059100002900298042811DC02980130029002984B
:1059200004280BDC0298013002900298042805DC60
:1059300002980130029002980528E7DB20464021BA
:1059400000220025FBF7CEF802950298042817DC08
:105950000298013002900298042811DC029801306C
:105960000290029804280BDC029801300290029801
:10597000042805DC02980130029002980528E7DB34
:10598000204640210122FBF7ADF802950298042839
:1059900018DC00BF0298013002900298042811DC44
:1059A000029801300290029804280BDC0298013022
:1059B00002900298042805DC0298013002900298B7
:1059C0000528E7DB2046402100220025FBF78AF866
:1059D00002950298042817DC029801300290029880
:1059E000042811DC029801300290029804280BDC94
:1059F0000298013002900298042805DC02980130D8
:105A0000029002980528E7DB204640210122FBF79F
:105A100069F802950298042818DC00BF029801304A
:105A200002900298042811DC02980130029002983A
:105A300004280BDC0298013002900298042805DC4F
:105A400002980130029002980528E7DB20464021A9
:105A500000220025FBF746F802950298042817DC7F
:105A60000298013002900298042811DC029801305B
:105A70000290029804280BDC0298013002900298F0
:105A8000042805DC02980130029002980528E7DB23
:105A9000204640210122FBF725F8029502980428B0
:105AA00018DC00BF0298013002900298042811DC33
:105AB000029801300290029804280BDC0298013011
:105AC00002900298042805DC0298013002900298A6
:105AD0000528E7DB2046402100220025FBF702F8DD
