:020000040800F2
:10000000880A002089010008A92E0008BF1F0008E7
:100010005D2A00088F040008233400080000000057
:100020000000000000000000000000006D3100082A
:10003000E5060008000000005D2F00086F31000891
:10004000A3010008A3010008A3010008A301000800
:10005000A3010008A3010008A3010008A3010008F0
:10006000E7060008A3010008A3010008A301000897
:10007000A3010008A3010008A3010008A3010008D0
:10008000A3010008A3010008A3010008A3010008C0
:10009000A3010008A3010008A3010008A3010008B0
:1000A000A3010008A3010008A3010008A3010008A0
:1000B000D5310008A3010008A3010008A30100082E
:1000C000A3010008A3010008A3010008A301000880
:1000D000A3010008A3010008A3010008A301000870
:1000E000A3010008A3010008A301000800F002F822
:1000F00000F03AF80AA090E8000C82448344AAF188
:100100000107DA4501D100F02FF8AFF2090EBAE885
:100110000F0013F0010F18BFFB1A43F0010318473B
:100120005879000078790000103A24BF78C878C167
:10013000FAD8520724BF30C830C144BF04680C60ED
:10014000704700000023002400250026103A28BF35
:1001500078C1FBD8520728BF30C148BF0B60704739
:100160001FB51FBD10B510BD00F05CF91146FFF7BB
:10017000F7FF04F025FD00F07AF903B4FFF7F2FF72
:1001800003BC00F07DF9000009488047094800479A
:10019000FEE7FEE7FEE7FEE7FEE7FEE7FEE7FEE737
:1001A000FEE7FEE704480549054A064B7047000094
:1001B000D1310008ED00000888040020880A0020E2
:1001C000880600208806002010B54C1084EA5304ED
:1001D00004D54042C1F1000138BF491E1B4204D57D
:1001E0005242C3F1000338BF5B1E00F091F814F0D7
:1001F000804F04D04042C1F1000138BF491E14F0C5
:10020000004F04D05242C3F1000338BF5B1E10BD43
:1002100040EA010310B59B070FD1042A0DD310C883
:1002200008C9121F9C42F8D020BA19BA884201D9D5
:10023000012010BD4FF0FF3010BD1AB1D30703D01D
:10024000521C07E0002010BD10F8013B11F8014BD3
:100250001B1B07D110F8013B11F8014B1B1B01D1EF
:10026000921EF1D1184610BD02F0FF0343EA0322AB
:1002700042EA024200F002B84FF000020429C0F046
:10028000128010F0030C00F01B80CCF1040CBCF1C8
:10029000020F18BF00F8012BA8BF20F8022BA1EB1A
:1002A0000C0100F00DB85FEAC17C24BF00F8012BFF
:1002B00000F8012B48BF00F8012B70474FF00002F7
:1002C00000B5134694469646203922BFA0E80C504C
:1002D000A0E80C50B1F12001BFF4F7AF090728BF27
:1002E000A0E80C5048BF0CC05DF804EB890028BFA3
:1002F00040F8042B08BF704748BF20F8022B11F0CC
:10030000804F18BF00F8012B704770477047704747
:1003100053EA020C00F069802DE9F04B4FF0000623
:10032000002B1FBFB3FA83F503FA05F424FA05F690
:100330005E4012BF1643B2FA82F502FA05F4C5F127
:1003400020051EBF22FA05FC44EA0C04203556EABB
:10035000044C4FEA144418BF641C4FF000084FF0DF
:100360000009904271EB030C39D3002919BFB1FA8F
:1003700081F701FA07F6B0FA80F700FA07F6C7F13D
:1003800020071EBF20FA07FC46EA0C062037B6FB02
:10039000F4FCA7EB0507103F07F01F0BCBF120067D
:1003A0000CFA0BFB2CFA06F644BFB3460026202FAE
:1003B000A4BF5E464FF0000B5BEA060C08BF4FF08F
:1003C000010B19EB0B09ABFB027C48EB0608C01BC9
:1003D00006FB02CC0BFB03CC71EB0C01C1E70B4617
:1003E000024641464846BDE8F08B13B54FF0000089
:1003F0004FF00001AFF30080BDE81C40704710B51E
:1004000000F008F8006810BD10B5044600F002F8CE
:10041000046010BD00487047240400200048704765
:10042000240400207546FFF7F9FFAE460500694633
:10043000534620F00700854618B020B5FFF7B2FEFE
:10044000BDE820404FF000064FF000074FF00008D5
:100450004FF0000B21F00701AC46ACE8C009ACE856
:10046000C009ACE8C009ACE8C0098D46704710B5BA
:100470000446AFF300802046BDE81040FFF77DBE84
:1004800001491820ABBEFEE7260002007047FEE7D8
:100490002DE9F05F0F460DA9144691E80007DDE94C
:1004A0000A2501469B46134802F0FFFC0646114808
:1004B0002A463946683002F0F8FC05460D484246A7
:1004C0003146343002F0F1FC06460A484A462946D5
:1004D0009C3002F0EAFC0546064852462146D030E0
:1004E00002F0E3FC03462A4631465846BDE8F05F79
:1004F00000F002B8200300202DE9F047994690460D
:100500000D4606F071F90446294605F0FBFF074643
:10051000414605F0F7FF494606F0C4FA06F028F90F
:1005200006B22046294606F0BDFA0446414605F0CB
:10053000E9FF494605F0E6FF06F01AF905B2204644
:10054000414606F0AFFA494606F0ACFA06F010F95B
:1005500004B23846414606F0A5FA494605F0D2FFF6
:1005600006F006F901B24FF47A725000964201DAB1
:10057000164602E0864200DD0646954201DA15463F
:1005800002E0854200DD0546944201DA144602E0AD
:10059000844200DD0446914201DA114602E08142C4
:1005A00000DD0146084606F01FF90746204606F022
:1005B0001BF90446284606F017F90546304606F0B2
:1005C00013F93B4622462946BDE8F04702F05EBAE1
:1005D0002DE9FC410027194E3B46CDE900763A460D
:1005E0004FF07E51164802F0B3FC164C164D1448DD
:1005F000CDE9005400231A461449343002F0A8FC17
:1006000000230F48CDE900761A461946683002F0FB
:100610009FFC00230A48CDE900541A4619469C3035
:1006200002F096FC00230648CDE900541A4619460C
:10063000D03002F08DFCBDE8FC81000000001643C4
:100640002003002000007A4300004842000080BFE1
:1006500070B501F011FF68280CD0BFF34F8F1E4812
:1006600001681E4A01F4E06111430160BFF34F8F3E
:1006700000BFFDE7002004F063FC00282AD17820A9
:1006800005F0EAF8782004F08DFBC82005F0A4F806
:1006900003F0E2FB1248044604F06EFA0546E01C43
:1006A00004F06AFA45EAC005A01D04F065FA45EABF
:1006B000801080B203F082FD40F2731003F0A4FAC0
:1006C000C82003F0E3FC05F04DF9BDE870400120BF
:1006D00004F0A8BF70BD00000CED00E00400FA05B6
:1006E000940000207047042000F0BAB872B6FEE70C
:1006F00070B5044600F0C2F90546601C02D00448FB
:100700000078044400F0BAF9401BA042FAD370BD4F
:10071000080000202DE9F04300233E4F0F2573E031
:1007200001229A400A406DD023F00304E619D6F85E
:1007300008809C074FEA147C05FA0CF909EA0804C2
:10074000DFF8D480404502D14FF0000816E0DFF812
:10075000CC80404502D14FF001080FE0DFF8C080A7
:10076000404502D14FF0020808E0DFF8B88040456C
:1007700002D14FF0030801E04FF0040808FA0CF82A
:10078000A04522D1284CD4F800C02CEA020CC4F8B1
:1007900000C0241DD4F800C02CEA020CC4F800C02C
:1007A000214C0C34D4F800C02CEA020CC4F800C070
:1007B000241FD4F800C02CEA020CC4F800C0D6F8FC
:1007C00008C02CEA090CC6F808C0FF2A01D8064662
:1007D00001E000F104064FEA830401D9A4F12004EA
:1007E000D6F800C005FA04F82CEA080C4FF004080B
:1007F00008FA04F84CEA080CC6F800C0C46824EAF9
:100800000204C46003F1010331FA03F288D1BDE8A8
:10081000F08300000000014000080140000C01408E
:1008200000100140001401400004014010B50428EC
:1008300012D1072002F00CFA044608220749612071
:1008400002F0E4F9054901200A3908702146BDE8A3
:100850001040072002F00EBB10BD0000A8000020D1
:10086000044910B50A68024202D00860FFF7DEFFB3
:1008700010BD0000140401402DE9F84FDFF8B891D5
:100880000024A9F1040B23460F2709F1040AABF158
:10089000040EC9E00125A5402A40AA427DD1674E39
:1008A000D1F804C0ACEB0608B44532D014DCBCF17E
:1008B000030F3AD009DCBCF1000F2AD0BCF1010FC4
:1008C0001CD0BCF1020F31D11DE0BCF1110F17D0CB
:1008D000BCF1120F2AD119E0B8F5881F19D006DC37
:1008E000B8F5803F15D0B8F5801F1FD111E0B8F5DD
:1008F000001F0ED0B8F5041F18D10AE0CB6815E030
:10090000CB681B1D12E0CB6808330FE0CB680C33BB
:100910000CE08B682BB1012B4FF0080303D045612D
:1009200004E0042302E0056100E00023FF2A01D86F
:10093000064601E000F104064FEA840501D9A5F15D
:100940002005D6F8008007FA05FC28EA0C0803FA0F
:1009500005F548EA0508C6F800804D68ED0062D547
:10096000374DAE6946F00106AE61AD6924F003066D
:1009700005F001050095334D06EB050CDCF8085039
:10098000A607360F07FA06F825EA0805DFF8B8804B
:10099000404503D14FF0000817E044E0DFF8AC8099
:1009A000404502D14FF001080FE0DFF8A480404538
:1009B00002D14FF0020808E0DFF89880404502D1EC
:1009C0004FF0030801E04FF0040808FA06F848EA7F
:1009D0000508CCF808804D68D9F80060ED024D4656
:1009E00001D5164300E096432E604D68DAF80060AA
:1009F000AD02554601D5164300E096432E604D6882
:100A0000DBF80060AD035D4601D5164300E0964378
:100A10002E604D68DEF80060ED03754601D5164383
:100A200000E096432E60641C0D682A46E5407FF482
:100A300031AFBDE8F88F000008040140000011103C
:100A4000001002400000014000080140000C01407D
:100A500000100140001401408068084000D00120CF
:100A60007047C26821EA02030A4043EA0241016179
:100A700070470AB1016170470904FBE701488068CB
:100A8000704700000800002010B5040013D0242097
:100A900084F83D002068016821F0010101602046D2
:100AA00000F096FA0020206484F83D0044F8300FEE
:100AB000A073207310BD012010BD000070B50400AC
:100AC00025D094F83D00002520B984F83C502046FC
:100AD00000F09AFA242084F83D002068016821F093
:100AE000010101602068016841F400410160206853
:100AF000016821F40041016000F0F2FB4D4A616899
:100B0000914201D84C4900E04C49884201D2012071
:100B100070BD4B492368B0FBF1F15E6826F03F06DB
:100B20000E435E606368934206D94FF4967359434F
:100B30004FF47A73B1FBF3F12368491C1E6A26F067
:100B40003F06314319626168914210D84900401E46
:100B5000B0FBF1F2521CC2F30B02042A01D20420B2
:100B600022E0B0FBF1F0401CC0F30B001CE0A268D7
:100B7000F2B301EBC10303EB0116431EB3FBF6F323
:100B80005B1C43F480431B0549D092B301EBC102C7
:100B900002EB0111401EB0FBF1F0401CC0F30B0052
:100BA00040F4804040F400402168CA694CF6FF736D
:100BB0009A431043C861D4E90710014320680268D2
:100BC00022F0C00211430160D4E90301014320680F
:100BD000826848F2FF339A4311438160D4E90501EA
:100BE00008432168CA6822F0FF021043C86001E090
:100BF0000EE016E02068016841F001010160256403
:100C0000202084F83D00256384F83E50002070BD0C
:100C100001EB4106431EB3FBF6F35B1CB3E7012077
:100C2000C2E701EB4101401EB0FBF1F0401CC0F3F4
:100C30000B00B7E7A086010080841E0000093D007C
:100C400040420F002DE9FF4F83B00025DDE9107908
:100C50009A4693460446DDF848800095FFF70EFF5C
:100C6000064694F83D0020287CD1192301228849AA
:100C70002046009601F0BAFA0028F5D194F83C001D
:100C800001286FD0012084F83C0020680168C90762
:100C900003D1016841F0010101602068016821F47D
:100CA00000610160222084F83D00402084F83E006D
:100CB00025646762A4F82A90608D20857548E062FB
:100CC000CDE9008653465A462046049901F090F932
:100CD00000287CD1208DDFF8C091202768B1012841
:100CE00014D00228206801681ED041F480610160A0
:100CF0002068416980690090BCE020684169816991
:100D00000091016841F400710160B3E0206801685E
:100D100021F48061016072B62068416981690091A7
:100D2000016841F400710AE041F40061016072B6AB
:100D30002068416981690091016821F48061016046
:100D400062B697E0032865D801280CD002284346F4
:100D50004FF000024946204600960BD001F046FABB
:100D6000A8BB0CE091E032464146204601F0E4FA8F
:100D700068BB72E001F03AFA48BB72B633E0206813
:100D8000016821F48061016072B620680069616ABF
:100D90000870606A401C6062208D401E2085608D56
:100DA000401E60853D4846F2A8110068B0FBF1F096
:100DB000C0EBC00000EB80000090401E009007D008
:100DC00020684069C04340070DD50098F5E727E04B
:100DD00044F8305F6773A573206940F020002061FC
:100DE00062B625731CE02068016841F4007101605F
:100DF00020680069616A0870606A401C6062218D29
:100E0000491E2185618D491E618562B62168096987
:100E1000017026E032464146204601F08DFA18B1B5
:100E2000012007B0BDE8F08F20680069616A087092
:100E3000606A401C6062208D401E81B22185608DF9
:100E4000401E608520684269D243520712D40329AC
:100E500003D1016821F48061016020680069616A42
:100E60000870606A401C6062208D401E2085608D85
:100E7000401E6085208D00287FF464AF84F83D70AB
:100E800084F83E5084F83C50CBE70220C9E70000CC
:100E9000020010000000FFFF040001001400002009
:100EA0002DE9FF4F83B09A46DDE91197934604463A
:100EB000DDF84080FFF7E2FD054694F83D0020286C
:100EC0007FD11923012240492046009501F08EF977
:100ED000002876D194F83C00012872D0012084F8D3
:100EE0003C0020680168C90703D1016841F0010195
:100EF00001602068016821F400610160212084F80C
:100F00003D00402084F83E0000262664C4F824807A
:100F1000A4F82A90608D20852C48E062CDE9007508
:100F200053465A462046049901F0E0F870B930E083
:100F30002A463946204601F037FA58B1206C042879
:100F400004D12068016841F400710160012007B0FC
:100F5000BDE8F08F606A216800780861606A401C13
:100F60006062218D491E89B22185628D521E628583
:100F700022685369DB435B070BD469B100781061C9
:100F8000606A401C6062208D401E2085608D401E7E
:100F90006085208D0028CBD12A463946204601F0B5
:100FA000F9F80028CAD154F83D0B016841F40071EA
:100FB0000160202004F81E09E67766770020C6E766
:100FC000FFE70220C3E70000020010000000FFFF5F
:100FD00010B50068094988420FD10948C16921F458
:100FE0000011C161074C40212046FFF793FB2046CA
:100FF000BDE810408021FFF78DBB10BD00540040BC
:1010000000100240000C014010B586B00021009194
:1010100001910291039100680F4988421AD10F4C47
:10102000A06940F00800A061A069694600F00800CE
:101030000490C020009012200190032003900848E3
:10104000FFF71AFCE06940F40010E061E06900F489
:101050000010049006B010BD005400400010024083
:10106000000C014002488168027811448160704799
:1010700008000020074810B5016841F01001016028
:10108000032000F085F8002000F006F800F024F8B6
:10109000002010BD0020024070B50D4D04464FF4F5
:1010A0007A712878B1FBF0F00A490968B1FBF0F0D9
:1010B00000F066FC48B9102C07D200222146501ED1
:1010C00000F046F800206C6070BD012070BD00008B
:1010D00008000020140000200C4808B5816941F088
:1010E00001018161816901F001010091C16941F053
:1010F0008051C161C06900F080500090044841688F
:1011000021F0E06141F00071416008BD0010024033
:101110000000014000280DDB00F01F02012191407A
:101120004009800000F1E020C0F88011BFF34F8F2C
:10113000BFF36F8F7047002809DB00F01F02012109
:1011400091404009800000F1E020C0F80011704794
:10115000F0B40E4B1B680C46C3F30223C3F1070522
:10116000042D00D90425191D072901D2002300E010
:10117000DB1E012606FA05F1491E214099409E40DA
:10118000761E16403143F0BC02F060B90CED00E071
:10119000064900F0070208684FF6FF03184040EACE
:1011A0000220034A10430860704700000CED00E085
:1011B0000000FA052DE9F0470F46050061D0434EC7
:1011C000306800F00700B84209D2306820F007000C
:1011D00038433060306800F00700B84251D12868C9
:1011E0003B4C810712D5400703D5606840F4E060AE
:1011F00060602878000703D5606840F46050606044
:101200006068A96820F0F000084360602878C00793
:1012100028D06868012810D02168022810D08907DA
:1012200000292EDA616821F0030101436160FFF7B4
:1012300025FC804641F288390DE021688903EFE7FB
:101240008901EDE7FFF71AFCA0EB0801494502D937
:101250000320BDE8F0876068696800F00C00B0EB1F
:10126000810FEFD1306800F00700B8420BD9306829
:1012700020F0070038433060306800F00700B842C3
:1012800001D00120E5E72878400705D56068E968C6
:1012900020F4E060084360602878000706D56068A5
:1012A000296920F4605040EAC100606000F028F82D
:1012B0006168084AC1F30311515CC84006490860DF
:1012C00006480068FFF7E8FE0020C2E70020024061
:1012D00000100240DC6C0008140000200C0000200C
:1012E0000448054900684968044AC1F30221515C79
:1012F000C84070471400002000100240EC6C000849
:101300000E4A51680E4801F00C03042B11D0082B33
:101310000FD10C48C1F38343C903C05C0AD551689F
:10132000084AC1F34041921E515C054A5043B0FB4C
:10133000F1F0704704494843704700000010024034
:1013400000127A00CC6C000800093D002DE9F84F2E
:10135000040070D02078C04DC00749D06868C0F341
:101360008100012807D06868C0F38100022809D1F4
:101370006868C00306D52868800339D560680028EE
:10138000E7D035E06068B0F5803F0BD010B1B0F524
:10139000A02F11D0286820F480302860286820F41D
:1013A000802002E0286840F480302860606890B1B6
:1013B000FFF764FB06460AE0286840F480202860B6
:1013C000F0E700BFFFF75AFB801B642873D828683A
:1013D0008003F7D50CE0FFF751FB064605E000BFA0
:1013E000FFF74CFB801B6428F0D828688003F7D4F3
:1013F00020789A4E80074FF001094FF0000839D548
:10140000686810F00C0F07D06868C0F381000228EC
:1014100009D16868C00306D42868800714D52069FC
:10142000012808D110E02069B0B1C6F80090FFF79C
:1014300025FB074605E00AE1FFF720FBC01B022859
:10144000C4D828688007F7D52868616920F0F800BB
:1014500040EAC10028600DE0C6F80080FFF70EFBEF
:10146000074604E0FFF70AFBC01B022823D82868C0
:101470008007F7D4207800072CD57948A169D9B125
:10148000C0F80090FFF7FAFA074604E0FFF7F6FA13
:10149000C01B02280FD8686A8007F7D571484FF43F
:1014A000FA510068B0FBF1F0009000BF0098411EB7
:1014B0000091FAD20EE080E0C0F80080FFF7DEFA7B
:1014C000074604E0FFF7DAFAC01B022875D8686AFD
:1014D0008007F7D42078400760D5E8690027C0006E
:1014E00008D4E86940F08050E861E869012700F01D
:1014F000805000905C480168C90513D40168834698
:1015000041F480710160FFF7B9FA824606E000BF3E
:10151000FFF7B4FAA0EB0A0064284ED8DBF800000D
:10152000C005F5D5E06801280AD008B1052813D018
:10153000286A20F001002862286A20F0040002E0F6
:10154000286A40F001002862E06841F2883B98B1C7
:10155000FFF794FA82460BE0286A40F00400286204
:10156000EEE700BFFFF78AFAA0EB0A0159455AD807
:10157000286A8007F6D50CE0FFF780FA824605E07E
:10158000FFF77CFAA0EB0A0159454CD8286A80077E
:10159000F6D41FB1E86920F08050E861E06988B3B3
:1015A0006968C1F38101022944D00228C6F860802D
:1015B00004D0FFF763FA044638E034E0FFF75EFA40
:1015C000074604E0FFF75AFAC01B02282BD8286808
:1015D0008001F7D4206AB0F5803F05D16868A16822
:1015E00020F4003008436860D4E9080108436968C2
:1015F00021F4741108436860C6F86090FFF73EFA62
:10160000044606E025E000BFFFF738FA001B022879
:1016100009D828688001F7D51BE000BFFFF72EFA34
:10162000001B022802D90320BDE8F88F286880013A
:10163000F4D40EE00128F7D06868226A00F4803103
:10164000914204D1616A00F47010884201D00120F7
:10165000EAE70020E8E700000010024000004242F4
:1016600080044242140000200070004070B5040065
:1016700009D0606A002540B125616561A56294F8D2
:10168000510040B10CE0012070BD6068B0F5827F70
:10169000F4D0E561F2E784F85050204600F040F8BD
:1016A000022084F851002068016821F040010160A7
:1016B000A088218900F4827001F404410843A189C3
:1016C00001F400610843217C01F002010843217DFF
:1016D00001F001010843218B01F400710843217FCF
:1016E00001F03801084394F8201001F0800108430C
:1016F000218D01F40051084321680860A06904218C
:1017000001EA1040216848602068C16921F4006145
:10171000C1616565012084F85100002070BD0000A2
:1017200030B585B0002400940194029403940068BD
:101730001449884223D11448816941F48051816160
:10174000816901F480510491816941F00401816152
:1017500080690E4D00F004000490A020009002204B
:1017600001900320039069462846FFF785F8402042
:10177000CDE90004694628460294FFF77DF805B0DC
:1017800030BD000000300140001002400008014060
:101790002DE9FF4F81B01D46934604464FF00109E5
:1017A0000E9EFFF76BF9074694F851006168012817
:1017B00006D0B1F5827F3CD1A168C9BB042838D1DD
:1017C0000298002871D0BBF1000FFBD0002DF9D09A
:1017D00094F8500001282CD04FF0010A84F850A052
:1017E00094F85100042802D0052084F851004FF0ED
:1017F0000008C4F85480C4F838B0E587A58702997A
:101800002163E586A586C4F84080C4F8448020683A
:101810000168490603D4016841F040010160E068B5
:10182000B0F5006F606808D0F0B3012D49D081E0B9
:10183000FFE7022005B0BDE8F08F08B1012D39D1D6
:10184000206B21680088C860206B801C2063E08EBC
:10185000401EE0862EE02068816889070FD5E18E62
:1018600069B1B9F1010F0AD1216B0988C160206B00
:10187000801C2063E08E401EE0864FF00009206847
:101880008168C9070CD0E18F51B1C068A16B088095
:10189000A06B801CA063E08F401EE0874FF0010921
:1018A000FFF7ECF8C01B01E00BE067E0B04201D3AA
:1018B000701C50D1E08E0028CDD1E08F0028CAD115
:1018C0003EE0206B216800780873206B401C206389
:1018D000E08E401EE0862DE02068816889070FD5E4
:1018E000E18E69B1B9F1010F0AD1216B0978017359
:1018F000206B401C2063E08E401EE0864FF0000904
:1019000020688168C9070CD0E18F51B1C068A16B14
:101910000870A06B401CA063E08F401EE0874FF072
:101920000109FFF7ABF8C01BB04202D3701C01D015
:1019300011E086B1E08E0028CED1E08F0028CBD117
:101940003A463146204601F089FB50B120206065BF
:1019500084F8508012E084F851A084F8508003206D
:1019600068E7A06818B92068C1688068009084F8AA
:1019700051A084F85080606D0028F1D0012059E713
:1019800010B5401EB0F1807F01D3012010BD4FF093
:10199000E02460610F21601701F058FD0020A06174
:1019A00007202061002010BD7047704710B590F8E7
:1019B0003C20012A22D0012280F83C20CA688C6891
:1019C00022F4407222434C6822F4806222430C6865
:1019D00022F4006222430C6922F4805222434C69B3
:1019E00022F400522243C969002322F480420A43B0
:1019F00001684A6480F83C30002010BD022010BD10
:101A000070B590F83C20012A26D0012480F83C4093
:101A1000022280F83D2003685A689D6822F0700613
:101A20000A6832435A600D4B02689A4208D0B2F1FC
:101A3000804F05D00A4B9A4202D00A4B9A4204D1F9
:101A4000496825F080031943916080F83D400021EA
:101A500080F83C10084670BD022070BD002C01408B
:101A6000000400400008004010B5040003D094F8C2
:101A70003D0010B107E0012010BD002084F83C00BB
:101A8000204600F01FF8022084F83D00211D206848
:101A900001F0A6FB012084F8460084F83E0084F89B
:101AA0003F0084F8400084F8410084F8420084F844
:101AB000430084F8440084F8450084F83D00002089
:101AC00010BD000008B50068B0F1804F12D10A487F
:101AD000C16941F00101C161C069002200F001004B
:101AE000009001211C20FFF733FBBDE808401C20BB
:101AF000FFF721BB08BD00000010024090F83D1028
:101B0000012901D001207047022180F83D100168B1
:101B1000CA6842F00102CA6000680B49884208D0D6
:101B2000B0F1804F05D00949884202D00849884267
:101B300004D1816801F00701062903D0016841F052
:101B40000101016000207047002C014000040040AA
:101B50000008004070B5044690F83C0000250128BC
:101B600017D0012684F83C60022084F83D002068EC
:101B7000826822F0770222F47F428260086850284F
:101B800038D00DDC20284FD005DC90B3102811D1BF
:101B90004AE0022070BD302846D040280AD13BE000
:101BA00060282FD070280DD0B0F5805F03D0B0F53D
:101BB000005F12D0012584F83D60002084F83C00CD
:101BC000284670BDCB68D1E90121206801F051FBA6
:101BD0002068816841F0770109E0CB68D1E90121F3
:101BE000206801F046FB2068816841F480418160F3
:101BF000E1E719E0CA684968206801F0EFFB50216D
:101C0000206806E0CA684968206801F0F8FB602196
:101C1000206801F038FBCEE7CA684968206801F007
:101C2000DDFB40212068F4E7226801461046F0E71A
:101C300070472DE9F04104460068C66805694FF019
:101C40000007A90713D5B10711D5F91E01610120BD
:101C50002077206880698007204602D0FFF7E8FFE0
:101C600004E000F0A5F8204600F04AF9277768075D
:101C700016D5700714D521686FF0040008610220A2
:101C800020772068806910F4407F204602D0FFF75B
:101C9000CFFF04E000F08CF8204600F031F9277700
:101CA000280715D5300713D521686FF008000861A3
:101CB000042020772068C0698007204602D0FFF703
:101CC000B7FF04E000F074F8204600F019F9277718
:101CD000E80616D5F00614D521686FF010000861EB
:101CE000082020772068C06910F4407F204602D089
:101CF000FFF79EFF04E000F05BF8204600F000F9DB
:101D00002777E80708D0F00706D021686FF00100B8
:101D10000861204600F044F9280608D5300606D5AB
:101D200021686FF0800008612046FFF73DFE6806DD
:101D300008D5700606D521686FF04000086120467E
:101D400000F03CF9A8060AD5B00608D521686FF066
:101D5000200008612046BDE8F041FFF726BEBDE83F
:101D6000F081000000B585B0002100910191029141
:101D7000039100680B49884212D10B48816941F0F8
:101D8000040181618069694600F0040004904FF409
:101D9000706000900220019003900448FEF76CFDF3
:101DA00005B000BD002C01400010024000080140B9
:101DB000704770B5044690F83C0000260D46012897
:101DC0000FD0012084F83C006AB1042A1DD0082AF3
:101DD0002FD00C2A3FD00126002084F83C0030464A
:101DE00070BD022070BD206801F056FA206881693C
:101DF00041F0080181612068816921F0040181615D
:101E0000206881692A69114311E0206801F06CFAA9
:101E10002068816941F4006181612068816921F451
:101E200080618161206881692A6941EA02218161BA
:101E3000D2E7206801F084FA2068C16941F0080106
:101E4000C1612068C16921F00401C1612068C169D4
:101E50002A69114311E0206801F09EFA2068C169E7
:101E600041F40061C1612068C16921F48061C161F0
:101E70002068C1692A6941EA0221C161ACE710B555
:101E8000040003D094F83D0010B107E0012010BD1C
:101E9000002084F83C00204600F01EF8022084F860
:101EA0003D00211D206801F09BF9012084F84600C7
:101EB00084F83E0084F83F0084F8400084F8410034
:101EC00084F8420084F8430084F8440084F8450014
:101ED00084F83D00002010BD08B50068064988421E
:101EE00008D10648816941F400618161806900F48C
:101EF0000060009008BD0000002C0140001002406E
:101F00007047000010B50446022249B104290ED0E2
:101F1000082913D094F84100012816D0012010BDE3
:101F200094F83E000128F9D184F83E200FE094F89F
:101F30003F000128F2D184F83F2008E094F84000E7
:101F40000128EBD184F8402001E084F841200122EF
:101F5000206801F081F90F492068884203D1426C62
:101F600042F4004242642068884208D0B0F1804FB9
:101F700005D00949884202D00849884204D18168C5
:101F800001F00701062903D0016841F00101016059
:101F9000002010BD002C014000040040000800405B
:101FA0000068B0F1804F05D103480178002901D1C4
:101FB0000121417070470000000000207047FEE7DB
:101FC00001684A69D24352050FD46FF480624A61B6
:101FD000002140F8301F202242738173026942F0D1
:101FE0000402026101730120704700207047000065
:101FF0002DE9F84F0446006889460B9D0168984614
:10200000174641F4806101602068016841F48071E5
:10201000016000954FF0011B0022594620460A9BA3
:1020200000F0E4F84FF4007A40B120680068C00581
:1020300001D5C4F840A00320BDE8F88F216809F05D
:10204000FE0008612B46284920460A9A00F016F93E
:10205000F0BB20684169806900902A4620460A99B1
:1020600000F0A2F940B1206C04283AD12068016840
:1020700041F40071016034E0FEB2B8F1010F09D003
:102080002168380A08612A4620460A9900F08CF92E
:102090000028E8D1206806612A4620460A9900F007
:1020A00083F90028DFD12068016841F48071016064
:1020B00000950022594620460A9B00F097F8002818
:1020C000B3D1216809F0FF0040F00100086100E091
:1020D00007E02B46044920460A9A00F0CFF8002872
:1020E000AAD00120A8E70000020001002DE9F84372
:1020F000044600680D46DDE90897016898461646D3
:1021000041F4807101604B4600224FF001112046DE
:10211000009700F06BF848B120680068C00502D550
:102120004FF4007020640320BDE8F883216805F0B7
:10213000FE0008613B464A461549204600F09EF8DD
:1021400088B920684169806900903A46494620462E
:1021500000F02AF948B1206C042804D120680168F5
:1021600041F4007101600120DEE7F5B2B8F1010F22
:1021700009D02168300A08613A464946204600F0F5
:1021800013F90028E7D1206805610020CCE70000A2
:102190000200010070B516460D4604461EE02046BA
:1021A000FFF70EFF08B1012070BD681C16D0FEF7C6
:1021B00065FC801BA84200D885B920684069C043EF
:1021C00040070BD5002044F8300F20216173A07325
:1021D000216941F0200121612073E4E72068406912
:1021E000C0434007DBD4002070BD00002DE9F0475C
:1021F000984617460D460446C1F30746DDF8209081
:102200002AE000BFB8F1FF3F26D0FEF737FCA0EB75
:102210000901414502D8B8F1000F1DD12068012EF7
:1022200016D0806925EA00000004000C12D00020BE
:10223000B84211D1002044F8300F20216173A073FF
:10224000216941F02001216120730120BDE8F08760
:102250004069E7E70120EBE72068012E0AD080699A
:1022600025EA00000004000C06D00020B842C9D0C6
:102270000020EBE74069F3E70120F7E72DE9F0479D
:10228000984616460D4604464FF000094FF0200AC6
:10229000C1F3074723E020684069C043400515D4D7
:1022A0002068016841F40071016021686FF480606A
:1022B0004861C4F8309084F83DA084F83E90216CC9
:1022C00041F00401216484F83C9021E0701C06D0A8
:1022D000FEF7D4FBA0EB0800B04203D816B1012FE3
:1022E0001FD021E02068012F15D0806925EA000069
:1022F0000004000C18D000BF44F8309F84F80DA0F3
:1023000084F80E90216941F02001216184F80C903D
:102310000120BDE8F087406925EA00000004000CB8
:10232000EAD12068406901E02068806925EA000060
:102330000004000CAFD1ECE72DE9F04100259046F8
:102340000E460446202728E04069C043C0060CD44E
:1023500054F8301B6FF01000486144F8105967774B
:10236000A577206A2062257714E0FEF787FBA0EBB3
:102370000800B04200D886B920684069C0434006D2
:102380000BD544F8305F6773A573206940F02000D7
:10239000206125730120BDE8F08120684169C943AF
:1023A0004906D1D40020F6E770B516460D4604461E
:1023B0001EE02046FFF704FE08B1012070BD681C36
:1023C00016D0FEF75BFB801BA84200D885B92068B9
:1023D0004069C04300060BD5002044F8300F20218F
:1023E0006173A073216941F0200121612073E4E74A
:1023F00020684069C0430006DBD4002070BDF8B5FA
:102400001C4615460E4607466B46012202F022FB8B
:1024100001209DF80010A8400CB1084301E021EA1A
:1024200000008DF800006B4601223146384602F06C
:1024300085FBF8BD2DE9F8431D4616460F4680463C
:102440006B460122089C02F005FB002812D10120F6
:10245000A840711B401E491C88408C409DF800100C
:102460006B46814321438DF80010012239464046D6
:1024700002F064FBBDE8F88310B50E210548FDF7B6
:10248000FBFE044B01227521682002F0E3FA0148AB
:10249000007810BDFC01002010B5012000F013F8F9
:1024A000032000F022F8002000F016F8002000F0D1
:1024B00031F8002000F028F8002000F01FF8BDE8F7
:1024C000104000F02DB808B50323009002226B21C4
:1024D0006820FFF7AFFF08BD08B502230090042273
:1024E0001C216820FFF7A6FF08BD08B50223009055
:1024F00004221B216820FFF79DFF08BD034601222F
:1025000037216820FFF77BBF034605226A21682038
:10251000FFF775BF034606226B216820FFF76FBFE8
:1025200010B5FFF7A9FF0449682803D00020087000
:10253000087810BD0120FAE7480000202DE9F04F8F
:102540008DB00CA906A8CDE900010BAB07AA04A920
:1025500002A801F08BFCBDF81800C0057ED50798D5
:1025600004F042F96FF01D04214604F070FB804630
:10257000089804F039F9214604F069FB07460998E8
:1025800004F032F9214604F062FB82460A9804F016
:102590002BF9214604F05BFB81460121404604F003
:1025A00056FB5146019004F07FF904464FF040413C
:1025B000384604F079F90646494604F075F9214693
:1025C00003F0A0FF03F072FF00F0F8FF4FF0C042ED
:1025D000724B03F091FC03F055FA714C0121E0615C
:1025E000504604F034FB5146009004F05DF9054676
:1025F0003046394604F058F9294604F053FA4FF0B2
:102600007E5103F07FFF03F051FF05468B463946AC
:10261000019804F049F906464946009804F044F947
:10262000314603F06FFF03F041FF2A465B4601F09D
:102630000DFA4FF0C042594B03F05EFC03F022FA52
:1026400049462062084604F02FF983465146084661
:1026500004F02AF906463946084600E09CE004F0FA
:1026600023F905464146084604F01EF9294603F0C1
:1026700049FF314604F016FA594604F013FA03F004
:1026800015FF05460E464946404604F00DF98046C2
:102690005146384604F008F9414603F033FF012162
:1026A00004F0D5FA03F002FF2A46334601F0CEF9D2
:1026B0004FF0C042394B03F01FFC03F0E3F905462D
:1026C000A16904F0EFF9374EDFF8DC80B04202DD9B
:1026D000414604F0E7F9354FB84202D9414603F0CC
:1026E00011FF3349884202DC3249884210D9014641
:1026F000606903F007FF6061B04203DD414604F00A
:10270000D1F96061B84203D9414603F0FBFE606134
:10271000A56160696062BDF9100004F065F86FF0B2
:102720000D05294604F093FA234E314604F0BCF817
:10273000A062BDF9120004F057F8294604F087FAA8
:10274000314604F0B1F8E062BDF9140004F04CF831
:10275000294604F07CFA314604F0A6F82063BDF95E
:10276000080004F041F8154D294603F03FFF60636F
:10277000BDF90A0004F038F8294603F037FFA063DA
:10278000BDF90C0004F030F8294603F02FFFE06398
:1027900001200DB0BDE8F08F0020FAE766A64C409E
:1027A00048000020000034430000B443000034C35C
:1027B000CDCC4C3ECDCC4CBE0AE81C4133338341DA
:1027C0002DE9F04186B000242F4800940194029432
:1027D0000394816941F010018161816901F0100168
:1027E0000491816941F020018161816901F020013A
:1027F0000491816941F004018161816901F0040162
:102800000491816941F00801816180691F4F00F0E6
:1028100008004FF400550490002229463846FEF780
:1028200028F9DFF86C80002208214046FEF721F9E4
:10283000012210214046FEF71CF9009502260125D1
:102840000396CDE9015469463846FEF715F8042091
:1028500000901048CDE9010569464046FEF70CF8A6
:102860001820CDE90005CDE9024669464046FEF74D
:1028700003F8002211460820FEF76AFC0820FEF744
:102880005AFC06B0BDE8F081001002400010014083
:1028900000080140000021100D4810B50B490160EF
:1028A0000C49416000214FF480428160C0E903126D
:1028B00041618161C1610162FEF700F9002803D026
:1028C000BDE81040FDF712BF10BD000000540040ED
:1028D000B0000020801A0600104810B50E490160B3
:1028E0004FF48271416000218160C1604FF4007239
:1028F0000161C0E905121822C0E907214162816225
:102900000A21C162FEF7B2FE002803D0BDE81040E4
:10291000FDF7ECBE10BD00000030014004010020B6
:1029200010B592B000240F941C2168461094FDF756
:10293000C5FC202107A8FDF7C1FC2D482B490160EB
:102940004721C0E9011440F6C311C0E903148021F6
:10295000C0E90541FFF793FA08B1FDF7C7FE0F94F0
:102960000FA923481094FFF74BF808B1FDF7BEFEFE
:102970006020CDE90004029403940494059400229D
:1029800069461B480694FFF714FA08B1FDF7AEFE3E
:10299000042269461648FFF70CFA08B1FDF7A6FEB7
:1029A000082269461248FFF704FA08B1FDF79EFEB7
:1029B0000C2269460E48FFF7FCF908B1FDF796FEB8
:1029C0000794089409944FF400500A94CDE90B4001
:1029D00007A907480E94FEF7E9FF08B1FDF786FE48
:1029E0000348FFF7BFF912B010BD0000002C0140F2
:1029F0005C01002010B586B00024174800940194B3
:102A00000294039404944FF080410594016047219F
:102A1000C0E9011441F28731C0E9031480218161CA
:102A2000FFF722F808B1FDF761FE4FF480500090E7
:102A300069460948FFF78EF808B1FDF757FE049480
:102A400004A905480594FEF7DBFF002801D0FDF737
:102A50004DFE06B010BD0000A4010020FEE70000FE
:102A600010B500210848FFF74DFA04210648FFF78A
:102A700049FA08210448FFF745FABDE810400C2147
:102A80000148FFF73FBA00005C0100207FB51C46FB
:102A900015460E4603F06CFE0090304603F068FECB
:102AA0000190284603F064FE0290204603F060FE89
:102AB000039000204FF47A7369465A0051F8204081
:102AC0009C4202DA41F8203003E0944201DD41F8F3
:102AD0002020401CC0B20428F0D3074800990268A7
:102AE000516302680199916302680299D163006899
:102AF000039901647FBD00005C0100201CB5204CDF
:102B0000012210212046FDF7B4FF002208212046B3
:102B1000FDF7AFFF002210212046FDF7AAFF50204D
:102B200000F0B6FA732000F0B3FA0122102120461B
:102B3000FDF79FFF00F02AF8002210212046FDF744
:102B400098FFE22000F0A4FA012210212046FDF7B0
:102B500090FF002210212046FDF78BFFE12000F0BE
:102B600097FA012210212046FDF783FF05A1D1E944
:102B70000001CDE90001684600F03AF91CBD0000F3
:102B800000080140BB2233445566778810B51D4CC0
:102B9000002208212046FDF76CFF05221A490A2071
:102BA00000F042F90121084600F064F901210220F9
:102BB00000F060F90321084600F05CF928210520A7
:102BC00000F058F90821112000F054F901211C20CF
:102BD00000F050F906211D2000F04CF907210620D5
:102BE00000F048F90F21002000F044F9FF210720F0
:102BF00000F040F920460122BDE810400821FDF711
:102C000038BF000000080140807900082DE9F0413C
:102C10000E4F15460E460446002210213846FDF799
:102C200028FF204600F034FA002405E0FF2000F0E1
:102C30002FFA3055641CE4B2AC42F7D33846BDE8F5
:102C4000F04101221021FDF714BF000000080140EF
:102C500070B50A4D0446002210212846FDF709FFF1
:102C6000204600F015FAFF2000F012FA0446012277
:102C700010212846FDF7FDFE204670BD00080140EA
:102C8000F8B505460820FEF745FA00F07BF83C4E03
:102C9000002210213046FDF7ECFEA02000F0F8F9EC
:102CA0000024285D00F0F4F9641CE4B2082CF8D389
:102CB0000122102135463046FDF7DBFE01220821B6
:102CC0002846FDF7D6FE00204FF496710090401C78
:102CD00000908842FBDB002208212846FDF7C9FE50
:102CE000FDF7CCFE044604E0FDF7C8FE001B642897
:102CF00005D804212846FDF7AFFE0128F4D00720AF
:102D0000FFF7A6FF04460146072000F0B3F8E006EF
:102D10000CD5002210212846FDF7ABFEE12000F083
:102D2000B7F9012210212846FDF7A3FEFFF72EFF79
:102D3000002210212846FDF79CFEE22000F0A8F9B1
:102D4000012210212846FDF794FE0022102128467A
:102D5000FDF78FFEE12000F09BF9012210212846AB
:102D6000FDF787FE0820FEF7E6F9A00601D5202032
:102D7000F8BDE00601D51020F8BDFF20F8BD000029
:102D80000008014010B5002208211748FDF771FE28
:102D900005221649102000F047F8052213490A20A1
:102DA00000F042F80121084600F064F801210220F9
:102DB00000F060F80321084600F05CF80A210420C6
:102DC00000F058F82821052000F054F807210620CB
:102DD00000F050F80E21002000F04CF8FF21BDE873
:102DE0001040072000F046B8000801408079000834
:102DF00070B50C4E0546002210213046FDF739FE15
:102E0000A82000F045F90024285D00F041F9641C79
:102E1000E4B2082CF8D33046BDE8704001221021FE
:102E2000FDF727BE000801402DE9F041DFF84080A2
:102E300016460D460446002210214046FDF719FEB5
:102E400044F0200000F024F90746002406E000BF0B
:102E500015F8010B00F01CF9641CE4B2B442F7D37E
:102E6000012210214046FDF704FE3846BDE8F081FE
:102E70000008014070B50B4D0E460446002210219B
:102E80002846FDF7F6FD44F0200000F001F9304639
:102E900000F0FEF82846BDE8704001221021FDF741
:102EA000E8BD000000080140FEE770B50446084692
:102EB000C4E905021146E269226203F0F3FD05460A
:102EC000E0612946206803F0EFFC606229466068F3
:102ED00003F0EAFCA16A03F015FB0146A062E0687A
:102EE00080F0004003F0ACFD03D8E06880F00045BE
:102EF00007E0E168A06A03F0A3FD01D8E56800E0FF
:102F0000A56AA562D4E9070103F0CCFDA16803F02E
:102F1000CBFC0646E0622946606A03F0F3FA3146CC
:102F200003F0F0FA01462063206980F0004003F0CE
:102F300087FD03D8206980F0004007E02169206BFD
:102F400003F07EFD01D8206900E0206B206370BD96
:102F500030B5DDE9034580E83E0030BD7047000034
:102F600030B40020094C0A49024600BF54F82050F2
:102F700000EB4003401C41F8235001EB83030C2875
:102F80005A601A72F2DB30BCFFF7B8BD5079000806
:102F90009002002070B520480178AA293AD14178E2
:102FA0008278090441EA0224C17805790C4320465D
:102FB00000F036F8284603F02FFC184903F074FCA3
:102FC00003F0D6FB144A00F57A700A3A002110810A
:102FD0000846E30700D00121A30700D5491E630777
:102FE00001D54FF0FF30230700D5401C0F231125DA
:102FF000A54300D11E235943918058435080600659
:1030000002D56FF0310004E0200601D5322000E047
:103010000020D08070BD0000A8000020DBF97A40BD
:1030200070B500220C49134602EB420451F82450BB
:1030300001EB8404054208D065684DB123726D1C14
:103040006560521C0C2AEFDB70BD63602372F8E7E9
:1030500001262672F3E7000090020020F8B515461D
:103060000E460B46009204460122022100F022F88F
:1030700040B93346002280212046009500F01AF81E
:10308000002804D0606D40F0200060650320F8BD8A
:1030900001B582B000208DF804000A2000900123C1
:1030A00001AA02A90248FEF773FB9DF804000EBDB9
:1030B000040100202DE9F8431E4691468846044647
:1030C000089DFDF7DBFC401B351AFDF7D7FC0746D2
:1030D00025480068C0F3CB30684338E0701C37D017
:1030E000FDF7CCFCC01BA84203D215B1009860B319
:1030F0002CE02068416821F0E00141606068B0F593
:10310000827F0BD1A068B0F5004F02D0B0F5806F80
:1031100004D12068016821F040010160A06AB0F587
:10312000005F09D12068016821F400510160206826
:10313000016841F400510160012084F85100002031
:1031400084F850000320BDE8F8830025401E00905D
:103150002068816838EA010004D000214945BDD1CA
:103160000020F0E70121F9E7140000207047FDF787
:1031700079BF30B58FB028216846FDF79FF814213C
:103180000AA8FDF79BF801210804CDE900100024EE
:10319000029402250491CDE907504FF4E010099004
:1031A0006846FEF7D3F808B172B6FEE70F20CDE906
:1031B0000A054FF48060CDE90C4002210AA80E9464
:1031C000FDF7F8FF002801D072B6FEE70FB030BD62
:1031D000704700000148FEF72CBD0000A40100204C
:1031E000F0B50268194B1A4C1A4D4FF080479842BF
:1031F00005D0B84203D0A04201D0A84203D122F0AA
:1032000070064A683243984205D0B84203D0A042C3
:1032100001D0A84203D122F44074CA6822434C6909
:1032200022F08002224302608A68C2620A688262D7
:10323000984201D109690163012141610169C9070E
:1032400003D0016921F001010161F0BD002C0140B2
:10325000000400400008004010B501F01F030121E8
:10326000046A99408C430462016A9A4011430162E6
:1032700010BD10B5846842EA032224F47F440A4357
:103280002243826010BD826822F070020A4342F03D
:10329000070181607047000030B5036A026A22F0BE
:1032A000010202624268846924F073050C682C43B1
:1032B00023F002058B682B430A4DA8420BD123F063
:1032C0000805CB6822F440722B434D6923F00403B8
:1032D00015438A692A4342608461496841630362F5
:1032E00030BD0000002C014030B5026A036A23F0B3
:1032F00010030362436884690D6824F4E64444EAD9
:1033000005248D6822F0200242EA05120B4DA842E6
:103310000ED1CD6822F0800242EA05124D6923F4F5
:10332000406343EA85038D6922F0400243EA850346
:103330004360846149688163026230BD002C0140B2
:1033400030B5036A026A22F4807202624268C4697C
:1033500023F4007324F073050C682C438D6843EA52
:1033600005230C4DA8420ED1CD6823F4006343EA37
:1033700005234D6922F4405242EA05128D6923F477
:10338000806342EA05124260C4614968C163036216
:1033900030BD0000002C014030B5046A026A22F4FE
:1033A000805202624268C3690D6823F4E64343EA2F
:1033B00005238D6824F4005444EA0534064DA842E0
:1033C00004D14D6922F4804242EA85124260C36111
:1033D00049680164046230BD002C014010B5036AE5
:1033E000046A24F001040462846924F0F00444EACD
:1033F000021423F00A020A438461026210BD10B570
:10340000036A046A24F010040462846923F0A003B0
:1034100024F4704444EA023243EA011182610162F9
:1034200010BDFEE7490050EAC12018BF04204A0D34
:1034300018BF40F0010040F2FF72B2EB515F08BFCD
:1034400040F00200012808BF052070470907090E57
:10345000002804DB00F1E02080F80014704700F041
:103460000F0000F1E02080F8141D70472DE9F041B5
:103470004F1E00EBC7010446D1E9000115461E4668
:1034800037F006020DD02A46334602F035FD7F1E86
:1034900004EBC703D3E9002302F026FB37F0060252
:1034A000F1D1022F25D0042F13D0062F18BFBDE86D
:1034B000F0812A46334602F01FFDD4E90A2302F0C8
:1034C00013FB2A46334602F017FDD4E9082302F025
:1034D0000BFB2A46334602F00FFDD4E9062302F027
:1034E00003FB2A46334602F007FDD4E9042302F029
:1034F000FBFA2A46334602F0FFFCD4E9022302F02D
:10350000F3FA2A46334602F0F7FCD4E90023BDE87B
:10351000F04102F0E9BA012203F06BBB02F0E4BA19
:10352000002213461046114602F08EBB024A0020CC
:10353000110703F05EBB000001FDFFFF2DE9FE4F08
:1035400007460E460025684600F0DCFF00246FF0B9
:103550000F0AE8464FF0010957F8240056F82410E6
:10356000401A00D5404203F03FF9514603F06FFB8B
:1035700058F8241011F0FF4F0BD003F037F84FF03C
:103580007E5103F08FFA0A4920F00040884205DCA2
:1035900007E0084908440849884202D309FA04F0C0
:1035A0000543641C032CD7DB2846BDE8FE8F0000D2
:1035B000295C0F3E666666C19A99D9002DE9F04DE7
:1035C0008D4F21F0004A86B005460C46BA452ADBED
:1035D000AAEB070028430AD08848824501DC1AD1AB
:1035E000CDB106B02846BDE8F04DFFF794BF844A40
:1035F000844B284602F080FC07460E46824A834BE5
:103600002846214602F078FC06B03A463346BDE82B
:10361000F04D02F069BA0120FCF7F6FE06B0BDE8F5
:10362000F04DFFF77DBF7A48824542DABAF1795F03
:103630000BDA2846FFF7F6FE042808BFFFF776FFEF
:10364000284606B02146BDE8F08D2A460B461046B6
:1036500002F052FC834602466E480E460B46062197
:103660007844FFF703FF5A46334602F045FC804694
:1036700069488A465A46334604217844FFF7F6FEE5
:103680005A46334602F038FC00223B4602F02CFA40
:1036900002460B464046514602F0D6FA2A462346D9
:1036A00002F02AFC06B02A462346BDE8F04D02F09F
:1036B0001BBA284624F0004100223D463B4602F05A
:1036C00019FD4FF0FF3203F094FA064602465348C4
:1036D0000F460B4606217844FFF7C8FE32463B46AC
:1036E00002F00AFCCDE900014D4832463B46042178
:1036F0007844FFF7BBFE32463B4602F0FDFB00225A
:103700002B4602F0F1F9834602913046394602F029
:1037100093F9804643480D46504517DCDDE900012A
:103720005A46029B02F090FA42462B4602F0E4FB16
:1037300042462B4602F0D8F9012203F05AFA304AE9
:10374000304B02F0C9FD304A304B4CE04FF0000ADC
:1037500052460B46404602F0C7F9CDE903105246E7
:103760002B461046194602F0C7FB32463B4602F094
:10377000C1FCDDE9033202F067FA06460F46DDE9D7
:1037800000015A46029B02F05FFA83460091012233
:103790003046394603F02DFA194A1A4B02F0AAFCBA
:1037A00006460F4601224046294603F022FA5A46B1
:1037B000009B02F0A1FB32463B4602F08DFD06461F
:1037C0000F4601225046294603F013FA0E4DDFF84A
:1037D00058802A46434602F08DFC32463B4602F0B2
:1037E00089FC2A46434602F085FC002CD8BF81F0B4
:1037F000004106B0BDE8F08D0000F03F0000F07F12
:10380000075C143326A6913C182D4454FB21F93F44
:103810000000E03F244300003A430000AE420000B5
:10382000C44200003333EF3FFB21E93F2DE9F84F5D
:1038300004460D4621F0004000917349814211DC9D
:103840007249884201DC06D12CB120462946BDE8E8
:10385000F84FFFF760BE6E48002DCCBF6D496E4932
:10386000BDE8F88F6D49814211DD6D498142D8BFB5
:103870004FF0FF366DDD20462946FFF7D3FD0428C3
:1038800008BFFFF753FE20462946BDE8F88F65497B
:10389000654F25F00045814233DD6449814219DDE1
:1038A000002632464FF080432046294602F01CF99C
:1038B00080468A4601222046294603F09AF90022D2
:1038C0003B4602F009FD4246534602F0BDF904466C
:1038D0000D463EE001260022BA463B4620462946D8
:1038E00002F002F980460F46002253462046294640
:1038F00002F0F2FC42463B4602F0A6F904460D46B1
:1039000027E04B4981421BDDDFF828A10226002277
:1039100053462046294602F0EFFA00223B4602F0C9
:10392000E3F880460F46002253462046294602F01F
:10393000D3FC42463B4602F087F904460D4608E0B8
:10394000032622462B4600203B4902F07DF904461F
:103950000D4622462B461046194602F0CDFA8B46FC
:10396000824602460B4602F0C7FA07460246334833
:1039700088460B4606217844FFF778FD52465B46A1
:1039800002F0BAFA82462E488B463A464346052153
:103990007844FFF76BFD3A46434602F0ADFA024623
:1039A0000B46002E504659460CDA02F09DF822468E
:1039B0002B4602F0A1FA01B022462B46BDE8F04F9B
:1039C00002F098BB02F090F822462B4602F094FADF
:1039D0001C4A7A4402EBC603D3E9002302F07CFCC4
:1039E00022462B4602F078FC174A7A4402EBC603C3
:1039F000D3E9002302F07EFB009A002AB8BF81F0D1
:103A00000041BDE8F88F0000000010440000F07F86
:103A1000182D4454FB21F93FFB21F9BF0000DC3F86
:103A20000000203E0000F33F0000F03F0000E63FB2
:103A3000008003400000F83F0000F0BFC6400000D7
:103A40008440000022400000EA3F00002DE9F04DD4
:103A50009446CCF1000423F000464CEA0404524F93
:103A600046EAD4749A46884621F00042BC4206D801
:103A7000454240EA050442EAD474BC4204D9BDE898
:103A8000F04D6246FFF74ABDAAF14055A5F17F65AA
:103A900055EA0C040BD0022404EAAA74434DDFF863
:103AA00010E144EAD87452EA000B04D00CE0BDE8FF
:103AB000F04DFFF7BBBE002C14BF012CBDE8F08D0C
:103AC000022C30D0032C32D056EA0C0B0AD0BE4266
:103AD00020D1BA4209D126F0804622F080423346F6
:103AE000114617E000291ADB25E0DFF8C8B0FB44D7
:103AF000002C04BFDBE90001BDE8F08D012C02BF02
:103B0000DBE9000181F00041BDE8F08D022C0AD014
:103B1000032C0CD0BA4212D1B8F1000F0BDA2348B3
:103B20002549BDE8F08D28462449BDE8F08D28469A
:103B30007146BDE8F08D1D482149BDE8F08D921B0E
:103B400012153C2AC4BF19481D490EDCBAF1000FFA
:103B5000BEBF12F13C0F0020014606DB624602F0B8
:103B600073F821F00041FFF761FE002C08BFBDE8AB
:103B7000F08D012C04BF81F00041BDE8F08D114AA9
:103B8000114B022C07D002F0A7FB2A46BDE8F04DEE
:103B90000A4B02F0A1BB02F09FFB2A46BDE8F04DA4
:103BA000064B02F0A7BA00000000F07F182D445425
:103BB000FB2109C07E3F0000FB21F9BFFB2109402A
:103BC000FB21F93F075C143326A6A13C08B560B180
:103BD00020208DF8000028208DF8010030208DF87D
:103BE000020038208DF8030004E0A3220421684677
:103BF000FCF73AFB6A46042140F69E2001F088FE5D
:103C000001F04EFB08BD00003EB5044602208DF8D1
:103C10000000CA208DF80100E3208DF80200092081
:103C20008DF803006A460421682001F071FEA3208C
:103C30008DF80000610609D5C0218DF80110C8215A
:103C40008DF80210C2218DF8031005E08DF80100F7
:103C50008DF802008DF8030014F4C07F09D0C42150
:103C60008DF80410CC218DF80510C6218DF80610B2
:103C700005E08DF804008DF805008DF806008DF83C
:103C800008008DF807008DF809006A460A2140F601
:103C9000A72001F03DFEA0074FF0D80503D020205B
:103CA0008DF8000001E08DF800506A46012140F6D1
:103CB000B62001F02DFEA00601D5012000E0002075
:103CC00000F08EF814F4C07F1ED0E0050AD5B220B3
:103CD0008DF800008B208DF80100B6208DF80200D1
:103CE0009B2009E0B0208DF8000080208DF80100B5
:103CF000B4208DF8020090208DF803006A4604215C
:103D000040F6A22001F004FEE1074FF40B6022D040
:103D1000F8218DF800106A46012101F0F9FDFA2121
:103D2000072000F03BFB072000F006FB012000F01D
:103D300023FB642000F0C6FB4FF4FA7000F0D2FBC6
:103D4000C821254800F0C0FA282000F0D5FA0A2042
:103D500000F0E2FA05E08DF800506A46012101F01A
:103D6000D7FDA00703D5D9208DF8000001E08DF81C
:103D700000506A46012140F23D7001F0C9FD600724
:103D800001D5012000E0002000F048F8E00601D550
:103D9000012000E00020FFF719FF104D44F008005B
:103DA000688101F07DFA0020A873600601D5062025
:103DB000A87314F4C07F02D0A87B801DA87314F0F0
:103DC000140F02D0A87B1030A873A00702D0A87BE4
:103DD000001DA87300203EBD09E3CA02EC010020CB
:103DE0000EB54FF4976310B106A107C901E008A210
:103DF00007CA8DE807006A460921184601F088FDC8
:103E00000EBD0000B8AAB38DB4980D355D0000005A
:103E1000B8AAAAAAB088C3C5C700000008B560B197
:103E2000C0208DF80000C2208DF80100C4208DF85C
:103E30000200C6208DF8030004E08B2204216846AE
:103E4000FCF712FA6A46042140F6982001F060FD62
:103E500001F026FA08BD0000C8234FF48062024931
:103E600040F6F63001F0FEB8586D00082DE9FF4F1E
:103E700089B01746DDE9165200244D4E884681462A
:103E80002C80A246B07B694601F098F94FF0FF3BC9
:103E900018B158460DB0BDE8F08F708910F0140FBE
:103EA0003CD0009909BA21F0FF039DF803100B43A1
:103EB0003B6001991B1409BA21F0FF029DF807101D
:103EC0005B430A437A6002999DF80B4009BA21F0DE
:103ED000FF012143B960039C091424BA24F0FF0CAC
:103EE0009DF80F4012144CEA040CC7F80CC04FEABE
:103EF0002C47494302FB023207FB071111441024EF
:103F0000A1F17061B1F1007F04D901F0C9F9A5F800
:103F100000A0BEE7298841F48071298042066946E5
:103F200011D50A19A41D13885BBAA8F8003053886C
:103F30005BBAA8F80230928852BAA8F804202A88FE
:103F400042F008022A8010F4C07F11D00A19A41D83
:103F500013885BBAA9F8003053885BBAA9F802301D
:103F6000928852BAA9F804202A8842F070022A8066
:103F7000800716D00C44E07800F0C00500F03F0147
:103F80006078C00706D0C80801F007013268491CF4
:103F900002B190476078000703D5716809B1A8099C
:103FA0008847FCF76BFD0C990860002072E7000061
:103FB000EC0100202DE9FF41044603A800F03AFF80
:103FC000BDF80C00410CC30300BF2F48028902F06A
:103FD0000300550754F8200000D54042C2F3C10544
:103FE000960654F8255000D56D42C2F38116D205CD
:103FF00054F8264000D56442A0FB0367C21702FBB9
:10400000037200FB0120820042EA9670A5FB036761
:10401000EA1702FB037205FB0122950045EA96723E
:10402000A4FB0367E51705FB037304FB01318B0059
:1040300043EA9671030E8DF80030030C8DF80130C1
:10404000030A8DF802308DF80300100E8DF804007D
:10405000100C8DF80500100A8DF80600080E8DF87A
:104060000800080C8DF80900080A8DF80A008DF880
:1040700007208DF80B106A460C214FF4257001F0D3
:1040800047FC04B0BDE8F081EC01002030B50446E7
:1040900013A285B007CA8DE807004FF0FF35C82C82
:1040A00016D8C820B0FBF4F1491E080A8DF80C00A0
:1040B0008DF80D1003AA022140F2162001F028FC11
:1040C00030B96A460C2140F6C12001F021FC10B144
:1040D000284605B030BD054884810020F9E700007E
:1040E000FEF2ABC4AAF1DFDFBBAFDFDFEC010020E3
:1040F000F8B53049098901F0030250F822404A0717
:1041000000D56442C1F3C1028B0650F8222000D5CD
:104110005242C1F3811350F82330C80500D55B42E9
:10412000254984FB0140850045EA947082FB0142E9
:10413000A40F44EA820483FB0121950F45EA81051F
:10414000010E8DF80010010C8DF80110010A8DF898
:1041500002108DF803006A4604214FF4747001F0D8
:10416000D7FB4FF0FF3688B9200E8DF80000200CE9
:104170008DF80100200A8DF802008DF803406A4690
:1041800004214FF4757001F0C3FB08B13046F8BD4F
:10419000280E8DF80000280C8DF80100280A8DF8F3
:1041A00002008DF803506A4604214FF4767001F046
:1041B000AFFBF8BDEC01002009E3CA022DE9FF4185
:1041C00004463CA004F00303006802903AA0006893
:1041D00003903AA006683AA0056802A8C15C8DF871
:1041E0000010C4F3C101425C8DF80120C4F38112B8
:1041F000805C8DF8020003A8C35C8DF80430415C3C
:104200008DF80510805C8DF806006A46032140F2A7
:10421000264001F07DFB4FF0FF37E0BB01AA0321F0
:1042200040F22A4001F074FBA8BBCDE900656007AD
:104230000BD59DF8000040F001008DF800009DF8BE
:10424000040040F001008DF80400A0060BD59DF895
:10425000010040F001008DF801009DF8050040F0DC
:1042600001008DF80500E0050BD59DF8020040F037
:1042700001008DF802009DF8060040F001008DF865
:1042800006006A4603214FF4886001F041FB10B933
:1042900001AA032100E004E040F2314001F038FBC4
:1042A00018B1384604B0BDE8F0810648048100200A
:1042B000F8E700004CCD6C000CC92C003656760097
:1042C00026466600EC0100204FF47A7290FBF2F073
:1042D00008B54843010E8DF80010010C8DF801104F
:1042E000010A8DF802108DF803006A4604214FF48C
:1042F000AE7001F00DFB08BD0521B0FBF1F008B573
:10430000010A8DF800108DF801006A4602214FF471
:10431000AD7001F0FDFA08BD0521B0FBF1F008B564
:10432000010A8DF800108DF801006A4602214FF451
:10433000AC7001F0EDFA08BD08B500218DF8001051
:10434000C10702D030218DF80010810705D59DF8F6
:10435000001041F00C018DF80010400705D59DF8C4
:10436000000040F003008DF800006A4601214FF480
:10437000A47001F0CDFA08BD08B560B1042800D9D9
:104380000420401E8DF800006A46012140F24F10C3
:1043900001F0BEFA08BD0120F3E700002DE9FC4161
:1043A000054640074FF0FF367CD0B1F5C86F79D88D
:1043B000084602F031FA3E4902F018F9074601A812
:1043C00000F01AFD9DF80400022806D004280DD044
:1043D00008282ED0102865D134E00E21384602F08E
:1043E00036FC02F0E1F984B2324907E00D2138468B
:1043F00002F02DFC02F0D8F92F4984B2384602F0C1
:1044000053FA02F0D1F9210A8DF8001080B28DF82C
:104410000140010A8DF802108DF80300E8076C4690
:1044200020D0224602214FF4EA7001F071FAC8BB95
:1044300011E00C21384602F00AFC02F0B5F984B212
:104440001E49DBE70B21384602F001FC02F0ACF913
:1044500084B21B49D2E7A21C02214FF4927001F0F2
:1044600057FAF8B9A8070DD56A4602214FF4EC7047
:1044700001F04EFAB0B9A21C02214FF4947001F081
:1044800047FA78B9680710D56A4602214FF4EE70F2
:1044900001F03EFA30B9A21C02214FF4967001F0EF
:1044A00037FA10B13046BDE8FC810020FBE7000080
:1044B00000004843000040460000C0450000404561
:1044C0000000C0440521B0FBF1F008B5010A8DF8E9
:1044D00000108DF801006A4602214FF4EF7001F0E0
:1044E00017FA08BD0521B0FBF1F008B5010A8DF8F7
:1044F00000108DF801006A4602214FF4ED7001F0C2
:1045000007FA08BD2DE9FE430646264801AB042202
:1045100040680D21007800F09DFA10B10720BDE839
:10452000FE839DF804101C2000EAD1029DF80710BC
:10453000DFF87490C1F301131A438DF800209DF841
:104540000520C1F3810300EAD2021A438DF801204D
:104550009DF8062001F0030100EAD2000843002480
:10456000124F8DF80200A0466D46285D10B146F846
:1045700024900AE046F824800DE000BF56F824009D
:10458000394602F091F946F82400285D401E10F0EB
:10459000FF002855F2D1641CE4B2032CE5D30020BF
:1045A000BDE700001C0000207B14AE3E1D5A843F76
:1045B0002DE9FE4F05460120C14E8DF800004FF059
:1045C00000088DF8018030680C461746417D706800
:1045D0006B460222007800F0B1FA4FF0FF3A002853
:1045E0007AD1C820FCF784F88DF8008030686B46DB
:1045F0000122417C7068007800F0A0FA0028EFD119
:1046000030686B46012241797068007800F096FAB4
:104610000028E5D130686B460122417D7068007842
:1046200000F08CFA0028DBD130686B460122817ED5
:104630007068007800F082FA0028D1D130686B46AB
:10464000012201797068007800F078FA0028C7D15B
:104650004FF00C098DF8009030686B46012201790B
:104660007068007800F06AFA002835D10F20FCF756
:104670003FF8B06A6B460122407A8DF8000030683E
:1046800081787068007800F059FA002824D1B06A67
:104690006B460122007A8DF800003068417870681E
:1046A000007800F04BFA002873D1B06A807A0FB11D
:1046B00040F0E0008DF8000030686B4601228179FF
:1046C0007068007800F03AFA002862D12FB1B06A21
:1046D000C07A40F0E00001E04AE018208DF80000C8
:1046E00030686B460122C1797068007800F026FAC4
:1046F000F0BB17B1C820FBF7FBFF40208DF800008E
:1047000030686B46012201797068007800F016FA73
:1047100070BB78208DF8000030686B46012241792B
:104720007068007800F00AFA10BB3220FBF7E0FF57
:104730008DF80080306847466B46417970680122E9
:10474000007800F0FBF998B931687068B046097BD1
:1047500000786B46022200F07DF948B9BDF80000F0
:10476000AF6040BAB0FBF9F06F60C6B22F6000E0F6
:104770000FE0A76067602760002739E0D8F80010D5
:10478000D8F804006B46497B00780C2200F062F9EF
:1047900010B15046BDE8FE8FBDF80000236840BA56
:1047A00002B2BDF80200BDF804101A44226040BAFB
:1047B000626800B21044606049BAA06809B2084457
:1047C000A060BDF806002B6840BA02B2BDF8080030
:1047D0001A4440BA01B2BDF80A002A606A6840BAB9
:1047E00011446960A96800B208447F1CFFB2A86048
:1047F000B742C3D328688322C117090441EA104194
:1048000000040023FBF7E0FC32460023FBF7DCFC4E
:10481000286068688322C117090441EA1041000436
:104820000023FBF7D1FC32460023FBF7CDFC686088
:10483000A8688322C117090441EA1041000400233B
:10484000FBF7C2FC32460023FBF7BEFCA8602068E1
:104850004FF40065C117090441EA104100042A46DB
:104860000023FBF7B1FC32460023FBF7ADFC2060D0
:1048700060682A46C117090441EA10410004002378
:10488000FBF7A2FC32460023FBF79EFC6060A068A9
:104890002A46C117090441EA104100040023FBF72E
:1048A00093FC32460023FBF78FFCA060002802DD5A
:1048B000A0F5803001E000F58030A060002069E7BD
:1048C0001C0000202DE9F84F81462E48884600251F
:1048D00040686B46032200780D2100F0BBF810B150
:1048E0000720BDE8F88F9DF80000002400F01F00AD
:1048F0008DF800009DF801006FF00F0B00F01F0015
:104900008DF801009DF802006E4600F01F008DF842
:1049100002004FF0010A00BF59F8241058F8240093
:10492000081A00D5404201F05FFF594602F08FF9A6
:104930000746305DC0B1144802E0144901F0B4FFED
:10494000315D491E11F0FF013155F6D1014638465F
:1049500001F04CFE4FF07E5102F0A4F80C4920F01B
:104960000040884205DC07E00A483844B0F1D97FAE
:1049700002D90AFA04F00543641C032CCCDB284658
:10498000AFE700001C0000200000C84154E3853F51
:10499000295C0F3E0000E0BE2DE9F04186B04020CA
:1049A000112700244FF00308CDE90007274DCDE97A
:1049B000024869462846FBF75FFF00260022402197
:1049C0002846FCF756F804940498401C04900528E7
:1049D000FADB012240212846FCF74BF804940498A6
:1049E000401C04900528FADB761C092EE6DB8020AB
:1049F000CDE9000769462846FBF73EFF01228021EA
:104A00002846FCF736F804940498401C04901428B7
:104A1000FADBC0200090122001906946CDF80C808E
:104A20002846FBF729FF0A48016821F001010160CF
:104A300004940499491C04910A29FADB016841F0A5
:104A40000101016006B0BDE8F0810000000C0140EA
:104A5000005400403EB54000CDE900320A4605242E
:104A60000146029401230848FCF7ECF807490400CA
:104A700005D00888401C088000F00AF801E00020FA
:104A8000088020463EBD0000B00000201800002035
:104A900030B525488DB00188032938D3002404801F
:104AA000FFF77AFF8020CDE900040120CDE9020460
:104AB0001E4D69462846FBF7DFFE08940898401C07
:104AC00008901428FADB80212846FBF7C5FF00B3C5
:104AD000C02004901220CDE905040320079004A90A
:104AE0002846FBF7C9FE1248016841F40041016005
:104AF00008940899491C08911429FADB016821F4EB
:104B0000004101600B48FBF7BFFFFDF7C5FE0DB08C
:104B100030BD094B08AC0FCB84E80F0008A928462C
:104B2000FBF7AAFEF3E7000018000020000C01408C
:104B300000540040B0000020F46C00083EB5400076
:104B4000CDE900320A4605240146029401230848B3
:104B5000FCF7A6F90749040005D00888401C088026
:104B6000FFF796FF01E00020088020463EBD0000D0
:104B7000B00000201800002090F90010002902DD8C
:104B80004FF00000704702DA4FF00400704790F9D0
:104B90000110002902DD4FF00100704702DA4FF0EA
:104BA0000500704790F90200002802DD4FF0020076
:104BB000704702DA4FF0060070474FF00700704769
:104BC00088B0FCF757FAFEF7D4FAFDF7F9FDFDF7C8
:104BD000A7FEFDF70FFFFDF75FFEFDF77DFEFDF77A
:104BE0005BFCFBF735FD4FF4FA60FBF781FDFDF749
:104BF00037FFFBF7EDFC5B48FCF780FF3220FBF74B
:104C000077FDFEF7ADF9584F00243C70574D4FF437
:104C10000056387801280FD055A1D1E90001CDE91F
:104C200000016846FEF7E4F831462846FBF719FF15
:104C30009620FBF75DFDECE7BA463C7000274FF489
:104C40009678012231462846FBF713FF4046FBF7D2
:104C50004FFD002231462846FBF70BFF4046FBF78D
:104C600047FD7F1C032FECDB00224FF400513F482F
:104C7000FBF7FFFE404D414FDFF80491DFF8048160
:104C8000414E687878B36C7001202870FDF756FCAF
:104C90003E48B0F9000001F0A7FD06903C48B0F98D
:104CA000000001F0A1FD83463A48B0F9000001F090
:104CB0009BFDDFF8E4C0394B394ADCF800C01B68C3
:104CC00012683968CDE90212CDE9043CD9F8002018
:104CD000D8F80010CDE90012B6F900305946069A0E
:104CE000FBF7D6FB2C709AF800105046012907D12B
:104CF0000470FEF74FF94FF400511C48FBF7B1FE6A
:104D0000FBF7BCFE6968401A3228BAD9FBF7B6FE39
:104D10006860BB208DF80000D8F8000001F028FD85
:104D20008DF80100D9F8000001F022FD8DF8020095
:104D3000386801F01DFD8DF8030030888DF80400FF
:104D4000000A8DF805008DF806408DF8074068468A
:104D5000FDF796FF202894D101020448FBF781FE5D
:104D60008FE70000A40100209E00002000100140F9
:104D7000BB22334455667788000000206C00002079
:104D80006400002068000020A6000020A40000208D
:104D9000A2000020A000002084000020800000204D
:104DA0007C0000202DE9F041124C20F0010100258B
:104DB00094F8240010B10020BDE8F081A07A4FF0F3
:104DC000FF3668B10840277C2074884200D0354601
:104DD00041B1012000F004FE00F062FA38B12774FE
:104DE0003046E9E7207D00B1012000F0F9FD2846BA
:104DF000E2E700001C0000200D494A7A42B1012A76
:104E000008D0022A0FD0032A0FD04FF0FF3070478E
:104E1000022200E004220270C97C11B11106C90D02
:104E20000170002070470822F5E71022F3E7000028
:104E30001C0000200F494A7A42B1012A09D0022AF7
:104E400011D0032A12D04FF0FF3070474FF4804248
:104E500001E041F69C720280C97C11B1C2F34E019F
:104E60000180002070474FF48052F4E74FF4006255
:104E7000F1E700001C0000200B49097A39B1012933
:104E800007D002290AD003290BD0002103E0FA2120
:104E900001E04FF4FA710180002070474FF47A71FD
:104EA000F9E74FF4FA61F6E71C0000200A49097A95
:104EB00041B1012908D002290AD003290AD04FF0B4
:104EC000FF307047054900E0054901600020704748
:104ED0000449FAE70449F8E71C00002000000343F6
:104EE0000000834233330342333383410C49C97A90
:104EF000072913D2DFE801F01204060A0C0E100095
:104F0000BC2100E062210180002070472A21FAE7DD
:104F10001421F8E70A21F6E70521F4E70021F2E77A
:104F20001C000020054991F8242012B14FF0FF30F9
:104F30007047C98901800020704700001C000020D4
:104F40002DE9FC41464C80208DF8000020686B461E
:104F50000122417D60680078FFF7F0FD4FF0FF37D8
:104F6000002875D16420FBF7C3FB00258DF80050A5
:104F700020686B460122417D60680078FFF7DEFD06
:104F8000002865D120686B460622417E6068007863
:104F9000FFF760FD00285BD19DF805009DF8031028
:104FA000C007400F01F0010140EA41009DF80110E7
:104FB0004FF0010601F00101084304D0012831D06F
:104FC000022810D044E020686B460122C178606856
:104FD0000078FFF73FFDD8BB9DF8000010F00F00F0
:104FE00036D004281ED0E574FF2004F80A0F4FF6CF
:104FF000FF7104F8020C04F8010C6070A180A0712C
:105000002072A67026766576E572A572E560256148
:105010006561A576E576A5834FF4FA6000F03EFB66
:10502000B0B901E0E674DFE7022000F059FA78B980
:105030002A2000F09BFB58B9322000F0CDFB38B994
:105040000020FFF7AFFE18B9002000F07DFA10B184
:105050003846BDE8FC81002000F0FEFB0020F8E7A8
:105060001C0000202DE9FF4FDFF89480064685B034
:1050700098F8250015460F464FF0FF39B0BBAFB387
:10508000002420E0301B102800DD102080B2834671
:105090003A1901469246204600F03AFC30BB6A4677
:1050A0005946204600F0D2F800BB50465A466946A1
:1050B000FBF7AEF820B16FF0010009B0BDE8F08F4A
:1050C00004EB0B0084B2B442DCD3280A8DF8100044
:1050D0008DF81150D8F80000444604AB417FD8F851
:1050E000040002220078FFF729FD08B14846E4E7F2
:1050F000012084F825000898E0840020DDE7000006
:105100001C0000202DE9F84305464FF0FF39282800
:1051100044D80727284C00267DB1012000F0F4FA7E
:1051200020208DF800004FF00108012D17D0052D2B
:1051300018D88DF8018005201FE0002000F0E4FA67
:105140008DF800608DF8017020686B460222417D69
:1051500060680078FFF7F2FC00BB267529E08DF847
:105160000160E8E7142D04D802208DF801000A2020
:1051700003E003208DF80100142000F0F7FA9DF8F9
:1051800001006B4607EB80108DF8010020680222B9
:10519000417D60680078FFF7D1FC10B14846BDE85A
:1051A000F8830820A072267384F814800020FFF78B
:1051B000F9FD0020F3E700001C0000202DE9F84372
:1051C000214C0646174694F8240089464FF0FF38D4
:1051D00090B3A07A80B320686B460222017B60689E
:1051E0000078FFF737FC38BBBDF8000045BAB54280
:1051F00002D2002038701FE060684188B5EB510F83
:1052000011D9216800786B46C97C0122FFF722FC86
:1052100090B99DF80000C00605D500F041F86FF088
:105220000100BDE8F8832068F2B24B46417B60681C
:105230000078FFF70FFC08B14046F2E7B5FBF6F047
:10524000401E38700020ECE71C000020F8B5160066
:105250000D464FF0FF371FD0104CA17AE1B1010A83
:105260008DF80010C0B28DF80100411960684289C4
:10527000914211D8216800786B46C97E0222FFF75F
:105280005DFC48B92068EAB23346017E6068007868
:10529000FFF7E0FB002800D03846F8BD1C000020D6
:1052A000F8B5564C4FF0FF36A07A00287DD0002587
:1052B0008DF8005020686B460122417C60680078C0
:1052C000FFF73CFC002870D120686B460122417931
:1052D00060680078FFF732FC002866D120686B46D2
:1052E0000122017960680078FFF728FC00285CD172
:1052F00094F82400E0B30C208DF8000020686B4681
:105300000122017960680078FFF718FC002872D14B
:105310003220FBF7EDF9C0208DF80000A07AC0071D
:1053200002D0E0208DF8000020686B460122017950
:1053300060680078FFF702FC00285CD1607C18B13F
:1053400002208DF8000001E08DF8005020686B46C7
:105350000122417C60680078FFF7F0FB28BB8DF8E4
:10536000005020686B4601224179606800783EE079
:10537000FFE704208DF8000020686B4601220179C8
:1053800060680078FFF7DAFB78B9A07C90B9A07A62
:10539000C0070FD05FF060008DF8000020686B46FA
:1053A000012201796068007800E024E0FFF7C6FB85
:1053B00008BB01E04020EFE73220FBF799F9607C61
:1053C00018B101208DF8000001E08DF80050206830
:1053D0006B460122417C60680078FFF7AFFB50B953
:1053E0002068064B01224179606810330078FFF78E
:1053F000A5FB002800D03046F8BD00001C000020AE
:105400002DE9F047354C82468AB094F8240089464D
:1054100020B1002000F006F9012500E0002507A8D2
:10542000FFF72AFD06A8FFF7E7FC09A8FFF75EFDD6
:1054300008A8FFF777FD94F80A80277C0026002251
:1054400049465046FFF7B4F810B1761C022EF6DB41
:10545000022E13D00026012203A96846FFF7A8F800
:1054600010B1761C022EF6DB022E07D003A94846A7
:10547000FEF764F869465046FFF724FA00224946D1
:105480005046FFF795F8FF2020726072E0724FF6E9
:10549000FF71E181A0722074012020730726BDF8FE
:1054A0001C0000F0FBF89DF8180000F019F8BDF89A
:1054B000240000F05BF9BDF8200000F08DF94046B3
:1054C00000F0CAF93846FFF76DFC15B1012000F075
:1054D000A9F80AB03046BDE8F08700001C000020A3
:1054E00038B5184C4FF0FF35A17A19B3022806D011
:1054F000042806D008280ED010281BD10DE000206B
:1055000000E008208DF80000607A9DF80010B0EBF4
:10551000D10F04D005E01020F4E71820F2E70020B6
:1055200038BD20686B460122C17960680078FFF7BA
:1055300005FB08B1284638BD9DF80000C008607220
:10554000EDE700001C000020F8B5354C0546A07CB6
:10555000A84201D10020F8BD31484FF0FF366B461C
:10556000D0E900104FF001020979007835B3FFF758
:1055700071FA70BB9DF800006B4620F020008DF89A
:10558000000020680122017960680078FFF7D6FAF0
:10559000F8B90320FBF7ACF802208DF8000094F86E
:1055A000220078B382202BE020686B460122C17D67
:1055B00060680078FFF7C2FA58B92EE0FFF74AFAA0
:1055C00038B9A07AC0079DF8000003D040F0200051
:1055D00002E00CE020F020008DF8000020686B460F
:1055E0000122017960680078FFF7A8FA08B1304617
:1055F000F8BD0320FBF77CF894F8220000B180206E
:105600008DF8000094F823000028CDD09DF800000C
:1056100040F030008DF80000C6E7A5749AE700005E
:105620001C00002038B51C4C94F8241081421DD079
:10563000002500B394F82500D0B1002000F0D0F987
:105640000020FFF781FFE08C00F0C6F88DF80050D5
:1056500060686B46012200782321FFF76FFA012072
:1056600084F8240000F0BCF9FFF71AFE002038BDD2
:105670004FF0FF3038BD002000F0B2F9207C8DF8EB
:10568000000060686B46012200782321FFF756FA7C
:1056900084F82450E8E700001C00002038B5194CBD
:1056A0004FF0FF35A17A31B3FA2809D0B0F5FA7F6F
:1056B00008D0B0F57A7F0FD0B0F5FA6F1BD10DE0AE
:1056C000002000E008208DF80000207A9DF80010EE
:1056D000B0EBD10F04D005E01020F4E71820F2E77A
:1056E000002038BD20686B4601228179606800780F
:1056F000FFF724FA08B1284638BD9DF80000C0081D
:105700002072EDE71C00002038B5174C054694F8D0
:105710002300A84201D1002038BD0DB1302000E0A7
:1057200000208DF80000A07C28B19DF8000040F01A
:1057300002008DF8000094F8220028B19DF80000C6
:1057400040F080008DF8000020686B460122C17D8A
:1057500060680078FFF7F2F910B14FF0FF3038BD04
:1057600084F82350D7E700001C00002038B5194CFE
:105770004FF0FF35A17A31B3BC2801D3012010E0EE
:10578000622801D302200CE02A2801D3032008E07C
:10579000142801D3042004E00A2801D3052000E0E6
:1057A00006208DF80000E07A9DF80010884201D1B3
:1057B000002038BD20686B4601228178606800783F
:1057C000FFF7BCF908B1284638BD9DF80000E0722B
:1057D000EEE700001C000020F8B51E4D04464FF017
:1057E000FF37A87A48B395F8240030BB287D4FF4E2
:1057F0007A7648B164B1282C03D8E0B2FFF782FC76
:1058000026E00020FFF77EFC042C05D2042406E0ED
:105810000020FFF777FCF9E7B44200D93446B6FB25
:10582000F4F0401E8DF8000028686B460122417894
:1058300068680078FFF782F908B13846F8BD9DF82E
:105840000000401CB6FBF0F0E8814008FFF78EFF37
:105850000020F8BD1C000020F8B5054610F0700FC0
:105860004FF0000601D0012004E015B18DF8006072
:1058700002E040208DF80000244C6B460122206895
:10588000417D60680078FFF759F94FF0FF3760BB42
:105890009DF8000020F0400020738DF8006068063D
:1058A00002D404208DF80000A80605D49DF800005D
:1058B00040F002008DF80000E80605D49DF80000D5
:1058C00040F001008DF80000280705D49DF8000085
:1058D00040F038008DF8000020686B460122817D81
:1058E00060680078FFF72AF910B1A6723846F8BD53
:1058F00025B1082D02D00020FFF706FFA5722675FE
:105900003220FAF7F5FE0020F8BD00001C00002050
:10591000F8B516000D464FF0FF371FD0104CA17A96
:10592000E1B1010A8DF80010C0B28DF801004119F3
:1059300060684289914211D8216800786B46C97E1F
:105940000222FFF7FBF848B92068EAB23346017E2D
:1059500060680078FFF7F2F8002800D03846F8BDFC
:105960001C00002010B588B0694604A8FFF748FD68
:10597000072832D107A8FFF799FA049800F034FFFE
:1059800007990C4600F090FF00F0F2FE0490059895
:1059900000F02AFF214600F087FF00F0E9FE0590A5
:1059A000069800F021FF214600F07EFF00F0E0FEA7
:1059B000069004A8FEF79CFB03A8FFF73BFABDF88E
:1059C0000C000099414300910199414301910299D2
:1059D000414368460291FEF7EDFA08B010BD0000A1
:1059E000F8B5144C0146224694F82460D2E900022E
:1059F00000235D1E56B179B1022111E0417C10787F
:105A00006B460122FFF79AF868B90EE0A67A56B104
:105A100011B1617C61B902E08DF80030EEE701213F
:105A20008DF80010EAE72846F8BD9DF80000607484
:105A30000020F8BD1C0000202DE9F04106460F466D
:105A400000F064FB041E0D4618BF0120284320F01F
:105A50000040C0F17F6000F1E040C00F0ED0301C6C
:105A600018BF0120384320F00040C0F17F6000F1F2
:105A7000E040C00F04BF0120FAF7C6FC20462946CB
:105A8000BDE8F08121F00042A2F16052B2F5801F22
:105A900001F0004328BFD2F17F6C0BD95FEA001CF4
:105AA00043EAC20242EB507018BF704728BF20F093
:105AB00001007047B2F5801FBCBF184670474FEA1F
:105AC000410C1CF5001F02D2084600F0B4BF70B5AF
:105AD00000F0BCFA00000089FFF7F6BF4FF000406D
