:020000040800F2
:1000000088230020B5010008254500085D27000869
:1000100009370008950500086D4D00080000000034
:10002000000000000000000000000000114D00086A
:10003000A108000800000000314900083D4D0008FB
:10004000CF010008CF010008CF010008CF01000850
:10005000CF010008CF010008CF010008CF01000840
:10006000A5080008CF010008CF010008CF01000853
:10007000CF010008CF010008CF010008CF01000820
:10008000CF010008CF010008CF010008CF01000810
:10009000CF010008CF010008CF010008CF01000800
:1000A000CF010008CF010008CF010008CF010008F0
:1000B000614D0008CF010008CF010008CF01000802
:1000C000CF010008CF010008CF010008CF010008D0
:1000D000CF010008CF010008CF010008CF010008C0
:1000E000CF010008CF010008CF01000800F002F89E
:1000F00000F050F814A696E8000CB244B344DA4578
:1001000001D100F047F8BAE80F000FA696E83000DA
:10011000A5EB040504EB0607AAEB0704A7F101070A
:100120004FEA15154FEA3414A4F10104AC4201D38F
:1001300000F030F813F0010F18BFFB1A43F0010371
:1001400000F001F8DBE718479CAE0000BCAE0000F1
:10015000103A24BF78C878C1FAD8520724BF30C8F3
:1001600030C144BF04680C60704700007047000055
:100170000023002400250026103A28BF78C1FBD8B0
:10018000520728BF30C148BF0B6070471FB51FBD65
:1001900010B510BD00F0C8F91146FFF7F7FF05F0E4
:1001A0007BFF00F0E6F903B4FFF7F2FF03BC00F0B9
:1001B000E9F900000948804709480047FEE7FEE7E3
:1001C000FEE7FEE7FEE7FEE7FEE7FEE7FEE7FEE707
:1001D00004480549054A064B704700005D4D00087C
:1001E000ED000008881D002088230020881F0020C3
:1001F000881F002053EA020C23D010B54C1084EA6B
:10020000530404D54042C1F1000138BF491E1B42CE
:1002100004D55242C3F1000338BF5B1E00F0C7F89B
:1002200014F0804F04D04042C1F1000138BF491E94
:1002300014F0004F04D05242C3F1000338BF5B1EDC
:1002400010BD13B540424FF0000070EB0104B8BF81
:10025000012001F0004100281CBF6FF000414FF069
:10026000FF30AFF300801CBD40EA010310B59B07CF
:100270000FD1042A0DD310C808C9121F9C42F8D010
:1002800020BA19BA884201D9012010BD4FF0FF30C1
:1002900010BD1AB1D30703D0521C07E0002010BDD7
:1002A00010F8013B11F8014B1B1B07D110F8013B63
:1002B00011F8014B1B1B01D1921EF1D1184610BD44
:1002C000032A40F2308010F0030C00F0158011F882
:1002D000013BBCF1020F624498BF11F801CB00F85A
:1002E000013B38BF11F8013BA2F1040298BF00F8AE
:1002F00001CB38BF00F8013B11F0030300F0DA80B6
:10030000083AC0F0088051F8043B083A51F804CB91
:10031000A0E80810F5E7121D5CBF51F8043B40F857
:10032000043BAFF30080D20724BF11F8013B11F862
:1003300001CB48BF11F8012B24BF00F8013B00F8A6
:1003400001CB48BF00F8012B704702F0FF0343EADE
:10035000032242EA024200F002B84FF0000200B568
:10036000134694469646203922BFA0E80C50A0E8D8
:100370000C50B1F12001BFF4F7AF090728BFA0E886
:100380000C5048BF0CC05DF804EB890028BF40F852
:10039000042B08BF704748BF20F8022B11F0804F94
:1003A00018BF00F8012B704770477047704753EA39
:1003B000020C00F069802DE9F04B4FF00006002B95
:1003C0001FBFB3FA83F503FA05F424FA05F65E407D
:1003D00012BF1643B2FA82F502FA05F4C5F1200500
:1003E0001EBF22FA05FC44EA0C04203556EA044CF0
:1003F0004FEA144418BF641C4FF000084FF0000986
:10040000904271EB030C39D3002919BFB1FA81F77F
:1004100001FA07F6B0FA80F700FA07F6C7F12007ED
:100420001EBF20FA07FC46EA0C062037B6FBF4FC98
:10043000A7EB0507103F07F01F0BCBF120062CFAA6
:1004400006F60CFA0BFB44BFB3460026202FA4BFD0
:100450005E464FF0000B5BEA060C08BF4FF0010B45
:1004600019EB0B0948EB0608ABFB027C06FB02CC40
:100470000BFB03CCC01B71EB0C01C1E70B46024622
:1004800041464846BDE8F08B13B5084318BF4FF00E
:10049000FF300146AFF30080BDE81C40704710B547
:1004A00000F03AF8006810BD10B5044600F034F8CA
:1004B000046010BD10B5203AC0F00B80B1E81850B0
:1004C000A0E81850B1E81850A0E81850203ABFF43E
:1004D000F5AF5FEA027C24BFB1E81850A0E81850DD
:1004E00044BF18C918C0BDE810405FEA827C24BF31
:1004F00051F8043B40F8043B08BF7047D20728BFBF
:1005000031F8023B48BF11F8012B28BF20F8023B0D
:1005100048BF00F8012B7047004870474800002092
:1005200000487047480000207546FFF7F9FFAE46C7
:1005300005006946534620F00700854618B020B5EF
:10054000FFF746FEBDE820404FF000064FF00007E1
:100550004FF000084FF0000BAC46ACE8C009ACE827
:10056000C009ACE8C009ACE8C00921F007018D461C
:10057000704710B50446AFF300802046BDE8104038
:10058000FFF711BE01491820ABBEFEE726000200AE
:1005900070470000FEE700002DE9F04F81B099465A
:1005A00014468A46054609F09FFB83465046594645
:1005B00009F0EAF92146009009F088FD494609F062
:1005C000E3F909F0B5F90646A5F57A700F4608F08B
:1005D000ACFF49F69A1249F69913C9F69912C3F677
:1005E000C97308F0B9FF32463B4608F0C7FE08F071
:1005F0006DFF804640F25840C2F20000A0F8008033
:1006000006465846514609F061FD2146054609F067
:100610005DFD494609F05AFD09F04AFB82467080AB
:1006200000982146B34609F0AFF9494609F04EFD5E
:1006300009F03EFB0646ABF804002846214609F0C7
:10064000A3F9494609F0A0F909F032FB07465846DC
:10065000B8F57A7FABF8067002DA4FF47A7804E0E6
:10066000B8F5FA6F03D94FF4FA68A0F80080BAF52C
:100670007A7F03DA4FF47A7A05E000BFBAF5FA6FB1
:1006800003D94FF4FA6AA0F802A0B6F57A7F03DA2C
:100690004FF47A7605E000BFB6F5FA6F02D94FF451
:1006A000FA668680B7F57A7F02DA4FF47A7704E04B
:1006B000B7F5FA6F02D94FF4FA67C78040F6E41035
:1006C000C2F2000090F8A000012805D101B0BDE8F9
:1006D000F04F03F081B800BF1FFA88F009F01CFB4F
:1006E00004461FFA8AF009F017FB0546B0B209F07C
:1006F00013FB0646B8B209F00FFB03462046294615
:10070000324601B0BDE8F04F03F018B82DE9F047CC
:1007100082B040F2381540F2000840F20009C2F2FF
:100720000005C4F26008C4F2C8294FF0000A284648
:1007300041464FF07E520023CDE900A904F0ECF8C9
:1007400005F1340046F2666500270024C3F666759D
:10075000C4F27A37C4F24824294600220023CDE9A6
:10076000004704F0D9F840F27C26C2F20006304679
:1007700041464FF07C520023CDE900A904F0CCF8AB
:1007800006F13400294600220023CDE9004704F099
:10079000C3F840F26040C2F200004146002200234C
:1007A000CDE9004704F0B8F802B0BDE8F0870000DA
:1007B00070B588B040F2C804C2F20004002044F8CA
:1007C000540FA081C4E9010068207521012223464D
:1007D00005F0C6F82078682860D1002005F0CCFD2F
:1007E00010B108B070BD00BF782006F041FC782041
:1007F00005F00CFDC82006F097FB04F01FFCAC20B0
:1008000004F00EFE40F2731004F0C8FAC82004F0A1
:100810005FFD05A802A906F01FF9072838D101A835
:1008200005F082FDDDE90506079C09F05DFA019DF2
:100830000146284609F0ECFA09F03AFA05903046EC
:1008400009F052FA0146284609F0E2FA09F030FAB6
:100850000690204609F048FA0146284609F0D8FAE1
:1008600009F026FA079005A804F06AFD0DF10200D0
:1008700005F03AFD02ABBDF802000ECB41430291F8
:1008800002FB00F15843049002A8039104F0BEFC5F
:10089000012006F08BFA08B070BD00BF04F068FAC2
:1008A00070470000042000F0C1B80000EFF3108092
:1008B00072B600BFFEE70000B0B5044600F0DEF9F6
:1008C000054640F20000C2F200000078611C18BF2B
:1008D000044400BF00F0D2F9401BA042FAD3B0BDDF
:1008E000002908BF70472DE9F04F81B040F2004E5B
:1008F00041F20042C4F2010EC4F2010290424FF0F4
:1009000004024FF000046FF01F05AEF57E774FF044
:100910000F0808BF0322009219E000BF0246BBF592
:10092000807F24BF0432AA46136808FA0AF6B3434C
:10093000042606FA0AF633431360C26802EA0C0280
:10094000C260013431FA04F205F104054ED00122EF
:10095000A24012EA010BF4D024F00302BE5840F684
:100960000002C4F20102904210D040F60042C4F2EC
:100970000102904208D041F20002C4F2010290420A
:10098000009A08BF022202E0012200E0002205F1E5
:10099000200A0AF00C0308FA03F906EA09069A404D
:1009A00096426FEA0B0CB9D1DEF8002040F20C43FE
:1009B00002EA0C02CEF80020DEF80420C4F20103A3
:1009C00002EA0C02CEF804201A6802EA0C021A604D
:1009D000DEF80820A30802EA0C02CEF8082057F837
:1009E000232022EA090247F8232097E701B0BDE857
:1009F000F04F7047042818BF7047B0B5072003F0C8
:100A000057F9044640060AD540F6E415C2F200053F
:100A100061202946082203F0FFF8012028720720F0
:100A20002146BDE8B04003F045BD000040F214414E
:100A3000C4F201010A68024214BF08607047FFF760
:100A4000D9BF00002DE9F04F82B00E68002E00F0F3
:100A5000FD8041F20042C4F20102042340F2004E44
:100A6000904208BF03234FF6FF7CC4F2010E0093AF
:100A700000240123C1F2100C4FF0000A4FF00009CE
:100A80004BE000BF41F20002C4F20102009F90421D
:100A900008BF022704F00C030F229A402BEA02023F
:100AA00007FA03F34FEA9A051A4346F825204E68E1
:100AB00040F20C45F202DEF8082054BF22EA080298
:100AC00042EA0802C4F20105CEF808202A68B302FF
:100AD00054BF22EA080242EA08022A60B303DEF8A1
:100AE000042054BF22EA080242EA0802F303CEF8C7
:100AF0000420DEF800204FF0010354BF22EA080270
:100B000042EA0802CEF800200E680AF1010A36FA1D
:100B10000AF204F1040400F0998003FA0AFB16EAD1
:100B20000B08F1D04E68664512DC122E56D8DFE86D
:100B300006F0350B4D495555555555555555555597
:100B400055555545510000BFD1F80C9046E000BF07
:100B50004FF6FF72C1F2210296420FDC0022C1F271
:100B6000110296421AD00022C1F21202964215D00A
:100B70000022C1F22102964210D02FE00022C1F2E1
:100B8000220296420AD00022C1F23102964205D0DA
:100B90000022C1F23202964220D100BF8A684AB1D7
:100BA000012A14BFC0F814B0C0F810B04FF0080903
:100BB00014E000BF4FF0040910E000BFCA6802F162
:100BC00004090BE04FF0000908E000BFCA6802F119
:100BD000080903E0CA6802F10C0900BF0246264674
:100BE000B8F5807F24BF0432203E17680F25B5403A
:100BF00027EA050509FA06F635431560CA79D206D3
:100C00007FF582AF41F21803C4F202031A68AEF511
:100C10007E7642F001021A601A6802F00102019227
:100C2000019A2AF0030256F802B040F60002C4F21C
:100C30000102904208D040F60042C4F20102904204
:100C40007FF420AF012725E7002723E702B0BDE8A6
:100C5000F08F00008068084018BF01207047000036
:100C6000C26802EA0103914341EA0341016170470E
:100C7000002A08BF090401617047000041F2886042
:100C8000C2F2000000687047002804BF01207047CE
:100C900010B5242180F83D10016804460A6822F04E
:100CA00001020A6000F010FB0020206484F83D007F
:100CB000206384F83E0084F83C0010BD002804BF87
:100CC00001207047F0B581B0044690F83D0028B986
:100CD000002084F83C00204600F014FB242084F817
:100CE0003D002068016821F001010160016841F4C4
:100CF00000410160016821F40041016000F03EFD07
:100D0000636848F2A16CC0F2010C40F60011C0F219
:100D10003D0163453CBF48F28041C0F21E0188425C
:100D200002D2012001B0F0BD4DF68361C4F21B3147
:100D3000A0FB01122168970CD1F804E04FF49676DD
:100D40002EF03F0545EA92454D60774348F6381648
:100D50000D6AC0F24106A7FB067625F03F07634502
:100D600038BF960C721C3A430A62CA6948F2A06600
:100D70004CF6FF77C0F20106B34222EA07020BD815
:100D800001385B00B0FBF3F001306FF31F30042833
:100D900098BF04201BE000BFA768013857B119278E
:100DA0007B43B0FBF3F001306FF31F3070B100F5FF
:100DB000804007E003EB4303B0FBF3F001306FF337
:100DC0001F3018B100F5004001E000BF01201043C2
:100DD000C8610868D4E9072320F0C0001043184315
:100DE0000860886848F2FF3204F10C0790438CCF0A
:100DF00018431043A6698860C86820F0FF00384394
:100E00003043C860086840F00100086000202021DD
:100E1000206484F83D10206384F83E0001B0F0BDEA
:100E20002DE9F04F85B004460020994616460F463E
:100E30000490FFF723FF94F83D10202927D10546A1
:100E4000206800BF816989071CD5FFF717FF411B88
:100E500020681A29F6D381698907F3D5002020215B
:100E6000206384F83D1084F83E00206C04F13C0AB5
:100E700040F020002064022000218AF8001005B014
:100E8000BDE8F08FA2461AF83C1F012904D10220C8
:100E900005B0BDE8F08F00BF01228AF8002003688A
:100EA000DDE90F180E9ADB0703D1036843F0010355
:100EB0000360036823F400630360222084F83D008C
:100EC000402084F83E000020206462626185608DCD
:100ED000394620850020CFF6FF70E062204632467A
:100EE0004B46CDE9008501F03BFC18B1012005B06F
:100EF000BDE8F08F208D022826D001280ED00028D2
:100F000038D10020039020684169039181690391E1
:100F10000399016841F40071016037E020680168BD
:100F200021F480610160EFF3108072B6002003901D
:100F3000206841690391816903910399016841F433
:100F40000071016062B621E02068016841F400612F
:100F50000160EFF3108072B60020039020684169B1
:100F60000391816903910399016821F48061016013
:100F700062B60BE02068016841F4806101600021E5
:100F8000039141690391806903900398208D0028A3
:100F900000F0CC80042740F210094BF2895BC0F2CC
:100FA0000107C2F20009C1F2F84B23260EE000BF90
:100FB00010690870606A218D01306062481E2085CA
:100FC000618D01396185010400F0B08080B2032891
:100FD0000CD802282CD001284AD1204641462A4666
:100FE00001F05CFE002800F09C807FE7204641462F
:100FF0002A4601F053FE00287FF478AF2068616A2A
:1010000000690870606A2268411C208D61620138A5
:101010002085638D013B638553695B07D3D580B21F
:101020000328C5D1106820F480601060C0E700BFBD
:101030002046394600224346009501F0DDFC002899
:101040007FF454AFEFF3108072B62068616A0268D3
:1010500042F40072026000690870606A218D0130FC
:101060006062481E2085608D0138608562B658E058
:101070002046394600224346009501F0BDFC002879
:101080007FF434AF2068016821F480610160EFF3E0
:10109000108072B62068616A00690870606A218DEC
:1010A0000130013960622185618D01396185D9F88E
:1010B0000010C908A1FB0B12110A71430491049995
:1010C00001390491049900293CD021684A695207EA
:1010D00017D4049A013A0492049A9AB34A695207BF
:1010E0000FD4049A013A0492049A5AB34A695207F7
:1010F00007D4049A013A0492049A1AB34A6952072F
:10110000DDD50A6842F400720A6009690170606AFC
:10111000218D01306062481E2085608D0138608518
:1011200062B62068616A006943E700BF202084F846
:101130003D00002084F83E0000218AF8001005B030
:10114000BDE8F08F00202021206384F83D1084F852
:101150003E00206C40F02000206462B60120002197
:101160008AF8001005B0BDE8F08F00002DE9F043CB
:1011700083B0994616460F460446FFF77FFD94F864
:101180003D10202924D10546206800BF81698907C8
:101190001AD5FFF773FD411B20681A29F6D3816920
:1011A0008907F3D500202021206384F83D1084F8BE
:1011B0003E00216C41F02001216484F83C000220B3
:1011C00003B0BDE8F08300BF94F83C10012903D1BF
:1011D000022003B0BDE8F083012284F83C200368BC
:1011E000DDE90B180A9ADB0703D1036843F001031A
:1011F0000360036823F400630360212084F83D004A
:10120000402084F83E000020206462626185608D89
:10121000394620850020CFF6FF70E0622046324636
:101220004B46CDE9008501F025FB18B1012003B044
:10123000BDE8F083208D98B9204641462A4601F04A
:101240007DFB88B3206C0428F0D12068016841F44C
:1012500000710160012003B0BDE8F0830004EBD011
:10126000204641462A4601F061FD0028EAD1616A24
:101270002268084610F8013B1361238D6062581EF6
:101280002085678D013F678557697F07E6D507048D
:10129000E4D048781061881C6062981E2085618DBA
:1012A00001396185DAE700BF2068016841F4007107
:1012B0000160202084F83D00002084F83E0084F87E
:1012C0003C0003B0BDE8F08310B540F60044C4F222
:1012D00001040068A4F53841884218BF10BD41F2EE
:1012E0001C00C4F20200016821F4001101602046D4
:1012F0004021FFF7F5FA20468021BDE81040FFF7B6
:10130000EFBA000010B586B0016845F20040C4F2A3
:10131000000081424FF00001CDE90411CDE9021136
:1013200002D006B010BD00BF41F21804C4F202049E
:10133000216800F5384041F008012160216801F082
:10134000080101910199C021029112210391032109
:10135000059102A9FFF776FB606840F40010606019
:10136000606800F400100190019806B010BD000004
:1013700040F2000041F28861C2F20000C2F20001B6
:1013800000780A68104408607047000080B542F297
:101390000000C4F20200016841F010010160032066
:1013A00000F0DCF80F2000F005F800F05BF80020FA
:1013B00080BD0000B0B586B041F21C01C4F202014C
:1013C0000A68044642F001020A60096801A801F0B7
:1013D000010101910199694600F0AEF9049D002DCB
:1013E00018BF012500F0CAF94DF68361A840C4F288
:1013F0001B31A0FB01014FF0FF3000EB914140F2A7
:101400000C40C2F200004FF0804240F2E73300256A
:10141000C0E90021C0E902530561856100F028FEA2
:1014200010B106B0B0BD00BF40F20C40C2F20000E7
:1014300000F09EFE0028F4D11C2000F051F80F2C83
:101440000CD81C202146002200F05CF840F2040178
:101450000020C2F200010C6006B0B0BD012006B051
:10146000B0BD000080B582B041F21800C4F20200A5
:101470000168002241F001010160016801F00101F1
:1014800001910199416841F08051416040680F210C
:1014900000F08050009000986FF0010000F032F8EA
:1014A0000420C4F201000168022262F31A610160A3
:1014B00002B080BD002848BF704700F01F01012224
:1014C00002FA01F11C2202EAD0004EF28012CEF2A2
:1014D00000028150BFF34F8FBFF36F8F7047000042
:1014E000002848BF704700F01F01012202FA01F1F5
:1014F0001C2202EAD0004EF20012CEF2000281500D
:101500007047000010B54EF60C5CCEF2000CDCF813
:101510000030C3F3022E8EF00704042C28BF0424ED
:10152000BEF103034FF0FF3E0EFA04F438BF002370
:10153000A14399400EFA03F39A43114300F00F02BE
:1015400000F160430901043A03F564436244002852
:1015500048BF02F10C03197010BD00004EF60C518B
:10156000CEF200010A684FF6FF031A4060F30A2228
:1015700042F0806040F0FD7008607047002804BFB2
:10158000012070472DE9F04381B042F20008C4F217
:1015900002080446D8F800000D4600F0070081421A
:1015A0000CD9D8F8000020F007002843C8F8000044
:1015B000D8F8000000F00700A8426CD1206841F282
:1015C00004098107C4F2020917D5410705D5D9F8E6
:1015D000001041F4E061C9F80010010705D5D9F801
:1015E000001041F46051C9F80010D9F80010A26849
:1015F00021F0F0011143C9F80010C00742D1D8F81A
:10160000000000F0070085420CD2D8F8000020F05E
:1016100007002843C8F80000D8F8000000F00700D1
:10162000A84238D12068410707D5D9F80010E268F0
:1016300021F4E0611143C9F80010000708D5D9F87A
:101640000000216920F4605040EAC100C9F80000A0
:10165000D9F8002002F00C00082841F20020C0F266
:101660007A004DD14AF22433C2F38341C0F600031D
:10167000595CD20338D440F60010C0F23D00484314
:101680003EE000BF606859F8041C022808D0012819
:1016900026D1890306D4012001B0BDE8F08300BF44
:1016A0008901F8D5D9F8001021F003010843C9F8E1
:1016B0000000FFF7E3FA064641F28837D9F8000048
:1016C000616800F00C00B0EB810F98D0FFF7D6FAFC
:1016D000801BB842F2D9032001B0BDE8F08300BFFF
:1016E0008907D8D5DEE700BFD9F800204AF2D82311
:1016F000C2F34042C0F600039A5C4843B0FBF2F0EC
:10170000D9F800104AF29C22C1F30311C0F600027E
:10171000515C40F2100220FA01F140F20400C2F2E2
:1017200000000068C2F200021160FFF743FE0020D3
:1017300001B0BDE8F08300000F22026041F2040214
:10174000C4F20202136803F003034360136803F05A
:10175000F0038360136803F4E063C36012684FF41E
:10176000E06303EAD202026142F20000C4F2020026
:10177000006800F0070008607047000040F21000A9
:1017800041F20401C2F20000C4F2020100680968DB
:101790004AF2AC22C1F30221C0F60002515CC840FB
:1017A00070470000002804BF012070472DE9F04178
:1017B00082B00446007841F20006C007C4F2020677
:1017C0000CD0706800F00C00042840F08180306874
:1017D000800303D56068002800F0468120788007E8
:1017E0001BD5706810F00C0F09D0706800F00C0069
:1017F000082840F087807068C00300F1838030685B
:10180000800703D52069012840F02E813068616986
:1018100020F0F80040EAC10030602078000713D4BF
:10182000207840072CD4E569002D00F018817068FD
:1018300000F00C00082840F0A780012D40F0048142
:10184000012002B0BDE8F081A069002800F084808A
:101850000020C4F242200121C0F88014FFF70EFAE4
:10186000054600BF706A800700F1B280FFF706FAF4
:10187000401B0228F6D9032002B0BDE8F08100BF6A
:10188000F0695FEAC00808D4F06940F08050F06168
:10189000F06900F080500090009847F20007C4F211
:1018A00000073868C00549D4386840F48070386053
:1018B000FFF7E4F9054600BF3868C0053ED4FFF7DE
:1018C000DDF9401B6428F7D9032002B0BDE8F081A0
:1018D000706800F00C00082803D17068C0033FF561
:1018E00076AF61683068002900F00C81B1F5A02F57
:1018F00000F00081B1F5803F40F01A8140F4803063
:101900001CE100BF2069002840F20000C4F2422020
:1019100000F0888001210160FFF7B0F9054600BFA3
:10192000306880073FF572AFFFF7A8F9401B022827
:10193000F6D9032002B0BDE8F08100BFE168306A4B
:10194000002900F09D80052900F09280012940F0D7
:10195000AF8040F00100B1E00020C4F2422000213D
:10196000C0F88014FFF78AF9054600BF706A800747
:101970007FF556AFFFF782F9401B0228F6D9032006
:1019800002B0BDE8F08100BF0027C4F2422700206A
:101990003866FFF773F9022D05460DD130688001D6
:1019A00040F1DE80FFF76AF9401B02284FF0030088
:1019B000F4D902B0BDE8F081306880014FD5FFF75F
:1019C0005DF9401B02284FF00300F5D9F1E700BF95
:1019D00040F21000C2F20000006844F6D351C1F298
:1019E0006201A0FB0101480A019000BF00BF0198FD
:1019F000411E002801913FF413AF00BF0198411E22
:101A0000002801913FF40CAF00BF0198411E00284F
:101A100001913FF405AF00BF0198411E00280191DC
:101A2000E4D1FDE600210160FFF728F9054600BF7B
:101A3000306880077FF5F1AEFFF720F9401B0228E0
:101A40004FF00300F4D9B4E77068216A00F48032E3
:101A50008A4209D1616A00F47010884204D10020E2
:101A600002B0BDE8F08100BF012002B0BDE8F08106
:101A700040F004003062306A40F001001EE000BF18
:101A800020F001003062306A20F004003062FFF77D
:101A9000F5F8054641F28837306A800720D5FFF710
:101AA000EDF8401BB8424FF00300F5D981E700BFC5
:101AB00020F001003062306A20F004003062FFF74D
:101AC000DDF8054641F28837306A800708D4FFF711
:101AD000D5F8401BB842F7D9032002B0BDE8F08129
:101AE000B8F1000F3FF59FAEF06920F08050F06133
:101AF00099E600BF40F480203060306840F48030C8
:101B00001CE000BF20F480303060306820F480207A
:101B10003060FFF7B3F80546306880037FF55EAEAE
:101B2000FFF7ACF8401B64284FF00300F4D940E7FE
:101B300020F480303060306820F480203060FFF77F
:101B40009DF80546306880033FF548AEFFF796F8EC
:101B5000401B6428F6D9032002B0BDE8F08100BF25
:101B6000206AB0F5803F05D17168A26821F4003188
:101B7000114371607168626A21F474111143084362
:101B8000706001203866FFF779F8044630688001FC
:101B90003FF565AFFFF772F8001B02284FF0030016
:101BA000F4D906E770B528B1416A29B10021016175
:101BB000142106E0012070BD4168B1F5827F02D09A
:101BC0001C21002242500026866290F8511029B94B
:101BD00080F85060054600F039F82846022180F868
:101BE000511090E82E0002F482720C6803F4044352
:101BF00024F040040C601A4405F4006305691A449B
:101C000005F0020345691A4405F001038569C469BA
:101C10001A4405F400731A4404F03803046A1A44A1
:101C200004F08003846A1A4304F400531A430A60E0
:101C3000042202EA15424A60CA6922F40062CA61BB
:101C40000121466580F85110304670BD70B586B0F0
:101C500040F60004C4F20104006804F52051002697
:101C600088420596CDE90366029601D006B070BDA4
:101C700041F21800C4F20200016802AD41F4805143
:101C80000160016801F4805101910199016841F0FE
:101C9000040101600068294600F0040001900198E9
:101CA000A020029002200390032005902046FEF71A
:101CB000C9FE4020CDE90206204629460496FEF7DB
:101CC000C1FE06B070BD00002DE9F04383B01E4692
:101CD00015460F460446FEF7D1FF94F85110814691
:101CE000012909D1002F4FF0010018BF002D0FD19D
:101CF00003B0BDE8F08300BF6068B0F5827F0DD10E
:101D000004294FF00200F3D1A1680029EAD0EFE7DF
:101D1000002EEDD094F85000012803D1022003B02A
:101D2000BDE8F083012084F8500094F851000021B0
:101D300004281CBF052084F851006165A563E6876F
:101D4000A6872763E6862068A68621646164016809
:101D5000490603D4016841F0400101606168731EC7
:101D6000E268B1FA81F1B3FA83F3DDF8288049091A
:101D70005B09B2F5006F41EA030165D131B137F873
:101D8000021BC1602763E08E0138E086012518F14F
:101D9000010032D102E000BFFEF770FFE08E18B9FB
:101DA000E08F002800F0B8802068816889070CD592
:101DB000E18E51B1012D08D1216B002531F8022BA4
:101DC000C2602163E18E0139E1868168C907E3D0F1
:101DD000E18F0029E0D0C068A16B012521F8020B3A
:101DE000A163E08F0138E087D6E700BFFEF746FF2A
:101DF000A0EB0900404580F0AF80E08E18B9E08F7D
:101E0000002800F089802068816889070CD5E18E60
:101E100051B1012D08D1216B002531F8022BC26090
:101E20002163E18E0139E1868168C907DED0E18F47
:101E30000029DBD0C068A16B012521F8020BA1634A
:101E4000E08F0138E087D1E739B139780173206B31
:101E500001302063E08E0138E086012518F1010091
:101E600032D101E0FEF70AFFE08E10B9E08F0028C2
:101E700052D02068816889070ED5E18E61B1012DAD
:101E80000AD1216B002509780173216B206801318B
:101E90002163E18E0139E1868168C907E2D0E18FD3
:101EA0000029DFD0C068A16B01250870A06B01304C
:101EB000A063E08F0138E087D4E700BFFEF7DEFEC5
:101EC000A0EB0900404547D2E08E08B9E08F18B377
:101ED0002068816889070ED5E18E61B1012D0AD194
:101EE000216B002509780173216B20680131216382
:101EF000E18E0139E1868168C907DFD0E18F0029D1
:101F0000DCD0C068A16B01250870A06B0130A06314
:101F1000E08F0138E087D1E72046022101224346C5
:101F2000CDF8009002F062FE40B9204680210022E8
:101F30004346CDF8009002F059FEB8B1606D40F014
:101F40002000606520206065002084F8500001209A
:101F500003B0BDE8F08300BF012084F851000020E9
:101F600084F85000032003B0BDE8F083A06838B9BE
:101F7000002002902068C168029180680290029857
:101F8000012084F85100002084F85000606D002882
:101F900018BF012003B0BDE8F083000070470000C7
:101FA0007047000090F83C20012A04BF02207047CF
:101FB000B0B501F108053CCDD1E900CE23F47C5346
:101FC00022F470521A432EF4F0431A432CF4E043E7
:101FD0001A4324F4C0431A432A43C96922F48042B5
:101FE000036811435964002180F83C100020B0BD03
:101FF00090F83C20012A4FF0020236D010B580F84C
:102000003D200268D2F804E0D2F808C00C682EF037
:102010007003234340F2FF74C4F20004A2425360F1
:102020000ADCB2F1804F13D040F20043C4F2000347
:102030009A420DD011E000BF42F60043C4F2010302
:102040009A4205D040F60003C4F200039A4204D13C
:1020500049682CF08003194391600121002280F827
:102060003D1080F83C20BDE810401046704700004D
:10207000002804BF0120704710B590F83D1031B919
:10208000002180F83C10044600F070F82046022140
:1020900080F83D10016840F2FF740B68C4F2000440
:1020A00042F6004CA142C4F2010C15DCB1F1804FA4
:1020B0001AD040F20042C4F20002914214D0A14270
:1020C00018DCB1F1804F1DD040F20042C4F2000292
:1020D000914217D01AE000BF614505D040F60002DA
:1020E000C4F200029142EAD1826823F070031343E4
:1020F000A142E6DD614505D040F60002C4F20002CF
:10210000914203D1026923F440731343846923F09D
:102110008002D0F804E0C368224361450A60CB62C4
:10212000C1F828E002D14269CCF8302001224A618E
:102130000B69DB0703D00B6923F001030B6180F807
:10214000462080F83E2080F83F2080F8402080F82C
:10215000412080F8422080F8432080F8442080F815
:10216000452080F83D20002010BD00007047000091
:1021700090F83D1001291CBF01207047022180F812
:102180003D10006840F2FF72C168C4F20002904244
:1021900041F00101C16009DCB0F1804F12D040F282
:1021A0000041C4F2000188420CD012E042F6004126
:1021B000C4F20101884205D040F60001C4F20001DA
:1021C000884206D1816801F00701062904BF00207A
:1021D0007047016841F00101016000207047000074
:1021E0007047000070B504460068C5680669B1070D
:1021F00016D515F0020113D06FF002010161012123
:1022000021778069800703D02046FFF7E9FF05E0CA
:10221000204600F08FF8204600F026FA00202077B4
:10222000700719D515F0040016D020686FF004016E
:10223000016102212177806910F4407F04D020469B
:10224000FFF7CEFF06E000BF204600F073F82046FF
:1022500000F00AFA00202077300717D515F00800A3
:1022600014D020686FF00801016104212177C06952
:10227000800703D02046FFF7B3FF05E0204600F0BB
:1022800059F8204600F0F0F900202077F00619D523
:1022900015F0100016D020686FF0100101610821C0
:1022A0002177C06910F4407F04D02046FFF798FFE3
:1022B00006E000BF204600F03DF8204600F0D4F9CB
:1022C00000202077F00718BF15F0010002D130067A
:1022D00009D412E020686FF001010161204600F08E
:1022E00033FA300609D515F0800006D020686FF06B
:1022F000800101612046FFF751FE700609D515F0F7
:10230000400006D020686FF040010161204600F0D7
:1023100023FAB00658BF70BD15F0200008D0216820
:102320006FF0200220460A61BDE87040FFF738BE1A
:1023300070BD00007047000090F83C30012B04BFD6
:10234000022070474FEAB202032A00F2F1802DE921
:10235000F043DFE802F003A53B7500BF036842F6D7
:1023600000461D6A1A6AC4F2010622F001021A62CE
:102370001A465C6852F818CFB3428E68D1F800E074
:1023800025F0020545EA06050CD1CE68D1E90578AD
:1023900024F4407425F00C0526F004063C43354334
:1023A00044EA08042CF0730747EA0E075C609F615B
:1023B0004F6809695F631D629F6947F008079F6165
:1023C0009F6927F004079F61A6E000BF036842F6FB
:1023D00000461D6A1A6AC4F2010622F480721A626B
:1023E0001A46D3F804C052F81CEFB3428E680C684A
:1023F00025F4007545EA06250FD1CE68D1E9059888
:10240000360240F2FF4725F44065BE4335432CF4C5
:10241000405748EA090647EA061C2EF0730727438F
:10242000C3F804C0DF614F680969DF631D62DF69BB
:1024300047F00807DF61DF6927F00407DF616BE021
:10244000036842F60047D3F820C01A6AC4F20107B5
:1024500022F480521A621A465C6852F81C5FD1F866
:1024600000E08E68BB4204D14F6924F4804444EA02
:1024700087142CF4005747EA063725F4E64646EA67
:102480000E265C60DE614E6809691E641F62DF69AA
:1024900047F40067DF61DF6927F48067DF613AE0B6
:1024A000036842F600461D6A1A6AC4F2010622F069
:1024B00010021A621A46D3F804C052F8184FB342F9
:1024C0008E68D1F800E025F0200545EA06150FD109
:1024D000CE68D1E905986FF0400725F0C00507EAFE
:1024E000061635432CF4406748EA090647EA860C8D
:1024F00024F4E64444EA0E27C3F804C09F614F6801
:1025000009699F631D629F6947F400679F619F6926
:1025100027F480679F610902136819431160002145
:10252000BDE8F043002280F83C200846704700BF19
:102530000121002280F83C2008467047002804BF93
:102540000120704710B590F83D1031B9002180F896
:102550003C10044600F070F82046022180F83D103F
:10256000016840F2FF740B68C4F2000442F6004CAC
:10257000A142C4F2010C15DCB1F1804F1AD040F237
:102580000042C4F20002914214D0A14218DCB1F121
:10259000804F1DD040F20042C4F20002914217D099
:1025A0001AE000BF614505D040F60002C4F2000207
:1025B0009142EAD1826823F070031343A142E6DD21
:1025C000614505D040F60002C4F20002914203D1F9
:1025D000026923F440731343846923F08002D0F826
:1025E00004E0C368224361450A60CB62C1F828E079
:1025F00002D14269CCF8302001224A610B69DB0725
:1026000003D00B6923F001030B6180F8462080F8AA
:102610003E2080F83F2080F8402080F8412080F85C
:10262000422080F8432080F8442080F8452080F83C
:102630003D20002010BD0000006842F60041C4F2B9
:102640000101884218BF704781B041F21800C4F2FE
:102650000200016841F400610160006800F400605C
:102660000090009801B0704770470000C1B1042984
:1026700008D0082914BF41224022825C012A05D0DB
:1026800016E000BF3F22825C012A11D102220829F4
:1026900010D0042914BF80F8412080F83F200BE0BF
:1026A00090F83E20012A03D1022280F83E2003E068
:1026B0000120704780F84020006801F01F010122CE
:1026C000036A8A4023EA02010162036A42F6444136
:1026D000C4F201011A43A1F14403984202620FD0EF
:1026E00040F2FF71C4F20001884213DCB0F1804F68
:1026F0001CD040F20041C4F20001884216D01CE018
:102700000A6842F400420A6040F2FF71C4F200011C
:102710008842EBDD42F60041C4F20101884205D057
:1027200040F60001C4F20001884206D1816801F040
:102730000701062904BF00207047016841F001012C
:1027400001600020704700000068B0F1804F18BFA2
:102750007047FEF70DBE000070470000FEE7000066
:102760002DE9F04782B0044600689A460B9D0A9E08
:102770000368914643F48062026002680F4642F4A7
:102780008071016020464FF0011100223346009510
:1027900000F032F950B120680068C00544BF4FF422
:1027A00000702064032002B0BDE8F08740F2020808
:1027B0002068C0F2010807F0FE0707612046414685
:1027C00032462B4600F0FEF920B1012002B0BDE8F0
:1027D000F08700BF0020019020682A4641690191DE
:1027E0008069314601900198204600F09FFAB0B907
:1027F0002068BAF1010F09D04FEA19210161204682
:1028000031462A4600F092FA48B920685FFA89F109
:102810000161204631462A4600F088FA60B1206CFA
:102820000428D2D12068016841F4007101600120C0
:1028300002B0BDE8F08700BF20680022016833467F
:1028400041F48071016020464FF00111009500F0C5
:10285000D3F800289FD147F0010C27682046414655
:1028600032462B46C7F810C002B0BDE8F04700F072
:10287000A9B900002DE9F04383B0044600680F4673
:1028800001680A9D0B9E41F4807199469046016053
:1028900020464FF0011100222B46009600F0ACF8C4
:1028A00050B120680068C00544BF4FF40070206438
:1028B000032003B0BDE8F083206807F0FE0101614A
:1028C0000221C0F2010120462A46334600F07AF97F
:1028D00020B1012003B0BDE8F08300BF00200290CA
:1028E0002068324641690291806929460290029827
:1028F000204600F01BFA58B1206C0428E9D120686A
:10290000016841F400710160012003B0BDE8F0836B
:102910002068B9F1010F0AD04FEA18210161204661
:102920002946324600F002FA0028E5D120685FFA15
:1029300088F10161002003B0BDE8F08370B5036841
:10294000044653F8140F400711D40E46481C29D0F2
:1029500086BB00BF1868400527D4FEF78FF92368AF
:1029600053F8140F400737D518684007F2D50020F8
:1029700070BD00BF18684007F9D41868400514D42A
:1029800018684007F3D4186840050ED4186840074B
:10299000EDD41868400508D4186840074FF00000CF
:1029A00048BF70BD18684005E4D56FF480601860BA
:1029B000042012E0154603E053F8140F4007D6D464
:1029C00018684005F1D4FEF759F9401B2368B0425E
:1029D000F2D958694007EFD420200021202221633A
:1029E00084F83D2084F83E10226C104320640120BE
:1029F00084F83C1070BD00002DE9F04105460068E8
:102A00001E46144601F47F0201338FB242D0DDF836
:102A10001880B2F5803F40F0878040693840C01B85
:102A2000B0FA80F04009844240F0C8804EB924E0FA
:102A300040693840C01BB0FA80F04009844240F041
:102A4000BD80FEF71BF9A0EB08012868B142EFD961
:102A500041693940C91BB1FA81F149098C42E7D17A
:102A60009BE000BF40693840C01BB0FA80F04009CD
:102A700084424FF0000040F0A280FEF7FFF8286883
:102A800041693940C91BB1FA81F149098C42E9D148
:102A900083E000BFB2F5803F24D100BF41693940D7
:102AA000C91BB1FA81F149098C4240F08780416924
:102AB0003940C91BB1FA81F149098C4240F07E804E
:102AC00041693940C91BB1FA81F149098C4275D17C
:102AD00041693940C91BB1FA81F149098C42DDD005
:102AE0006CE000BF81693940C91BB1FA81F1490925
:102AF0008C4263D181693940C91BB1FA81F149091E
:102B00008C425BD181693940C91BB1FA81F1490915
:102B10008C4253D181693940C91BB1FA81F149090D
:102B20008C42DFD04AE000BF80693840C01BB0FA59
:102B300080F04009844241D146B923E080693840A1
:102B4000C01BB0FA80F04009844237D1FEF796F8F6
:102B5000A0EB08012868B142F0D981693940C91B4E
:102B6000B1FA81F149098C42E8D116E08069384018
:102B7000C01BB0FA80F0400984424FF0000018BF3B
:102B8000BDE8F081FEF77AF8286881693940C91BF1
:102B9000B1FA81F149098C42E8D100202021286353
:102BA00085F83D1085F83E00296C41F0200129642C
:102BB00085F83C000120BDE8F08100BF0020BDE8A1
:102BC000F0810000F0B581B0044600681D464369FD
:102BD0008FB203EA0701B94202D1002001B0F0BD73
:102BE0004169164601323CD0490512D47EB300BF7C
:102BF000FEF744F8411B2068B14203D941693940CE
:102C0000B9422BD141693940B942E6D04169490501
:102C1000EED5016841F4007101606FF4806141619B
:102C2000042000212022216384F83D2084F83E10F6
:102C3000226C1043206484F83C10012001B0F0BDE8
:102C400041693940B942C8D041694905E1D4FEF72C
:102C500015F8206841693940B942F1D02020E0E7F9
:102C600041694905D5D441693940B942B5D0416976
:102C70004905CED441693940B942AED041694905D0
:102C8000C7D441693940B942A7D041694905C0D488
:102C900041693940B942E3D19FE7000070B504466D
:102CA0000068154650F8143F5A063DD40E4629B91F
:102CB00026E000BF50F8141F490635D40168C90644
:102CC00021D4FDF7DBFF411B2068B142F2D94169F5
:102CD0004906EFD400202021206384F83D1084F8B9
:102CE0003E00206C40F0200018E000BFFDF7C6FF5A
:102CF000206850F8141F4906ECD50168490613D422
:102D00000168C906F2D56FF0100101600020202192
:102D1000206384F83D1084F83E00206C206400207D
:102D200084F83C00012070BD002070BD70B50368C0
:102D3000044653F8140F000611D40E46481C29D03F
:102D400086BB00BF1868400527D4FDF797FF2368AE
:102D500053F8140F000637D518680006F2D5002086
:102D600070BD00BF18680006F9D41868400514D477
:102D700018680006F3D4186840050ED418680006D9
:102D8000EDD41868400508D4186800064FF000001C
:102D900048BF70BD18684005E4D56FF480601860C6
:102DA000042012E0154603E053F8140F0006D6D4B1
:102DB00018684005F1D4FDF761FF401B2368B0425D
:102DC000F2D958690006EFD4202000212022216387
:102DD00084F83D2084F83E10226C104320640120CA
:102DE00084F83C1070BD00002DE9F04385B00C461E
:102DF000450005200121CDE9011040F21830984628
:102E000017460DF11309C2F200002946224601239C
:102E1000CDF80090FEF704F840F25646C2F20006E4
:102E200030B130880130308002F0BEFD02E000BFDA
:102E3000002030809DF81300012101FA07F242EAD8
:102E40000003B8F1000F08BF20EA020340F2183077
:102E50008DF813300527CDE90091C2F20000294614
:102E6000224601230297FEF781F948B131880446D2
:102E70000131318002F098FD204605B0BDE8F083B5
:102E80000021318005B0BDE8F08300002DE9F04F4E
:102E900085B00C46450040F218301E4617464FF0EC
:102EA00005084FF001090DF1130BC2F2000029468D
:102EB00022460123CDE900B9CDF80880FDF7B0FF27
:102EC00040B140F25641C2F200010A8801320A8044
:102ED0002AE000BF40F2564AC2F2000A0021AAF8D6
:102EE00000104FF0FF31B140BA1B0E98C9430132B8
:102EF0009DF813309140904023EA010108438DF87A
:102F0000130040F21830C2F2000029462246012385
:102F1000CDE900B9CDF80880FEF728F960B1BAF81C
:102F200000100131AAF80010044602F03DFD2046D1
:102F300005B0BDE8F08F00BF0020AAF8000005B082
:102F4000BDE8F08F70B582B00120009068206B2141
:102F5000022203230324FFF799FF68201B21042288
:102F600002230094FFF792FF002568201C21042211
:102F700002230095FFF78AFF68206B2106220023B9
:102F8000FFF732FF68206A2105220023FFF72CFF9C
:102F90006820372101220023FFF726FF40F2C806F0
:102FA000C2F20006344644F8545F682075210122BD
:102FB0002346C6E91655A6F8605002F0D1FC2078E9
:102FC0006838B0FA80F040093070307802B070BDD7
:102FD0002DE9F04F8FB00DF119070DF11A060DF123
:102FE000220007A90BAA0AABCDE9006702F032F86C
:102FF000BDF81A00C00503D400200FB0BDE8F08F63
:10300000BDF91CA0BDF91E50BDF92040CAF1000059
:1030100006F06AFE4FF0625106F0FAFE8046684202
:10302000049506F061FE4FF0625106F0F1FE07468E
:10303000204606F059FE4FF0625106F0E9FE0546C3
:103040003846394606F0E4FE04464046414606F05E
:10305000DFFE214606F098FC04462846294606F085
:10306000D7FE214606F090FC06F072F941F26F217E
:10307000C3F68321834606F0FDFC5E46002808BFA8
:103080004FF07E5628463146059506F01BFD044656
:103090003846314606F016FD074688F000403146B6
:1030A00006F010FD05462046214606F0B1FE064614
:1030B0003846394606F0ACFE314606F065FC06F0AF
:1030C00047F90146284605F0F1FF42F6E666C4F2EC
:1030D0006526314606F09CFE80463846214605F0BE
:1030E000E5FF314606F094FE8146BDF92200BDF9A8
:1030F0002460BDF9265006F0F7FD43F23337C4F2E1
:103100008317394606F0DEFC0446304606F0ECFD37
:10311000394606F0D7FC0646284606F0E5FD394656
:1031200006F0D0FC40F2C807C2F200077A783C6291
:10313000002A7E62B86253D04DF20A75C3F6A335F9
:103140003046294606F064FED7E90B1606F01CFC53
:10315000CDF80CA082462046294606F059FE31469D
:1031600006F012FC00210546CBF68071584606F0A9
:103170000BFC20F000444CF6CD41C3F64C512046E8
:1031800006F08DFC4CF6CD410646C3F64C61204658
:1031900006F085FC044600281CBF4DF20A74C3F6F5
:1031A000A33440465146002E1CBF4DF20A74C3F6AC
:1031B000A34406F08BFF214606F02AFE5146DDF8B7
:1031C0000CA006F0E1FB80464846294606F07EFF4B
:1031D000214606F01DFE294606F0D6FB814601E099
:1031E000012078701FFA8AF003900498C7E90B89D0
:1031F00080B2049040F20C00C2F200000168404628
:1032000006F064FF3969F861484606F05FFF7863AD
:10321000DDE90B06DDE90D4806F066FD4FF0425191
:1032200006F0F6FD8246304606F05EFD4FF0425154
:1032300006F0EEFDBB460746204606F055FD4FF072
:10324000425106F0E5FD0646404606F04DFD4FF0C2
:10325000425106F0DDFD04465046214606F0D8FDF9
:1032600005463846314606F0D3FD294606F08CFB6C
:10327000014606F089FB81463846394606F0C8FD0E
:1032800005465046514606F0C3FD294606F07CFB34
:1032900005463046314606F0BBFD0146284606F09D
:1032A00015FF05462046214606F0B2FD0146284698
:1032B00006F00CFF0146484605F0F8FE42F6E661CE
:1032C000C4F2652106F0A4FDDBE90561804606F045
:1032D000FDFE0021C4F23431044606F0CBFB002190
:1032E0000746CCF2B431204606F04EFB05460021DD
:1032F000002F08BF2546CCF23431284606F0CFFB1C
:1033000000210746C4F2B431284606F03DFB0446CE
:103310004CF6CD41002F08BF2C4624F00040C3F6E8
:10332000CC5106F0B5FB30BB2046314606F02CFBF5
:103330000021C4F23431044606F09CFB002105460E
:10334000CCF2B431204606F01FFB06460021002DCA
:1033500008BF2646CCF234313046CBF8146006F074
:1033600090FB40B90021C4F2B431304606F00CFBAA
:103370000646CBF814000398CBF8188000B2CBF8BF
:10338000386006F0B1FC4FF0625106F041FD4EF698
:103390000A04C4F21C14214606F03AFDCBF83C00A6
:1033A000049800B206F0A0FC4FF0625106F030FD28
:1033B000214606F02DFDCBF840000598214606F089
:1033C00027FDCBF8440001200FB0BDE8F08F0000CE
:1033D00010B544F635504AF24C32C0F60000C0F643
:1033E0000002002103F038FF40F2A804C2F20004FA
:1033F000206044F279604AF2DC22C0F60000C0F698
:103400000002002103F028FF606044F229504AF2D4
:10341000B422C0F60000C0F60002002103F01CFF39
:10342000A06044F2A1604AF20032C0F60000C0F68B
:103430000002002103F010FFE06010BD2DE9F04311
:1034400085B04FF0000841F21800CDE90388CDE9BE
:103450000188C4F20200016840F6000441F0100146
:1034600001600168C4F2010401F0100100910099AB
:10347000016804F5006541F0200101600168002247
:1034800001F020010091009901684FF4005641F0CD
:1034900004010160016801F00401009100990168D4
:1034A00041F00801016000684FF4005100F008008D
:1034B000009000982846FDF7DBFB204608210022FB
:1034C000FDF7D6FB2046102101220127FDF7D0FB96
:1034D00001A880E8C00101AE4FF00209284631463C
:1034E000CDF81090FDF7AEFA042001900020C1F253
:1034F0002100CDE9020720463146FDF7A3FA182046
:1035000001A981E8810320463146FDF79BFA082096
:1035100005210022FDF7F6FF0820FDF7E1FF05B0C9
:10352000BDE8F08380B540F2183045F20041C2F2A8
:103530000000C4F2000141F6802200234FF4804CC9
:10354000C0F2060280E80E00C0E9033CC0E9053382
:10355000C0E90733FDF7B2FB002808BF80BDBDE816
:103560008040FDF7A3B9000080B540F26C3043F213
:103570000001C2F20000C4F201014FF48272002384
:1035800080E80E0000F114014FF4007C4FF0180E9B
:1035900081E808500A21C0E90333C0E90833C0E9D3
:1035A0000A31FEF7FFFA002808BF80BDBDE8804061
:1035B000FDF77CB970B598B042F6004540F2C430D2
:1035C000C4F201050021C2F20000472240F6C313F5
:1035D00080261191CDE90F11CDE90D11CDE90B1127
:1035E000CDE90911CDE90711CDE90511CDE90311A7
:1035F000CDE90111C0E90052C0E90213C0E904118C
:103600008661FEF79BFF002818BFFDF74FF940F2D7
:10361000C430C2F2000010A9FEF7EAFC002818BF6F
:10362000FDF744F9602009900020CDE90A00CDE9BA
:103630000C00CDE90E0040F2C430C2F2000009A92E
:103640000022FEF779FE002818BFFDF72FF940F29F
:10365000C430C2F2000009A90422FEF76DFE002862
:1036600018BFFDF723F940F2C430C2F2000009A9E7
:103670000822FEF761FE002818BFFDF717F940F297
:10368000C430C2F2000009A90C22FEF755FE002842
:1036900018BFFDF70BF940F2C4344FF40050C2F2EA
:1036A00000040026069001A920460596CDE9036690
:1036B000CDE901660896FEF775FC002818BFFDF7F6
:1036C000F5F82068CDE91666A8421596149601D043
:1036D00018B070BD41F21800C4F20200016841F058
:1036E00004010160006814A900F00400139013980D
:1036F0004FF470601490022015901790A5F51050AB
:10370000FDF7A0F918B070BDFEE7000010B540F25B
:10371000C434C2F2000420460021FEF7A7FF204671
:103720000421FEF7A3FF20460821FEF79FFF204655
:103730000C21BDE81040FEF799BF0000F0B581B044
:103740001F4616460D4606F0B3FA0446284606F014
:10375000AFFA0546304606F0ABFA0646384606F0A4
:10376000A7FAB4F57A7F4FF47A71D8BF0C46B4F556
:10377000FA6F4FF4FA62A8BF1446B5F57A7FD8BF46
:103780000D46B5F5FA6FA8BF1546B6F57A7FD8BFD6
:103790000E46B6F5FA6FA8BF1646B0F57A7FC8BFD9
:1037A000014640F6E410C2F2000090F8A000B1F526
:1037B000FA6FA8BF1146012803D100210026002579
:1037C000002440F2C430C2F2000000684463856304
:1037D000C663016401B0F0BD40F2C430C2F2000023
:1037E0000068002141638163C16301647047000088
:1037F000F0B585B040F60004C4F201042046102163
:103800000122FDF735FA2046082100220026FDF7A7
:103810002FFA204610210022FDF72AFA40F26C35DB
:103820005020C2F200058DF808000A2702A90DF108
:103830001302284601238DF813600097FEF744FA1F
:1038400073208DF8080002A90DF113022846012308
:103850008DF813600097FEF737FA204610210122F9
:10386000FDF706FA00F03EF8204610210022FDF791
:10387000FFF9E2208DF8080002A90DF11302284695
:1038800001238DF813600097FEF71EFA20461021E1
:103890000122FDF7EDF9204610210022FDF7E8F99D
:1038A000E1208DF8080002A90DF11302284601233A
:1038B0008DF813600097FEF707FA204610210122C9
:1038C000FDF7D6F946F25560C8F67700039042F24C
:1038D000BB20C4F23340029002A800F0E3FC05B024
:1038E000F0BD00002DE9F04383B040F60004C4F2BF
:1038F00001042046082100224FF008090027FDF7A7
:10390000B7F90A200A2600F065FD204610210022A2
:10391000FDF7AEF940F26C352120C2F200058DF8BA
:103920000B000DF10B010DF10A02284601238DF861
:103930000A7000964FF00108FEF7C6F90DF10B0171
:103940000DF10A02284601238DF80B808DF80A70CC
:103950000096FEF7B9F9204610210122FDF788F9FB
:10396000204610210022FDF783F922208DF80B005C
:103970000DF10B010DF10A02284601238DF80A70A2
:103980000096FEF7A1F90DF10B010DF10A02284690
:1039900001238DF80B808DF80A700096FEF794F9DC
:1039A000204610210122FDF763F920461021002254
:1039B000FDF75EF923208DF80B000DF10B010DF1E1
:1039C0000A02284601238DF80A700096FEF77CF95A
:1039D00003208DF80B000DF10B010DF10A022846B2
:1039E00001238DF80A700096FEF76EF9204610212B
:1039F0000122FDF73DF9204610210022FDF738F99C
:103A000025208DF80B000DF10B010DF10A0228465F
:103A100001238DF80A700096FEF756F928208DF8DC
:103A20000B000DF10B010DF10A02284601238DF860
:103A30000A700096FEF748F9204610210122FDF792
:103A400017F9204610210022FDF712F931208DF8D8
:103A50000B000DF10B010DF10A02284601238DF830
:103A60000A700096FEF730F90DF10B010DF10A0214
:103A7000284601238DF80B908DF80A700096FEF70A
:103A800023F9204610210122FDF7F2F820461021EB
:103A90000022FDF7EDF83C208DF80B000DF10B0135
:103AA0000DF10A02284601238DF80A700096FEF7F0
:103AB0000BF90DF10B010DF10A02284601238DF8D7
:103AC0000B808DF80A700096FEF7FEF82046102154
:103AD0000122FDF7CDF8204610210022FDF7C8F89D
:103AE0003D208DF80B000DF10B010DF10A02284667
:103AF00001238DF80A700096FEF7E6F806208DF88F
:103B00000B000DF10B010DF10A02284601238DF87F
:103B10000A700096FEF7D8F8204610210122FDF722
:103B2000A7F8204610210022FDF7A2F826208DF8E4
:103B30000B000DF10B010DF10A02284601238DF84F
:103B40000A700096FEF7C0F807208DF80B000DF103
:103B50000B010DF10A02284601238DF80A70009628
:103B6000FEF7B2F8204610210122FDF781F8204629
:103B700010210022FDF77CF820208DF80B000DF1BC
:103B80000B010DF10A02284601238DF80A700096F8
:103B9000FEF79AF80F208DF80B000DF10B010DF1D7
:103BA0000A02284601238DF80A700096FEF78CF869
:103BB000204610210122FDF75BF82046102100224B
:103BC000FDF756F827208DF80B000DF10B010DF1D4
:103BD0000A02284601238DF80A700096FEF774F851
:103BE000FF208DF80B000DF10B010DF10A022846A4
:103BF00001238DF80A700096FEF766F82046102122
:103C00000122FDF735F8204608210122FDF730F8A2
:103C100003B0BDE8F08300002DE9F04F83B0044607
:103C200040F6000015460E46C4F2010010210022A5
:103C30004FF00009FDF71CF840F26C304FF00A0A13
:103C4000C2F200000DF1090102AA01238DF809401A
:103C50008DF80890CDF800A0FEF736F8E5B140F2F7
:103C60006C3B013E4FF0FF08C2F2000B0DF10B0759
:103C70000DF10A0458463946224601238DF80B807F
:103C80008DF80A90CDF800A0FEF71EF89DF80A0006
:103C9000013D06F8010FEDD140F60000C4F201002D
:103CA00010210122FCF7E4FF03B0BDE8F08F000013
:103CB000F0B583B040F60004C4F201040546204686
:103CC000102100220026FCF7D3FF8DF8095040F2A6
:103CD0006C35C2F200050A270DF1090102AA284637
:103CE00001238DF808600097FDF7EEFFFF208DF8A7
:103CF0000B000DF10B010DF10A02284601238DF88E
:103D00000A600097FDF7E0FF9DF80A502046102159
:103D10000122FCF7ADFF284603B0F0BD2DE9F047C6
:103D200084B0804640F600040820C4F20104FDF788
:103D3000C1FB2046082100224FF00009FCF798FF44
:103D4000102000F047FB0A204FF00A0A00F042FB67
:103D5000204610210022FCF78BFF40F26C36212018
:103D6000C2F200068DF8080002A90DF10F023046DC
:103D700001238DF80F90CDF800A00125FDF7A4FFD9
:103D800002A90DF10F02304601238DF808508DF87D
:103D90000F90CDF800A0FDF797FF204610210122DB
:103DA000FCF766FF204610210022FCF761FF22206D
:103DB0008DF8080002A90DF10F02304601238DF89D
:103DC0000F90CDF800A0FDF77FFF02A90DF10F02C3
:103DD000304601238DF808508DF80F90CDF800A0E3
:103DE000FDF772FF204610210122FCF741FF20461B
:103DF00010210022FCF73CFF23208DF8080002A9C7
:103E00000DF10F02304601238DF80F90CDF800A080
:103E1000FDF75AFF03208DF8080002A90DF10F02EB
:103E2000304601238DF80F90CDF800A0FDF74CFF30
:103E3000204610210122FCF71BFF20461021002202
:103E4000FCF716FF24208DF8080002A90DF10F02DF
:103E5000304601238DF80F90CDF800A0FDF734FF18
:103E600002A90DF10F02304601238DF808A08DF84C
:103E70000F90CDF800A0FDF727FF2046102101226A
:103E8000FCF7F6FE204610210022FCF7F1FE25206B
:103E90008DF8080002A90DF10F02304601238DF8BC
:103EA0000F90CDF800A0FDF70FFF28208DF8080037
:103EB00002A90DF10F02304601238DF80F90CDF8C5
:103EC00000A0FDF701FF204610210122FCF7D0FEE3
:103ED000204610210022FCF7CBFE26208DF808009A
:103EE00002A90DF10F02304601238DF80F90CDF895
:103EF00000A0FDF7E9FE07208DF8080002A90DF1EA
:103F00000F02304601238DF80F90CDF800A0FDF789
:103F1000DBFE204610210122FCF7AAFE20461021DC
:103F20000022FCF7A5FE20208DF8080002A90DF163
:103F30000F02304601238DF80F90CDF800A0FDF759
:103F4000C3FE0E208DF8080002A90DF10F023046C5
:103F500001238DF80F90CDF800A0FDF7B5FE2046A7
:103F600010210122FCF784FE204610210022FCF7DC
:103F70007FFE27208DF8080002A90DF10F023046C0
:103F800001238DF80F90CDF800A0FDF79DFEFF20D6
:103F90008DF8080002A90DF10F02304601238DF8BB
:103FA0000F90CDF800A0FDF78FFE204610210122D2
:103FB000FCF75EFE204610210022FCF759FEA020EF
:103FC0008DF8080002A90DF10F02304601238DF88B
:103FD0000F90CDF800A0FDF777FE98F8000002AF33
:103FE0000DF10F058DF80800304639462A460123A9
:103FF0008DF80F90CDF800A0FDF766FE98F801004F
:1040000039468DF8080030462A4601238DF80F9076
:10401000CDF800A0FDF758FE98F8020039468DF85B
:10402000080030462A4601238DF80F90CDF800A0F5
:10403000FDF74AFE98F8030039468DF8080030462F
:104040002A4601238DF80F90CDF800A0FDF73CFE25
:1040500098F8040039468DF8080030462A460123B6
:104060008DF80F90CDF800A0FDF72EFE98F8050012
:1040700039468DF8080030462A4601238DF80F9006
:10408000CDF800A0FDF720FE98F8060039468DF81F
:10409000080030462A4601238DF80F90CDF800A085
:1040A000FDF712FE98F8070039468DF808003046F3
:1040B0002A4601238DF80F90CDF800A0FDF704FEED
:1040C000204610210122FCF7D3FD204608210122C1
:1040D000FCF7CEFDCDF808900298B0F5967F1BDA7C
:1040E0000298013002900298B0F5967F14DA029897
:1040F000013002900298B0F5967F0DDA02980130F7
:1041000002900298B0F5967F06DA0298013002908C
:104110000298B0F5967FE3DB204608210022FCF7E9
:10412000A7FDFCF7ABFD054620460421FCF792FDF8
:10413000012804D1FCF7A2FD401B6528F4D32046DA
:10414000102100224FF00009FCF792FD40F26C367E
:104150000720C2F200068DF808004FF00A0802A9F5
:104160000DF10F02304601238DF80F90CDF800803D
:10417000FDF7AAFDFF2502A90DF10F02304601232C
:104180008DF808508DF80F90CDF80080FDF79CFD5C
:104190009DF80F70204610210122FCF769FD204692
:1041A00010210022FCF764FD27208DF8080002A9E9
:1041B0000DF10F02304601238DF80F90CDF80080ED
:1041C000FDF782FD02A90DF10F02304601238DF8A3
:1041D00008708DF80F90CDF80080FDF775FD204632
:1041E00010210122FCF744FDF8061BD520461021C2
:1041F00000221025FCF73CFDE1208DF8080040F27C
:104200006C30C2F2000002A90DF10F0201238DF8FB
:104210000F90CDF80080FDF757FD204610210122B8
:10422000FCF726FDFFF75EFB204610210022FCF77D
:104230001FFD40F26C36E220C2F200068DF8080045
:1042400002A90DF10F02304601238DF80F90CDF831
:104250000080FDF739FD204610210122FCF708FD02
:10426000204610210022FCF703FDE1208DF8080014
:1042700002A90DF10F02304601238DF80F90CDF801
:104280000080FDF721FD204610210122FCF7F0FC03
:104290000820FDF725F9B80648BF2025284604B0B8
:1042A000BDE8F0872DE9F04782B040F60008C4F27F
:1042B000010805464046102100224FF00009FCF796
:1042C000D7FC40F26C36A820C2F200068DF805003B
:1042D0004FF00A0A0DF1050101AA304601238DF8BD
:1042E0000490CDF800A0FDF7EFFC28780DF107074A
:1042F0000DF106048DF807003046394622460123A9
:104300008DF80690CDF800A0FDF7DEFC6878394600
:104310008DF807003046224601238DF80690CDF82F
:1043200000A0FDF7D1FCA87839468DF8070030468B
:10433000224601238DF80690CDF800A0FDF7C4FCBD
:10434000E87839468DF807003046224601238DF87B
:104350000690CDF800A0FDF7B7FC287939468DF816
:1043600007003046224601238DF80690CDF800A0C4
:10437000FDF7AAFC687939468DF8070030462246D9
:1043800001238DF80690CDF800A0FDF79DFCA879DB
:1043900039468DF807003046224601238DF80690F5
:1043A000CDF800A0FDF790FCE87939468DF80700BC
:1043B0003046224601238DF80690CDF800A0FDF787
:1043C00083FC404610210122FCF752FC02B0BDE8FC
:1043D000F08700002DE9F04383B040F60008C4F2F6
:1043E000010805464046102100220024FCF740FC4D
:1043F00045F0200040F26C35C2F200058DF809004E
:104400004FF00A090DF1090102AA284601238DF88F
:104410000840CDF80090FDF757FCAA200DF10B06DF
:104420000DF10A078DF80B00284631463A46012364
:104430008DF80A40CDF80090FDF746FCBB208DF8C2
:104440000B00284631463A4601238DF80A40CDF844
:104450000090FDF739FCCC208DF80B002846314642
:104460003A4601238DF80A40CDF80090FDF72CFC68
:10447000DD208DF80B00284631463A4601238DF8A1
:104480000A40CDF80090FDF71FFCEE208DF80B00E0
:10449000284631463A4601238DF80A40CDF800906F
:1044A000FDF712FC404610210122FCF7E1FB03B0AE
:1044B000BDE8F0832DE9F04182B040F60008C4F277
:1044C00001080D4606464046102100220027FCF751
:1044D000CFFB46F0200040F26C36C2F200068DF8A9
:1044E00005000A240DF1050101AA304601238DF8CB
:1044F00004700094FDF7E8FB0DF107010DF10602D1
:10450000304601238DF807508DF806700094FDF7B2
:10451000DBFB404610210122FCF7AAFB02B0BDE8FC
:10452000F0810000FEE7000084B040F23810C2F2D3
:10453000000040F27C21C2F200013430029001F10F
:104540003400019079E000BF40F208004FF47A7225
:10455000C2F20000028040F22E100024C2F20000DD
:10456000048040F22C10C2F20000048040F23010AF
:10457000C2F200004FF47A710480002500200391FC
:1045800000B205F0B1FB064628B205F0ADFB80464F
:1045900020B205F0A9FB40F2FC01C2F200010A685A
:1045A00040F2E401C2F20001D1F8009040F2E801CB
:1045B000C2F20001D1F800A040F2EC01C2F2000109
:1045C000D1F800B040F2F001C2F20001044640F21E
:1045D00038100D68C2F20000314600F03DF9064681
:1045E00040F27C20C2F2000041464A4600F034F915
:1045F000074602983146524600F02EF906460198C9
:1046000039465A4600F028F9074640F26040C2F2A7
:10461000000021462A4600F01FF90346039840F2A5
:10462000E24100B28842BCBF0026002731463A462C
:10463000FBF7B2FF012002F0CDFD40F6E410C2F21C
:10464000000090F8A00001283FF47EAF40F22E1148
:10465000C2F200010D8840F23011C2F200010C8854
:1046600040F2080140F22C10C2F20001C2F2000038
:104670000988008883E7000040F25444C2F2000435
:104680000125002603E000BF012002F0A3FD2078F1
:104690000028F9D12570FEF79BFC2670F4E7000096
:1046A00086B040F22C1740F6E41940F2080A40F2B6
:1046B000FC0B40F2E405C2F20007C2F2000900263A
:1046C000C2F2000A4FF0BB08C2F2000BC2F20005B2
:1046D00003E000BF012002F07DFDB868441CBC600F
:1046E00099F80800012840F0838089F8086099F85B
:1046F0000000AA287CD199F8010099F8031099F8D4
:10470000022041EA004040EA02201107C9F80C00EB
:1047100004D499F8A010012903D008E00121A9F8D8
:10472000A0104FF47A71AAF800103E60BE8000F02D
:104730006DF999F8050099F8048099F8065099F8F0
:1047400007607F3805F0D0FA40F2000BC4F2FE2B70
:10475000594605F0B7F90390A5F17F0005F0C4FABA
:10476000594605F0AFF90290A6F17F0005F0BCFABA
:10477000594605F0A7F9834608EB480000F57A7022
:104780000025AAF800000398C4F2F0152946CDF8D8
:104790000480002605F03CFB05F08AFA7880029838
:1047A000294605F035FB05F083FA0021388058468C
:1047B000C4F2201105F02CFB05F07AFA99F8A0104C
:1047C00040F2FC0B40F2E40501294FF0BB08C2F2B5
:1047D000000BC2F20005B8800AD199F80D0040071D
:1047E00006D5019804289CBF4FF48070A9F8A0005A
:1047F000322CFFF46FAFDBF80000BE608DF8108044
:1048000005F056FA29688DF81100084605F050FAAF
:1048100040F20011C2F2000109688DF8120008464A
:1048200005F046FABAF800108DF81300080A8DF862
:10483000150004A88DF81410ADF81660FFF76EFA95
:1048400020287FF447AF41F20000C4F201004FF48A
:104850000051FCF705FA3DE72DE9F04F81B0D0F8A3
:104860001C900446C4E90512C0F820900846114681
:1048700005F02CFC0646E061A068D4E9001B00901E
:10488000D4F80C80304605F0C3FA8246A76A60620D
:104890005846314605F0BCFA394605F075F888F0FF
:1048A00000452946074605F0E5F883463846414667
:1048B00005F0E7F8002818BF474630464946BBF1E7
:1048C000000F08BF2F46A76205F000FC009905F015
:1048D0009FFA0546E0625046394605F055F8014614
:1048E000284605F051F82569064685F00047394607
:1048F00005F0C0F880463046294605F0C2F8002889
:1049000018BF2E46B8F1000F08BF3E46304626635A
:1049100001B0BDE8F08F000080B5DDE902EC80E871
:104920000E40C0F810C080BD000000000000000074
:10493000EFF30980BFF36F8F0D4B1A6820E9F00F7A
:1049400010602DE908404FF0500080F3118803F00B
:10495000E9FC4FF0000080F31188BDE808401968B9
:104960000868B0E8F00F80F30988BFF36F8F7047D5
:10497000A001002070B540F6E414C2F20004002645
:104980000220C4E907060420C4E90A060820C4E995
:104990000D061020C4E910062020C4E913064020AB
:1049A000C4E916068020C4E919064FF48070C4E9F2
:1049B0001C064FF40070C4E91F064FF48060012507
:1049C000C4E922064FF40060C4E90456267684F850
:1049D000246084F8306084F83C6084F8486084F88F
:1049E000546084F8606084F86C6084F8786084F8BF
:1049F000846084F89060C4E9250684F89C60FEF722
:104A0000F7FEA4F8A050267270BD000040F6E41135
:104A1000C2F200010A69024200F08C804A69B2FACF
:104A200082F35B0901320B764A61CA69024200F0E7
:104A300088800A6AB2FA82F35B09013281F8243075
:104A40000A628A6A024200F08480CA6AB2FA82F379
:104A50005B09013281F83030CA624A6B024200F0D1
:104A600080808A6BB2FA82F35B09013281F83C30B4
:104A70008A630A6C02427CD04A6CB2FA82F35B0908
:104A8000013281F848304A64CA6C024279D00A6D1A
:104A9000B2FA82F35B09013281F854300A658A6DFB
:104AA000024275D0CA6DB2FA82F35B09013281F815
:104AB0006030CA654A6E024271D08A6EB2FA82F3E1
:104AC0005B09013281F86C308A660A6F02426DD050
:104AD0004A6FB2FA82F35B09013281F878304A6793
:104AE000CA6F024269D0D1F88020B2FA82F35B0922
:104AF000013281F88430C1F88020D1F88820024248
:104B000064D0D1F88C20B2FA82F35B09013281F8CB
:104B10009030C1F88C20D1F8942002425FD0D1F8B7
:104B20009800B0FA80F25209013081F89C20C1F857
:104B30009800704700224A610A76CA6902427FF4EF
:104B400078AF00220A6281F824208A6A02427FF448
:104B50007CAF0022CA6281F830204A6B02427FF4A7
:104B600080AF00228A6381F83C200A6C02427FF405
:104B700083AF00224A6481F84820CA6C02427FF465
:104B800086AF00220A6581F854208A6D024289D1DD
:104B90000022CA6581F860204A6E02428DD100224F
:104BA0008A6681F86C200A6F024291D100224A671E
:104BB00081F87820CA6F024295D10022C1F8802086
:104BC00081F88420D1F8882002429AD10022C1F8CD
:104BD0008C2081F89020D1F8942002429FD10020AF
:104BE000C1F8980081F89C00704700002DE9F0435F
:104BF00081B0089C984615460E468146FCF73EF863
:104C0000201A00EB0804FCF739F840F21001C2F258
:104C100000010968C1F3CB3161430091D9F800105C
:104C20008A683240921BB2FA82F2520995423DD014
:104C3000074618F1010031D0FCF720F8C01BA04254
:104C400038D2009800990028A1F101010091D9F80B
:104C50000010896808BF044601EA0600801BB0FA0C
:104C600080F040098542E7D120E000BF88683040ED
:104C7000801BB0FA80F04009854217D08868304028
:104C8000801BB0FA80F0400985420FD08868304020
:104C9000801BB0FA80F04009854207D08868304018
:104CA000801BB0FA80F040098542DFD1002001B0BE
:104CB000BDE8F083D9E900014268B1F5827F22F0B6
:104CC000E00242600BD1D9F80810B1F5004F02D0D4
:104CD000B1F5806F03D1016821F040010160D9F87E
:104CE0002810B1F5005F07D1016821F4005101607F
:104CF000016841F400510160012089F85100002051
:104D000089F85000032001B0BDE8F08300000000E6
:104D1000074B19680868B0E8F00F80F30988BFF303
:104D20006F8F4FF0000080F311884EF00D0E70472A
:104D3000A0010020012002F04DFAFBE780B54EF201
:104D40001000CEF20000006803F0AAFF012808BF9F
:104D500080BDBDE8804003F0E3BB00007047000069
:104D600040F20C40C2F20000FDF73CBAFEE7000042
:104D70004EF60C50BFF34F8FCEF2000001680422B4
:104D800001F4E061C0F2FA5211430160BFF34F8FAA
:104D900000BF00BF00BF00BFFAE70000F0B587B05A
:104DA00004464CF60220C0F6E3100DF10605CDF8DE
:104DB0000600682004212A4602F0CCF914F04001D4
:104DC0004FF0A3006FF03F018DF8060008BF6FF0B1
:104DD0005C016FF037026FF03D0308BF6FF05C02BB
:104DE00008BF6FF05C038DF8071014F4C0716FF00A
:104DF0003B018DF808208DF8093008BF6FF05C0189
:104E00006FF033026FF0390308BF6FF05C0208BF28
:104E10006FF05C038DF80A104AF2A3318DF80B2075
:104E2000ADF80D108DF80F0040F6A7200A212A4694
:104E30008DF80C3002F08EF92020A60708BF6FF025
:104E400027008DF8060040F6B62001212A4602F020
:104E500081F9A0060CD4C720069048F6B000CCF229
:104E6000C35005904AF6B820CAF6AA200BE000BF4E
:104E70005D20069049F6B400C3F20D5005904AF645
:104E8000B820C8F6B350049004AA4FF497600921E3
:104E900002F060F914F4C07F25D06FF04D016FF07F
:104EA000740214F4807008BF6FF04F0108BF6FF0F8
:104EB0007F026FF049036FF0640508BF6FF04B038A
:104EC000002808BF6FF06F058DF806108DF80720D9
:104ED0000DF1060240F6A22004218DF808308DF86D
:104EE000095002F037F9E00708D1D8208DF8060004
:104EF0000DF106024FF40B60012150E0F8208DF80F
:104F000006000DF106024FF40B60012102F022F9B8
:104F10000720FA2100F0F8FA3F208DF8100004AACB
:104F20004FF4A470012102F015F900208DF8100053
:104F300004AA40F24F10012102F00CF94FF4A050E6
:104F4000ADF8100004AA4FF4EF70022102F002F94C
:104F50004FF4C840ADF8100004AA4FF4ED700221E0
:104F600002F0F8F848F60060C9F2F900049004AACB
:104F70004FF4AE70042102F0EDF84FF40060ADF88C
:104F8000100004AA4FF4AD70022102F0E3F84FF4D0
:104F90000070ADF8100004AA4FF4AC70022102F0CA
:104FA000D9F86FF02600002E58BF6FF027008DF85B
:104FB00006000DF1060240F23D70012102F0CAF830
:104FC000600752BF4FF08B304CF2C020CCF2C4606F
:104FD000049004AA40F69820042102F0BBF801F0E6
:104FE0007DFCE00652BF4FF0A33042F62000C3F62E
:104FF0003000049004AA40F69E20042102F0AAF892
:1050000001F06CFC40F2B80744F00800C2F200075F
:105010006506B88001F062FC062000EAE57114F430
:10502000C07F18BF063114F0140F18BF1031002EC6
:1050300018BF04310020397007B0F0BD4AF270315A
:10504000C0F6000140F6F6304FF48062C82301F04C
:1050500035BA00002DE9F04F89B040F2B809144686
:10506000DDE912B2C2F200090F468046002199F82C
:1050700000000DF1040AABF8001051461E4601F085
:10508000CDFB28B14FF0FF3009B0BDE8F08F00BF75
:10509000B9F804C01CF0140F50D09DF80520B64696
:1050A0009DF80410BDF8066012049DF8095042EA0C
:1050B000016132BA9DF8083041EA1242BDF80A6037
:1050C00022602A0442EA036233BA42EA134363606D
:1050D0009DF80D309DF80C60BDF80E501B0443EA9E
:1050E00006632EBA43EA16461214A6609DF81160B4
:1050F000091452439DF8105001FB012136041A1483
:1051000046EA056602FB02113214BDF8120002FBEA
:10511000021100BA01F1714146EA1040B1F1007F7D
:10512000E06069D8BBF80000102140F4807076463A
:10513000ABF800005FEA4C6004D420E000215FEA95
:105140004C601CD50AEB01001AF801204378344664
:105150008678C57890F804E0407943EA02223A80E4
:1051600045EA062240EA0E207A80B880BBF80000AB
:10517000264641F0060140F00800ABF800001CF4A0
:10518000C07F18D03AF801000AEB010200BA538838
:10519000000CA8F8000018BA9288000CA8F80200C9
:1051A00010BA000CA8F80400BBF80000063140F06B
:1051B0007000ABF800005FEA8C7016D00AEB0105B6
:1051C0006878EC78C10709D0D9F8082032B104F02A
:1051D0000700411CC4F3C20090476878000704D55B
:1051E000D9F80C1009B1A0098847FBF747FD3060DA
:1051F000002009B0BDE8F08F01F070FB0020ABF893
:1052000000004FF0FF3009B0BDE8F08F10B584B05A
:1052100004460DF1020001F067F840F21031BDF8CC
:1052200002C000BFC2F20001098801F003024B076F
:1052300054F822204FF00C0348BF524203EA5103B6
:105240008806E358C1F3811048BF5B4254F8200040
:10525000C90548BF40424FEACC3181FB02C481FB03
:1052600003E281FB00014FEA9C73800F43EA840C48
:105270004FEA9E7340EA810EA00D8DF80400A00B4A
:105280008DF80500A0098DF80600900D8DF8080036
:10529000900B8DF8090090098DF80A00880D8DF8A3
:1052A0000C00880B8DF80D00880943EA82038DF805
:1052B0000E0001AA4FF425700C218DF807C08DF85F
:1052C0000B308DF80FE001F045FF04B010BD000079
:1052D00010B586B04AF6BB71CDF6DF7105914FF27D
:1052E000AA11CDF6DF7104914FF2FE21CCF2AB4151
:1052F000C828039118D80446C0B2C821B1FBF0F009
:10530000002101388DF804108DF8050001AA40F243
:105310001620022101F01EFF30B903AA40F6C12079
:105320000C2101F017FF18B14FF0FF3006B010BD8F
:1053300040F21430C2F200000480002006B010BD1C
:10534000F0B581B040F21031C2F200010E880C239A
:1053500006F003014EF2093450F8211003EA560317
:10536000C0F2CA24720748BF4942C758C6F3811326
:1053700081FB041250F82350F0054FEA91704FEA78
:10538000925148BF6D428DF80010910B40EA8200A7
:105390008DF8011091098DF802108DF803006A460E
:1053A0004FF47470042101F0D5FEE0B9B00648BF97
:1053B0007F42A7FB0401FA1702FB0411800F8A0D3C
:1053C00040EA81008DF800208A0B89098DF80120C0
:1053D0008DF802108DF803006A464FF475700421B1
:1053E00001F0B8FE20B14FF0FF3001B0F0BD00BFBA
:1053F00085FB0401800F8A0D40EA81008DF80020B2
:105400008A0B89098DF801208DF802108DF80300B0
:105410006A464FF47670042101F09CFE01B0F0BDA5
:10542000B0B582B005464AF29921C0F60001C5F335
:10543000C10300F00300CC5C0A5C8DF805404AF221
:1054400096248DF80420C5F38112C0F60004895C0F
:10545000205C8DF806108DF80000E05CA15C8DF8F2
:1054600001008DF8021001AA40F22640032101F04C
:1054700071FE50BB6A4640F22A40032101F06AFEE9
:1054800018BB45F23660C0F27600019044F2266007
:10549000C0F26600690700901CD4A80622D4E80573
:1054A00005D577208DF8060067208DF8020001AA47
:1054B0004FF48860032101F04DFE30B96A4640F296
:1054C0003140032101F046FEB0B14FF0FF3002B091
:1054D000B0BD00BF37208DF8040027208DF80000F4
:1054E000A806DCD557208DF8050047208DF801006F
:1054F000E805D6D4DBE700BF40F21030C2F200006E
:105500000580002002B0B0BDF0B583B00446B1F50F
:10551000C86F4FF0FF3055D814F0070252D008463C
:1055200004F0FAFB0021C4F2483104F0CBFA05463E
:105530000DF1070000F0BCFE9DF8070002384FEAAD
:105540007002072A4FF0FF303CD80026C4F24066B4
:105550004FF08D41DFE802F01504360A363636107A
:105560000026C4F2C0564FF08C410AE00026C4F277
:1055700040564FF08B4104E00026C4F2C0464FF085
:105580008A41284604F044FC07462846314604F088
:105590003FFC04F08DFB0646384604F089FB010A07
:1055A0008DF808108DF80900300A02A98D1C8DF8BD
:1055B0000A00E0078DF80B6006D1A00714D460073D
:1055C00022D4002003B0F0BD02AA4FF4EA700221F9
:1055D00001F0C0FD38BB4FF4927002212A4601F061
:1055E000B9FD00BBE9E700BF02AA4FF4EC7002214D
:1055F00001F0B0FDB8B94FF4947002212A4601F0D1
:10560000A9FD80B9DBE700BF02AA4FF4EE700221CA
:1056100001F0A0FD38B94FF4967002212A4601F03E
:1056200099FD0028CDD04FF0FF3003B0F0BD000051
:105630002DE9F04F85B040F21407C2F200070C4686
:1056400005460120D7E90013ADF808001878497D18
:10565000164602AB022200F0FBFC002840F0C2809C
:10566000C820FBF729F90020D7E900128DF80800BF
:105670001078497C02AB012200F0EAFC002840F0DF
:10568000B180D7E9001002AB00784979012200F01F
:10569000DFFC002840F0A680D7E9001002AB0078BC
:1056A000497D012200F0D4FC002840F09B80D7E91E
:1056B000001002AB0078897E012200F0C9FC0028AE
:1056C00040F09080D7E9001002AB00780979012200
:1056D00000F0BEFC002840F085800C20D7E90012C5
:1056E0008DF808001078097902AB012200F0B0FCB7
:1056F000002877D10F20FBF7DFF8B86AD7E900124E
:10570000407A89788DF80800107802AB012200F009
:105710009FFC002866D1B86AD7E90012007A497860
:105720008DF80800107802AB012200F091FC0028EF
:1057300058D1B86AD7E90012807A002E18BF40F01D
:10574000E0008DF808001078897902AB012200F0A2
:105750007FFC002846D12EB1B86AC07A60F01F00E5
:1057600001E000BF1820D7E900128DF8080010787A
:10577000C97902AB012200F06BFC98BB16B1C820BE
:10578000FBF79AF84020D7E900128DF8080010784E
:10579000097902AB012200F05BFC18BB7820D7E945
:1057A00000128DF808001078497902AB012200F050
:1057B0004FFCB8B93220FBF77FF80020D7E9001280
:1057C0008DF808001078497902AB012200F040FC06
:1057D00040B9D7E9001002AB0078097B022200F043
:1057E000BFF828B14FF0FF3005B0BDE8F08F00BF23
:1057F000BDF808004AF6AB2100BA000C4843C0F3DC
:10580000C7420021002AC5E90011A960C4E90011BE
:105810000192A16044D0C00C00260DF108095FFA86
:1058200080FBD7E900100C220078497B4B4600F042
:1058300097F80028D6D1BDF80A10BDF80800BDF8C9
:105840000C2091FA81FEA16890FA80FC12BAD4E98A
:10585000003001EB224103EB2C4300EB2E40A16012
:10586000BDF81010C4E90030BDF81220BDF80E00DC
:1058700091FA81FCD5E9003192FA82FEAA680136DC
:1058800000BA01EB2C48F1B203EB204002EB2E4AA8
:105890005945C5E90008C5F808A0C2D302E000BF19
:1058A00095E80105C117090441EA1041000483226B
:1058B0000023FAF79FFC019F00233A46FAF79AFC6F
:1058C00028604FEAE870000440EA18414FEA0840B7
:1058D00083220023FAF78EFC3A460023FAF78AFC6B
:1058E00068604FEAEA70000440EA1A414FEA0A4051
:1058F00083220023FAF77EFC3A460023FAF77AFC6B
:10590000A860D4E90006A568C117490141EAD06141
:1059100040013A460023FAF76DFC2060F017400181
:1059200040EAD66170013A460023FAF763FC6060F2
:10593000E817400140EAD56168013A460023FAF7CA
:1059400059FC01464FF480320029C4BF0022CFF633
:10595000FF7211440020A16005B0BDE8F08F000087
:1059600010B584B094460A4605210291410040F2E8
:1059700018300093C2F200000123CDF804C0FBF7F9
:105980004FFA40F25641C2F2000148B10A8804467B
:1059900001320A8000F008F8204604B010BD00BFB4
:1059A00000220A8004B010BD40F25640C2F200004E
:1059B0000188032938BF704770B58EB00025058077
:1059C000402040F600440A901120C4F201040B90DC
:1059D0000320CDE90C500AA92046FBF733F82046F6
:1059E00040210022FBF744F902950298042817DCB5
:1059F0000298013002900298042811DC02980130CC
:105A00000290029804280BDC029801300290029860
:105A1000042805DC02980130029002980528E7DB93
:105A2000204640210122FBF723F902950298042821
:105A300018DC00BF0298013002900298042811DCA3
:105A4000029801300290029804280BDC0298013081
:105A500002900298042805DC029801300290029816
:105A60000528E7DB2046402100220025FBF700F94E
:105A700002950298042817DC0298013002900298DF
:105A8000042811DC029801300290029804280BDCF3
:105A90000298013002900298042805DC0298013037
:105AA000029002980528E7DB204640210122FBF7FF
:105AB000DFF802950298042818DC00BF0298013034
:105AC00002900298042811DC02980130029002989A
:105AD00004280BDC0298013002900298042805DCAF
