:020000040800F2
:100000007007002089010008C11900089314000836
:10001000B91500088F020008D51D00080000000077
:10002000000000000000000000000000D51A0008D9
:100030009102000800000000C3190008D71A000848
:10004000A3010008A3010008A3010008A301000800
:10005000A3010008A3010008A3010008A3010008F0
:10006000A3010008A3010008A3010008A3010008E0
:10007000A3010008A3010008A3010008A3010008D0
:10008000A3010008A3010008A3010008A3010008C0
:10009000A3010008A3010008A3010008A3010008B0
:1000A000A3010008A3010008A3010008A3010008A0
:1000B0003D1B0008A3010008A3010008A3010008DC
:1000C000A3010008A3010008A3010008A301000880
:1000D000A3010008C91D0008A3010008A30100082E
:1000E000A3010008A3010008A301000800F002F822
:1000F00000F03AF80AA090E8000C82448344AAF188
:100100000107DA4501D100F02FF8AFF2090EBAE885
:100110000F0013F0010F18BFFB1A43F0010318473B
:10012000081E0000281E0000103A24BF78C878C1BD
:10013000FAD8520724BF30C830C144BF04680C60ED
:10014000704700000023002400250026103A28BF35
:1001500078C1FBD8520728BF30C148BF0B60704739
:100160001FB51FBD10B510BD00F058F81146FFF7C0
:10017000F7FF01F041FE00F076F803B4FFF7F2FF5D
:1001800003BC00F07DF8000009488047094800479B
:10019000FEE7FEE7FEE7FEE7FEE7FEE7FEE7FEE737
:1001A000FEE7FEE704480549054A064B7047000094
:1001B000391B0008ED0000087001002070070020C6
:1001C00070030020700300204FF0000200B51346BA
:1001D00094469646203922BFA0E80C50A0E80C5067
:1001E000B1F12001BFF4F7AF090728BFA0E80C5018
:1001F00048BF0CC05DF804EB890028BF40F8042B11
:1002000008BF704748BF20F8022B11F0804F18BF7D
:1002100000F8012B7047704770477047754600F033
:100220002BF8AE4605006946534620F00700854688
:1002300018B020B5FFF7B6FFBDE820404FF000062C
:100240004FF000074FF000084FF0000B21F00701BE
:10025000AC46ACE8C009ACE8C009ACE8C009ACE801
:10026000C0098D46704710B50446AFF300802046A4
:10027000BDE81040FFF781BF004870471001002023
:1002800001491820ABBEFEE7260002007047FEE7DA
:10029000704772B6FEE710B590F8211000220229CF
:1002A00005D00421816380F82020012010BD016861
:1002B0000B6823F00E030B6001680B6823F0010349
:1002C0000B6090F84030C46B012101FA03F36360C6
:1002D00080F8211080F82020104610BD10B590F84D
:1002E00021100024022903D00421816301243DE070
:1002F00001680A6822F00E020A6001680A6822F0AA
:1003000001020A601A4A0168914201D1012121E0EB
:10031000174A1432914201D110211BE0144A2832AD
:10032000914201D1891515E0114A3C32914201D127
:1003300089140FE00E4A5032914202D14FF48031BD
:1003400008E00B4A6432914202D14FF4801101E07F
:100350004FF08071064A083A5160012180F821105F
:10036000002180F82010416B01B18847204610BD64
:100370000800024070B5044600F00CF90546601C08
:1003800002D004480078044400F004F9401BA04265
:10039000FAD370BD100000202DE9F84FDFF8B891B6
:1003A0000024A9F1040B23460F2709F1040AABF13D
:1003B000040EC9E00125A5402A40AA427DD1674E1E
:1003C000D1F804C0ACEB0608B44532D014DCBCF163
:1003D000030F3AD009DCBCF1000F2AD0BCF1010FA9
:1003E0001CD0BCF1020F31D11DE0BCF1110F17D0B0
:1003F000BCF1120F2AD119E0B8F5881F19D006DC1C
:10040000B8F5803F15D0B8F5801F1FD111E0B8F5C1
:10041000001F0ED0B8F5041F18D10AE0CB6815E014
:10042000CB681B1D12E0CB6808330FE0CB680C33A0
:100430000CE08B682BB1012B4FF0080303D0456112
:1004400004E0042302E0056100E00023FF2A01D854
:10045000064601E000F104064FEA840501D9A5F142
:100460002005D6F8008007FA05FC28EA0C0803FAF4
:1004700005F548EA0508C6F800804D68ED0062D52C
:10048000374DAE6946F00106AE61AD6924F0030652
:1004900005F001050095334D06EB050CDCF808501E
:1004A000A607360F07FA06F825EA0805DFF8B88030
:1004B000404503D14FF0000817E044E0DFF8AC807E
:1004C000404502D14FF001080FE0DFF8A48040451D
:1004D00002D14FF0020808E0DFF89880404502D1D1
:1004E0004FF0030801E04FF0040808FA06F848EA64
:1004F0000508CCF808804D68D9F80060ED024D463B
:1005000001D5164300E096432E604D68DAF800608E
:10051000AD02554601D5164300E096432E604D6866
:10052000DBF80060AD035D4601D5164300E096435D
:100530002E604D68DEF80060ED03754601D5164368
:1005400000E096432E60641C0D682A46E5407FF467
:1005500031AFBDE8F88F0000080401400000111021
:10056000001002400000014000080140000C014062
:100570000010014000140140C26821EA02030A4051
:1005800043EA0241016170470AB101617047090401
:10059000FBE7000001488068704700001000002061
:1005A0000248816802781144816070471000002081
:1005B000074810B5016841F010010160032000F008
:1005C00075F8002000F006F800F024F8002010BDB7
:1005D0000020024070B50D4D04464FF47A71287822
:1005E000B1FBF0F00A490968B1FBF0F000F066FCDD
:1005F00048B9102C07D200222146501E00F036F8D0
:1006000000206C6070BD012070BD00001000002053
:100610001C0000200C4808B5816941F0010181618E
:10062000816901F001010091C16941F08051C1610E
:10063000C06900F0805000900448416821F0E061FA
:1006400041F00071416008BD00100240000001400F
:10065000002809DB00F01F020121914040098000C1
:1006600000F1E020C0F8001170470000F0B40E4B1C
:100670001B680C46C3F30223C3F10705042D00D900
:100680000425191D072901D2002300E0DB1E0126E5
:1006900006FA05F1491E214099409E40761E1640FB
:1006A0003143F0BC01F097BB0CED00E0064900F0CF
:1006B000070208684FF6FF03184040EA0220034A89
:1006C00010430860704700000CED00E00000FA05E0
:1006D0002DE9F0470F46050061D0434E306800F029
:1006E0000700B84209D2306820F007003843306074
:1006F000306800F00700B84251D128683B4C8107B0
:1007000012D5400703D5606840F4E0606060287847
:10071000000703D5606840F4605060606068A968B5
:1007200020F0F000084360602878C00728D068688F
:10073000012810D02168022810D0890700292EDA5C
:10074000616821F0030101436160FFF723FF8046E8
:1007500041F288390DE021688903EFE78901EDE76F
:10076000FFF718FFA0EB0801494502D90320BDE8B7
:10077000F0876068696800F00C00B0EB810FEFD182
:10078000306800F00700B8420BD9306820F007004D
:1007900038433060306800F00700B84201D00120D3
:1007A000E5E72878400705D56068E96820F4E0604F
:1007B000084360602878000706D56068296920F43E
:1007C000605040EAC100606000F038F86168084A93
:1007D000C1F30311515CC84006490860064800682F
:1007E000FFF7F8FE0020C2E70020024000100240A0
:1007F0000A1F00081C0000201400002004480549BE
:1008000000684968044AC1F30221515CC84070473E
:100810001C000020001002401A1F0008044805496F
:1008200000684968044AC1F3C221515CC84070475E
:100830001C000020001002401A1F00080E4A5168D8
:100840000E4801F00C03042B11D0082B0FD10C48DB
:10085000C1F38343C903C05C0AD55168084AC1F398
:100860004041921E515C054A5043B0FBF1F0704785
:1008700004494843704700000010024000127A000B
:10088000FA1E000800093D002DE9F84F040070D061
:100890002078C04DC00749D06868C0F381000128A6
:1008A00007D06868C0F38100022809D16868C003D6
:1008B00006D52868800339D560680028E7D035E080
:1008C0006068B0F5803F0BD010B1B0F5A02F11D00B
:1008D000286820F480302860286820F4802002E016
:1008E000286840F480302860606890B1FFF752FEBD
:1008F00006460AE0286840F480202860F0E700BF40
:10090000FFF748FE801B642873D828688003F7D55A
:100910000CE0FFF73FFE064605E000BFFFF73AFE9A
:10092000801B6428F0D828688003F7D420789A4E7A
:1009300080074FF001094FF0000839D5686810F0C2
:100940000C0F07D06868C0F38100022809D16868DD
:10095000C00306D42868800714D52069012808D16F
:1009600010E02069B0B1C6F80090FFF713FE07460B
:1009700005E00AE1FFF70EFEC01B0228C4D8286874
:100980008007F7D52868616920F0F80040EAC100C7
:1009900028600DE0C6F80080FFF7FCFD074604E084
:1009A000FFF7F8FDC01B022823D828688007F7D47A
:1009B000207800072CD57948A169D9B1C0F80090FA
:1009C000FFF7E8FD074604E0FFF7E4FDC01B02283F
:1009D0000FD8686A8007F7D571484FF4FA5100685C
:1009E000B0FBF1F0009000BF0098411E0091FAD2D8
:1009F0000EE080E0C0F80080FFF7CCFD074604E081
:100A0000FFF7C8FDC01B022875D8686A8007F7D4B5
:100A10002078400760D5E8690027C00008D4E8695D
:100A200040F08050E861E869012700F080500090B4
:100A30005C480168C90513D40168834641F480719C
:100A40000160FFF7A7FD824606E000BFFFF7A2FDA9
:100A5000A0EB0A0064284ED8DBF80000C005F5D5ED
:100A6000E06801280AD008B1052813D0286A20F0D0
:100A700001002862286A20F0040002E0286A40F0A1
:100A800001002862E06841F2883B98B1FFF782FDDF
:100A900082460BE0286A40F004002862EEE700BFBF
:100AA000FFF778FDA0EB0A0159455AD8286A80075C
:100AB000F6D50CE0FFF76EFD824605E0FFF76AFD14
:100AC000A0EB0A0159454CD8286A8007F6D41FB11B
:100AD000E86920F08050E861E06988B36968C1F393
:100AE0008101022944D00228C6F8608004D0FFF7B3
:100AF00051FD044638E034E0FFF74CFD074604E0C2
:100B0000FFF748FDC01B02282BD828688001F7D4C6
:100B1000206AB0F5803F05D16868A16820F40030F4
:100B200008436860D4E908010843696821F4741136
:100B300008436860C6F86090FFF72CFD044606E0A5
:100B400025E000BFFFF726FD001B022809D8286812
:100B50008001F7D51BE000BFFFF71CFD001B02283A
:100B600002D90320BDE8F88F28688001F4D40EE094
:100B70000128F7D06868226A00F48031914204D1DC
:100B8000616A00F47010884201D00120EAE7002079
:100B9000E8E70000001002400000424280044242A8
:100BA0001C0000200070004070B5040009D0606A8D
:100BB000002540B125616561A56294F8510040B1FE
:100BC0000CE0012070BD6068B0F5827FF4D0E56173
:100BD000F2E784F85050204600F040F8022084F8F4
:100BE00051002068016821F040010160A08821893E
:100BF00000F4827001F404410843A18901F400610A
:100C00000843217C01F002010843217D01F001012C
:100C10000843218B01F400710843217F01F0380162
:100C2000084394F8201001F080010843218D01F45D
:100C30000051084321680860A069042101EA1040BE
:100C4000216848602068C16921F40061C16165655F
:100C5000012084F85100002070BD000030B585B03F
:100C6000002400940194029403940068144988427B
:100C700023D11448816941F480518161816901F473
:100C800080510491816941F00401816180690E4DB8
:100C900000F004000490A0200090022001900320A6
:100CA000039069462846FFF777FB4020CDE9000412
:100CB000694628460294FFF76FFB05B030BD00007F
:100CC0000030014000100240000801402DE9FF4FB4
:100CD00081B01D46934604464FF001090E9EFFF772
:100CE00059FC074694F851006168012806D0B1F517
:100CF000827F3CD1A168C9BB042838D10298002862
:100D000071D0BBF1000FFBD0002DF9D094F850004A
:100D100001282CD04FF0010A84F850A094F851001B
:100D2000042802D0052084F851004FF00008C4F8D0
:100D30005480C4F838B0E587A58702992163E58619
:100D4000A586C4F84080C4F844802068016849063C
:100D500003D4016841F040010160E068B0F5006F24
:100D6000606808D0F0B3012D49D081E0FFE7022090
:100D700005B0BDE8F08F08B1012D39D1206B216895
:100D80000088C860206B801C2063E08E401EE086D7
:100D90002EE02068816889070FD5E18E69B1B9F12D
:100DA000010F0AD1216B0988C160206B801C206370
:100DB000E08E401EE0864FF0000920688168C90778
:100DC0000CD0E18F51B1C068A16B0880A06B801C72
:100DD000A063E08F401EE0874FF00109FFF7DAFBC8
:100DE000C01B01E00BE067E0B04201D3701C50D1A2
:100DF000E08E0028CDD1E08F0028CAD13EE0206BE4
:100E0000216800780873206B401C2063E08E401E30
:100E1000E0862DE02068816889070FD5E18E69B1F1
:100E2000B9F1010F0AD1216B09780173206B401CC5
:100E30002063E08E401EE0864FF000092068816844
:100E4000C9070CD0E18F51B1C068A16B0870A06BCD
:100E5000401CA063E08F401EE0874FF00109FFF7C0
:100E600099FBC01BB04202D3701C01D011E086B1C7
:100E7000E08E0028CED1E08F0028CBD13A46314613
:100E8000204600F09FFD50B12020606584F850801E
:100E900012E084F851A084F85080032068E7A0682D
:100EA00018B92068C1688068009084F851A084F85F
:100EB0005080606D0028F1D0012059E710B5401E28
:100EC000B0F1807F01D3012010BD4FF0E0246061BC
:100ED0000F21601700F07FFF0020A0610720206134
:100EE000002010BD7047704770472DE9F04104465F
:100EF0000068C66805694FF00007A90713D5B10758
:100F000011D5F91E016101202077206880698007D2
:100F1000204602D0FFF7E8FF04E000F07EF820460C
:100F200000F07CF82777680716D5700714D521687C
:100F30006FF004000861022020772068806910F4B7
:100F4000407F204602D0FFF7CFFF04E000F065F8B5
:100F5000204600F063F82777280715D5300713D50A
:100F600021686FF008000861042020772068C069BC
:100F70008007204602D0FFF7B7FF04E000F04DF8ED
:100F8000204600F04BF82777E80616D5F00614D572
:100F900021686FF010000861082020772068C06980
:100FA00010F4407F204602D0FFF79EFF04E000F0DF
:100FB00034F8204600F032F82777E80708D0F00729
:100FC00006D021686FF001000861204600F027F884
:100FD000280608D5300606D521686FF08000086124
:100FE0002046FFF77FFF680608D5700606D5216802
:100FF0006FF040000861204600F012F8A8060AD5FC
:10100000B00608D521686FF0200008612046BDE8D1
:10101000F041FFF768BFBDE8F08170477047704747
:101020007047704770470000F8B5016804460868CB
:10103000CA684B6910F00F0F4FF0000559D003F04C
:10104000010602F49077374365D0C10705D0D1057A
:1010500003D5616C41F001016164410705D5D907F1
:1010600003D0616C41F002016164810705D5D907A5
:1010700003D0616C41F004016164010707D502F0FF
:101080002001314303D0616C41F008016164616C5F
:1010900000293AD0800604D5900602D5204600F0FB
:1010A00082FD20684069616CC0F38010090700D49C
:1010B00060B3204600F050FD20684069400621D50D
:1010C0002068143050E8001F21F0400140E8001271
:1010D000002AF5D1E06BA8B16D494163E06BFFF7E1
:1010E000FDF8002811D0E06B416B01B0BDE8F04085
:1010F000084783060FD593060DD52046BDE8F84076
:1011000000F051BD2046FFF78DFFF8BD2046FFF7E8
:1011100089FF6564F8BD266B2023012E7CD1C606AD
:101120007AD5D60678D508684868009048694FF0A7
:101130000206400640D5E16B086840680004000CD8
:10114000E8D0A28D8242E5D9E085886920282DD09B
:1011500020680C3050E8001F21F4807140E8001234
:10116000002AF5D12068143050E8001F21F0010159
:1011700040E80012002AF5D12068143050E8001F22
:1011800021F0400140E80012002AF5D184F84230F5
:10119000256320680C3050E8001F21F0100140E862
:1011A0000012002AF5D1E06BFFF775F86663A08D99
:1011B000E18D401A81B22AE0A08DE18D401A81B202
:1011C000E08D0028A6D00029A4D022680C3252E875
:1011D000000F20F4907042E80007002FF5D120683E
:1011E000143050E8002F22F0010240E80027002FC1
:1011F000F5D184F84230256320680C3050E8002F88
:1012000022F0100240E80023002BF5D1666320464F
:10121000FFF707FFF8BDFFE705062BD5150629D513
:1012200094F841002128F5D1A068B0F5805F01D184
:101230002069B0B1206A411C2162216800784860B1
:10124000E08C401E0004000CE084E3D12068C168FB
:1012500021F08001C1602068C16841F04001C16097
:10126000D8E7206A0088C0F308004860206A801C24
:101270002062E5E74006CDD55006CBD5CA682046AA
:1012800022F04002CA6084F8413000F001F9C1E761
:10129000491B000870B5040004D094F841000025F3
:1012A00010B106E0012070BD84F84050204600F0E7
:1012B00023F8242084F841002068C16821F40051FB
:1012C000C160204600F0D0FC2068016921F4904103
:1012D00001612068416921F02A0141612068C168EB
:1012E00041F40051C1606564202084F8410084F815
:1012F00042006563002070BD30B585B000240094C5
:101300000194029403940068184988422CD118482B
:10131000816941F480418161816901F480410491D6
:10132000816941F0040181618069124D00F004007F
:1013300004904FF40070009002200190032003906D
:1013400069462846FFF728F82815CDE900046946C4
:1013500028460294FFF720F8002211462520FFF7C7
:1013600085F92520FFF774F905B030BD003801403C
:10137000001002400008014090F84230202B01D0BC
:101380000220704721B11AB10023036300F0C8BCEA
:101390000120704710B500681249884220D1FFF73C
:1013A000F9F8114900220B7823B14B68C31A052BB9
:1013B00000D90A7048600C4C087808348B782354A4
:1013C000401CC0B20870082802D30A70012048707F
:1013D00005490122BDE81040891C0448FFF7CCBF35
:1013E00010BD00000038014000000020C8000020AF
:1013F0002DE9F843044690F84100984616460D46FC
:10140000202802D00220BDE8F88385B17EB10020FB
:101410006064212084F84100FFF7BCF8A68481466F
:10142000E684A0682027B0F5805F02D003E00120A9
:10143000E9E7206910B12E4600250EE000260CE0F9
:101440008021204600F087FCA8B9C6B116F8010B30
:1014500021684860E08C401EE084E08C4B464FF0F1
:101460000002CDF800800028EAD14FF0400120466C
:1014700000F071FC40B184F841700320C3E735F8F7
:10148000020BC0F30800E3E784F841700020BAE7DC
:101490007047FEE72DE9F04186B000242348009410
:1014A000019402940394816941F010018161816982
:1014B00001F010010491816941F02001816181698D
:1014C00001F020010491816941F00401816180698A
:1014D000174F00F004004FF40055049000222946F5
:1014E0003846FFF751F8DFF84C80002208214046CB
:1014F000FFF74AF8012210214046FFF745F8009512
:10150000022601250396CDE9015469463846FEF7C7
:1015100043FF1820CDE90005CDE902466946404663
:10152000FEF73AFF06B0BDE8F0810000001002406F
:101530000010014000080140104810B50E4901603C
:101540004FF48271416000218160C1604FF40072EC
:101550000161C0E905121822C0E9072141628162D8
:101560000A21C162FFF720FB002803D0BDE810402C
:10157000FEF78FBE10BD00000030014028000020A3
:101580000C4810B50A4901604FF4E1314160002177
:1015900081600C22C160C0E904128161C161FFF762
:1015A00079FE002803D0BDE81040FEF772BE10BDE2
:1015B00000380140C8000020FEE700002DE9F0419E
:1015C0000546072000F074F804460146072000F0A5
:1015D000DDF9600628D5154F612408260022102168
:1015E0003846FEF7D1FF204600F006FA0024FF201F
:1015F00000F002FA2855641CE4B2B442F7D3012289
:1016000010213846FEF7C0FF002210213846FEF7B1
:10161000BBFFE22000F0F0F9012210213846FEF76E
:10162000B3FF0020BDE8F0810120FBE70008014086
:1016300010B51D4C002208212046FEF7A5FF05220B
:101640001A490A2000F07CF90121084600F09EF9B1
:101650000121022000F09AF90321084600F096F9D2
:101660000821112000F092F901211C2000F08EF9D0
:1016700006211D2000F08AF92821052000F086F9B6
:101680000721062000F082F90F21002000F07EF9EA
:10169000FF21072000F07AF920460122BDE8104022
:1016A0000821FEF771BF000000080140221F00085A
:1016B00070B50A4D0446002210212846FEF764FF4B
:1016C000204600F099F9FF2000F096F90446012227
:1016D00010212846FEF758FF204670BD0008014043
:1016E00010B51C4C012210212046FEF74DFF0022B0
:1016F00008212046FEF748FF002210212046FEF771
:1017000043FF502000F078F9732000F075F90122B2
:1017100010212046FEF738FFFFF78AFF0022102134
:101720002046FEF731FFE22000F066F90122102189
:101730002046FEF729FF002210212046FEF724FF55
:10174000E12000F059F920460122BDE810401021A7
:10175000FEF71ABF0008014010B500220821154805
:10176000FEF712FF05221449102000F0E9F80522C7
:1017700011490A2000F0E4F80121084600F006F9BA
:101780000121022000F002F90321084600F0FEF8D2
:101790000A21042000F0FAF82821052000F0F6F8CC
:1017A0000721062000F0F2F80E21BDE810400020CD
:1017B00000F0ECB800080140221F00082DE9FC41B0
:1017C0005C4E0546002208213046FEF7DDFEFFF79D
:1017D000C3FF002210213046FEF7D6FEE12000F0C4
:1017E0000BF9012210213046FEF7CEFE0022102117
:1017F0003046FEF7C9FEA02000F0FEF80024285D68
:1018000000F0FAF8641CE4B2082CF8D3012210218D
:1018100034463046FEF7B8FE012208212046FEF786
:10182000B3FE00204FF496710090401C0090884257
:10183000FBDB002208212046FEF7A6FE0025FEF76E
:10184000A9FE064609E00720FFF732FF054610F023
:10185000300F07D10120FEF78DFDFEF79BFE801BA8
:101860006428F0D3E80606D5002210212046FEF7B2
:101870008BFEE1202EE0A80633D5680624D5002291
:1018800010212046FEF780FE612000F0B5F800260A
:101890006F46FF2000F0B0F8B855761CF6B2082E5F
:1018A000F7D3012210212046FEF76EFE22490020C8
:1018B0003A5C0A54401CC0B20828F9D30A23082213
:1018C00069461E48FFF794FD002210212046FEF7CE
:1018D0005BFEE22000F090F8012210212046FEF786
:1018E00053FE2946072000F051F8FFF7A1FE002221
:1018F00010212046FEF748FEE12000F07DF801228D
:1019000010212046FEF740FE002210212046FEF75F
:101910003BFEE22000F070F8012210212046FEF785
:1019200033FE02B02046BDE8F04101220821FEF757
:101930002BBE00000008014020000020C80000204D
:101940002DE9F041DFF8408016460D46044600229E
:1019500010214046FEF718FE44F0200000F04CF83D
:101960000746002406E000BF15F8010B00F044F81C
:10197000641CE4B2B442F7D3012210214046FEF7C2
:1019800003FE3846BDE8F0810008014070B50B4DFC
:101990000E460446002210212846FEF7F5FD44F0CD
:1019A000200000F029F8304600F026F82846BDE86F
:1019B000704001221021FEF7E7BD00000008014041
:1019C000FEE77047F8B515460E460B4600920446F2
:1019D0000122022100F022F840B933460022802182
:1019E0002046009500F01AF8002804D0606D40F001
:1019F000200060650320F8BD01B582B000208DF89D
:101A000004000A200090012301AA02A90248FFF75E
:101A10005DF99DF804000EBD280000202DE9F84373
:101A20001E46914688460446089DFEF7B3FD401BBE
:101A3000351AFEF7AFFD074625480068C0F3CB30E6
:101A4000684338E0701C37D0FEF7A4FDC01BA842E5
:101A500003D215B1009860B32CE02068416821F0F2
:101A6000E00141606068B0F5827F0BD1A068B0F5FD
:101A7000004F02D0B0F5806F04D12068016821F0DA
:101A800040010160A06AB0F5005F09D120680168DB
:101A900021F4005101602068016841F400510160A7
:101AA000012084F85100002084F850000320BDE894
:101AB000F8830025401E00902068816838EA010004
:101AC00004D000214945BDD10020F0E70121F9E70C
:101AD0001C0000207047FEF763BD30B58FB0282191
:101AE0006846FEF771FB14210AA8FEF76DFB012181
:101AF0000804CDE900100024029402250491CDE9E8
:101B000007504FF4E01009906846FEF7BDFE08B19B
:101B100072B6FEE70F20CDE90A054FF48060CDE9EB
:101B20000C4002210AA80E94FEF7D2FD002801D035
:101B300072B6FEE70FB030BD704700000148FFF7F6
:101B4000D4B900008000002010B5406A0021C18592
:101B5000C184FFF767FA10BD01680C3151E8002F0E
:101B600022F4907241E80023002BF5D10168143172
:101B700051E8002F22F0010241E80023002BF5D1AB
:101B8000016B012909D101680C3151E8002F22F0C5
:101B9000100241E80023002BF5D1202180F84210EB
:101BA00000210163704708B590F84210222901D046
:101BB000022008BD82684FF480539A4201D1016926
:101BC00021B1816A9A421BD04AB10AE00268816A57
:101BD0005268C2F308020A80816A891C08E002691F
:101BE00072B10268526802F07F020A70816A491C71
:101BF0008162C18D491E0904090CC18503D01BE017
:101C000002685268F1E70168CA6822F02002CA60DF
:101C10000168CA6822F48072CA6001684A6922F0C9
:101C200001024A61202180F8421000214163026BC9
:101C3000012A03D0FFF7AEFB002008BD0163016855
:101C40000C3151E8002F22F0100241E80023002B54
:101C5000F5D101680A68D20602D50A684968009180
:101C6000818DFFF7DEF9E7E770B50446006801698A
:101C7000E26821F44051114301612169A0680843E1
:101C8000616908432168CA6841F20C639A430243C0
:101C9000CA6020684169A26921F440711143416121
:101CA0001E492068884202D1FEF7B8FD01E0FEF728
:101CB000A5FD00EBC00101EB00126068642180000B
:101CC000B2FBF0F3B3FBF1F36FF018067343B2FB12
:101CD000F0F5B2FBF0F605EB8305322303EB0515B7
:101CE000B5FBF1F5B6FBF1F605F0F00505EB0615D1
:101CF000B2FBF0F6B2FBF0F0B0FBF1F06FF01802BF
:101D0000504306EB800003EB0010B0FBF1F02168BC
:101D100000F00F002844886070BD000000380140CA
:101D200081628285C28500214164222180F84210AF
:101D3000016921B10168CA6842F48072CA60016811
:101D40004A6942F001024A610068C16841F020011D
:101D5000C160002070472DE9F843984617460D46AC
:101D60000446089E24E0701C22D0FEF713FCA0EB72
:101D70000800B0421AD8CEB12068C168490717D50B
:101D8000802D15D0402D13D00168C94309070FD409
:101D900001680025406800902046FFF7DDFE08201E
:101DA000606484F840500120BDE8F8830320FBE71D
:101DB0002068006835EA000004D00020B842D2D084
:101DC0000020F1E70120F9E70148FFF72DB90000F5
:101DD000C8000020FEE70907090E002804DB00F117
:101DE000E02080F80014704700F00F0000F1E020C0
:101DF00080F8141D704700001CB5FEF7D9FBFFF7F3
:101E00006CFEFFF747FBFFF797FBFFF7B9FB0122DB
:101E100010213248FEF7B8FBFFF762FC30A1324DCB
:101E2000D1E90001314C4FF40056CDE9000168467C
:101E3000FFF7C4FC2078BB2807D031462846FEF7C0
:101E40009BFB9620FEF796FAF1E700274FF4967871
:101E5000002231462846FEF797FB4046FEF78AFAF5
:101E6000012231462846FEF78FFB4046FEF782FAF4
:101E70007F1C032FECDB002231462846FEF784FB53
:101E800001221B491B48FFF777FA194FB146BF1EC5
:101E90004FF000086E467878012805D187F8018058
:101EA0001348801DFFF78AFC6846FFF787FB002870
:101EB000F1D19DF80000BB28EDD149462846FEF738
:101EC0005BFB0020315C2154401C0828FADB0A230C
:101ED000082269460748FFF78BFADCE70008014053
:101EE000AA000000000000000010014020000020B7
:101EF00002000020C80000200102020304050607BA
:101F000008090A0B0C0D0E0F101000000000000055
:101F10000000010203040607080900000000010296
:101F20000304AABBCCDDEE00481F0008000000201F
:101F30002800000028010008701F00082800002069
:101F400048070000440100080000000000000000F5
:101F50000000000000000000010000001000000070
:101F60000000000000127A000000000000000000E5
:04000005080000ED02
:00000001FF
